:020000040804EE
:100000000000082051160408C5150408CD15040881
:10001000D5150408DD150408E515040800000000E6
:10002000000000000000000000000000ED150408C2
:10003000FB15040800000000091604081716040840
:10004000A1160408A1160408A1160408A1160408A4
:10005000A1160408A1160408A1160408A116040894
:10006000A1160408A1160408A1160408A116040884
:10007000A1160408A1160408A1160408A116040874
:10008000A1160408A1160408A1160408A116040864
:10009000A1160408A1160408A1160408A116040854
:1000A000A1160408A1160408A1160408A116040844
:1000B000A1160408A1160408A1160408A116040834
:1000C000A1160408A1160408A1160408A116040824
:1000D000A1160408A1160408A1160408A116040814
:1000E000A1160408A1160408A1160408A116040804
:1000F000A1160408A1160408A1160408A1160408F4
:10010000A1160408A1160408A1160408A1160408E3
:10011000A1160408A1160408A1160408A1160408D3
:10012000A1160408A1160408A1160408A1160408C3
:10013000A1160408A1160408A1160408A1160408B3
:10014000A1160408A1160408A1160408A1160408A3
:10015000A1160408A1160408A1160408A116040893
:10016000A1160408A1160408A1160408A116040883
:10017000A1160408A1160408A11604080000000036
:10018000A1160408A1160408A1160408A116040863
:10019000A1160408A1160408A1160408A116040853
:1001A000A1160408A1160408A1160408A116040843
:1001B000A1160408A1160408A1160408A116040833
:1001C000A1160408A116040800000000A1160408E6
:1001D000A1160408A1160408A1160408A116040813
:1001E000A1160408A1160408A1160408A116040803
:0801F000A1160408A116040881
:1001F80010B5054C237833B9044B13B10448AFF359
:1002080000800123237010BD4C0100200000000075
:10021800F442040808B5034B1BB103490348AFF384
:10022800008008BD0000000050010020F4420408CE
:1002380053B94AB9002908BF00281CBF4FF0FF3145
:100248004FF0FF3000F06AB9ADF1080C6DE904CE4B
:1002580000F006F8DDF804E0DDE9022304B0704799
:100268002DE9F047089D0C46002B4ED194468C454D
:100278008646B2FA82F262D94AB1C2F120039140AD
:1002880020FA03F30CFA02FC194300FA02FE4FEAC3
:100298001C471FFA8CF6B1FBF7F44FEA1E4307FB25
:1002A800141143EA014304FB06F199420AD91CEBF5
:1002B800030304F1FF3080F01281994240F20F816C
:1002C800023C6344591A1FFA8EF3B1FBF7F007FB9F
:1002D800101143EA014300FB06F69E420AD91CEBC3
:1002E800030300F1FF3180F0FC809E4240F2F98068
:1002F800634402389B1B40EA044000211DB1D340EF
:100308000022C5E90032BDE8F0878B4205D90DB15E
:10031800C5E9000100210846F5E7B3FA83F1002991
:1003280046D1A34202D39042C0F0F080861A64EB13
:1003380003030120002DE6D0C5E90063E3E7002AA6
:1003480040F09080A1EB0C044FEA1C481FFA8CF790
:100358000121B4FBF8F64FEA1E4308FB164443EAB2
:10036800044307FB06F0984208D91CEB030306F187
:10037800FF3402D2984200F2CD8026461C1A1FFA9A
:100388008EF3B4FBF8F008FB104443EA044300FB87
:1003980007F79F4208D91CEB030300F1FF3402D290
:1003A8009F4200F2B0802046DB1B40EA0640A5E7EA
:1003B800C1F120068B4022FA06F71F4320FA06FCFB
:1003C80004FA01F343EA0C03F44000FA01F8380C8C
:1003D8004FEA1349B4FBF0FE1FFA87FC00FB1E44EA
:1003E80049EA04440EFB0CF9A14502FA01F20AD9C4
:1003F8003C190EF1FF3A80F08480A14540F28180DB
:10040800AEF1020E3C44A4EB09041FFA83F9B4FBD5
:10041800F0F300FB134449EA044403FB0CFCA44535
:1004280007D93C1903F1FF3067D2A44565D9023BCF
:100438003C4443EA0E40A0FB0293A4EB0C049C420C
:10044800CE469C4651D34ED055B1B8EB0E0364EB63
:100458000C0404FA06F6CB401E43CC40C5E9006400
:10046800002150E7C2F1200320FA03F10CFA02FC44
:1004780024FA03F394400C434FEA1C4800FA02FEA6
:100488001FFA8CF7B3FBF8F008FB1031230C43EA92
:10049800014300FB07F1994208D91CEB030300F163
:1004A800FF362CD299422AD9023863445B1AA4B287
:1004B800B3FBF8F108FB113344EA034401FB07F3EB
:1004C800A34208D91CEB040401F1FF3613D2A3425E
:1004D80011D902396444E41A41EA004139E7044673
:1004E800F0E6084606E7C845AED2B9EB020E63EB64
:1004F800070C0138A8E73146EDE7034699E730468F
:10050800D4E7D6467FE7634402384DE706462346DC
:1005180008460FE7023E634430E700BF704700BF5C
:1005280080B500AF01F0B9F800F038F800F03CFBF6
:1005380000F0A4F800F0D6F800F008F900F03AF955
:1005480000F086F900F0C2F900F0FAF900F032FA8A
:1005580000F06AFA00F098FA00F0C6FA00F0F4FA2F
:1005680001224FF481410C4801F0F4FF00224FF4BE
:100578008141094801F0EEFF4FF47A7001F0EAF882
:1005880001224FF48141044801F0E4FF4FF47A70EE
:1005980001F0E0F800BFE9E70004024080B594B03C
:1005A80000AF07F11C0334220021184603F071FE46
:1005B80007F1080300221A605A609A60DA601A612B
:1005C8002C4B1B6C2B4A43F080531364294B1B6C38
:1005D80003F080537B607B68274B1B6823F4404300
:1005E800254A43F480431360234B1B6803F44043BC
:1005F8003B603B680223FB610123BB621023FB6263
:1006080002237B630023BB630823FB6360233B64F3
:1006180002237B640223BB640223FB6407F11C03EF
:10062800184602F001F80346002B01D000F04EFBFB
:1006380001F0AAFF0346002B01D000F047FB0F236F
:10064800BB600223FB6000233B614FF480537B6156
:100658000023BB6107F108030321184602F092FA50
:100668000346002B01D000F031FB00BF5037BD46D8
:1006780080BD00BF003802400070004080B500AF68
:10068800164B174A1A60154B10225A60134B00225A
:100698009A60124B0022DA60104B00221A610F4B4D
:1006A80000225A610D4B00221A760C4B00225A7612
:1006B8000A4B00229A76094B0022DA76074B002271
:1006C8001A77064B00225A77044801F067F8034668
:1006D800002B01D000F0FAFA00BF80BDA001002075
:1006E8000064004080B500AF164B174A1A60154BDE
:1006F80010225A60134B00229A60124B0022DA60D3
:10070800104B00221A610F4B00225A610D4B002238
:100718001A760C4B00225A760A4B00229A76094B1D
:100728000022DA76074B00221A77064B00225A7706
:10073800044801F033F80346002B01D000F0C6FA54
:1007480000BF80BDC80100200068004080B500AF30
:10075800164B174A1A60154B10225A60134B002289
:100768009A60124B0022DA60104B00221A610F4B7C
:1007780000225A610D4B00221A760C4B00225A7641
:100788000A4B00229A76094B0022DA76074B0022A0
:100798001A77064B00225A77044800F0FFFF0346F9
:1007A800002B01D000F092FA00BF80BDF0010020BC
:1007B8000034004080B500AF1F4B204A1A60204B20
:1007C80000221A701E4B80225A701D4BE1229A702B
:1007D8001B4B0022DA701A4B00221A71184B0022A8
:1007E8005A71154B164A5A60134B4FF400029A601F
:1007F800114B144ADA60104B134A1A610E4B40F23F
:10080800F4525A610C4801F0ABF90346002B01D0B1
:1008180000F05CFA382200210C4803F03AFD0B4B3B
:1008280021221A60094B4FF440025A61074B0022FB
:100838001A6100BF80BD00BF18020020008002407E
:1008480078060020AC0000200C0000206801002081
:1008580080B500AF1B4B1C4A1A601A4B4FF48272CA
:100868005A60184B00229A60164B4FF44072DA60B7
:10087800144B00221A61134B00225A61114B4FF49A
:1008880000729A610F4B0022DA610E4B00221A6245
:100898000C4B00225A620B4B00229A62094B07222A
:1008A800DA62084B00221A63064B08225A6305488D
:1008B80002F076FF0346002B01D000F007FA00BFD4
:1008C80080BD00BFC80200200030014080B500AFE5
:1008D800194B1A4A1A60184B00225A60164B00220C
:1008E8009A60154B4FF44072DA60134B00221A617C
:1008F800114B00225A61104B4FF400729A610E4B53
:1009080000221A620C4B00225A620B4B00229A6298
:10091800094B0722DA62084B00221A63064B0022B1
:100928005A63054802F03CFF0346002B01D000F053
:10093800CDF900BF80BD00BF2C030020003C004063
:1009480080B500AF194B1A4A1A60184B00225A603A
:10095800164B00229A60154B4FF44072DA60134B25
:1009680000221A61114B00225A61104B4FF4007299
:100978009A610E4B00221A620C4B00225A620B4BF2
:1009880000229A62094B0722DA62084B00221A6396
:10099800064B00225A63054802F002FF0346002B6B
:1009A80001D000F093F900BF80BD00BF9003002084
:1009B8000034014080B500AF194B1A4A1A60184B31
:1009C80000225A60164B00229A60154B4FF4407271
:1009D800DA60134B00221A61114B00225A61104B46
:1009E8004FF400729A610E4B00221A620C4B0022DF
:1009F8005A620B4B00229A62094B0722DA62084BB3
:100A080000221A63064B00225A63054802F0C8FE0A
:100A18000346002B01D000F059F900BF80BD00BF8C
:100A2800F40300200050014080B500AF144B154A74
:100A38001A60134B4FF4E1325A60114B00229A604E
:100A48000F4B0022DA600E4B00221A610C4B0C226D
:100A58005A610B4B00229A61094B0022DA61084B5C
:100A680000221A62064B00225A62054802F043FF30
:100A78000346002B01D000F029F900BF80BD00BF5C
:100A8800580400200010014080B500AF144B154AEF
:100A98001A60134B4FF4E1325A60114B00229A60EE
:100AA8000F4B0022DA600E4B00221A610C4B0C220D
:100AB8005A610B4B00229A61094B0022DA61084BFC
:100AC80000221A62064B00225A62054802F013FF00
:100AD8000346002B01D000F0F9F800BF80BD00BF2D
:100AE800E00400200044004080B500AF144B154AD4
:100AF8001A60134B4FF4E1325A60114B00229A608E
:100B08000F4B0022DA600E4B00221A610C4B0C22AC
:100B18005A610B4B00229A61094B0022DA61084B9B
:100B280000221A62064B00225A62054802F0E3FED0
:100B38000346002B01D000F0C9F800BF80BD00BFFC
:100B4800680500200048004080B500AF144B154AE6
:100B58001A60134B4FF4E1325A60114B00229A602D
:100B68000F4B0022DA600E4B00221A610C4B0C224C
:100B78005A610B4B00229A61094B0022DA61084B3B
:100B880000221A62064B00225A62054802F0B3FEA0
:100B98000346002B01D000F099F800BF80BD00BFCC
:100BA800F00500200014014080B58CB000AF07F1BB
:100BB8001C0300221A605A609A60DA601A61404B7E
:100BC8001B6B3F4A43F0100313633D4B1B6B03F051
:100BD8001003BB61BB693A4B1B6B394A43F02003D6
:100BE8001363374B1B6B03F020037B617B69344B2A
:100BF8001B6B334A43F004031363314B1B6B03F045
:100C080004033B613B692E4B1B6B2D4A43F00103E8
:100C180013632B4B1B6B03F00103FB60FB68284B32
:100C28001B6B274A43F002031363254B1B6B03F02E
:100C38000203BB60BB68224B1B6B214A43F00803CD
:100C480013631F4B1B6B03F008037B607B681C4B13
:100C58001B6B1B4A43F040031363194B1B6B03F0D8
:100C680040033B603B6800222021164801F072FCDB
:100C780000224FF48141144801F06CFC2023FB61F1
:100C880001233B6200237B620023BB6207F11C0344
:100C980019460C4801F0B2FA4FF48143FB61012375
:100CA8003B6200237B620023BB6207F11C031946E9
:100CB800054801F0A3FA00BF3037BD4680BD00BF2C
:100CC80000380240000002400004024080B400AF37
:100CD80072B600BF00BFFDE780B483B000AF0F4B12
:100CE8001B6C0E4A43F0805313640C4B1B6C03F0CF
:100CF80080537B607B68094B5B6C084A43F48043F4
:100D08005364064B5B6C03F480433B603B6800BF55
:100D18000C37BD465DF8047B704700BF00380240C1
:100D280080B58EB000AF786007F1240300221A6006
:100D38005A609A60DA601A617B681B68554A934268
:100D480032D1554B1B680133534A1360524B1B6811
:100D5800012B0BD1514B1B6C504A43F000731364A9
:100D68004E4B1B6C03F000733B623B6A4B4B1B6B97
:100D78004A4A43F001031363484B1B6B03F001031A
:100D8800FB61FB694FF4C0537B620223BB62002303
:100D9800FB6203233B6309237B6307F124031946A2
:100DA8003F4801F02BFA71E07B681B683D4A93428B
:100DB8003ED13A4B1B6C394A43F080631364374B7E
:100DC8001B6C03F08063BB61BB69334B1B68013349
:100DD800314A1360304B1B68012B0BD12F4B1B6C16
:100DE8002E4A43F0007313642C4B1B6C03F0007302
:100DF8007B617B69294B1B6B284A43F00203136311
:100E0800264B1B6B03F002033B613B694FF44053D5
:100E18007B620223BB620023FB6203233B6309233B
:100E28007B6307F1240319461F4801F0E7F92DE019
:100E38007B681B681D4A934228D1184B1B6C174AC4
:100E480043F400531364154B1B6C03F40053FB600D
:100E5800FB68124B1B6B114A43F0010313630F4BE2
:100E68001B6B03F00103BB60BB684FF401437B625B
:100E78000223BB620023FB6203233B630B237B63D8
:100E880007F124031946064801F0B8F900BF3837BE
:100E9800BD4680BD00640040800600200038024046
:100EA8000000024000680040000402400034004096
:100EB80080B58EB000AF786007F1240300221A6075
:100EC8005A609A60DA601A617B681B684E4A9342DE
:100ED80040F096804D4B1B6B4C4A43F000731363F4
:100EE8004A4B1B6B03F000733B623B6A474B1B6B1F
:100EF800464A43F080631363444B1B6B03F08063E3
:100F0800FB61FB69414B1B6B404A43F00063136371
:100F18003E4B1B6B03F00063BB61BB693B4B1B6B18
:100F28003A4A43F004031363384B1B6B03F0040382
:100F38007B617B69354B1B6B344A43F001031363B8
:100F4800324B1B6B03F001033B613B692F4B1B6B5F
:100F58002E4A43F0020313632C4B1B6B03F002036E
:100F6800FB60FB68294B1B6B284A43F04003136363
:100F7800264B1B6B03F04003BB60BB6832237B62CC
:100F88000223BB620023FB6203233B630B237B63C7
:100F980007F1240319461E4801F030F986237B62C5
:100FA8000223BB620023FB6203233B630B237B63A7
:100FB80007F124031946174801F020F94FF400639C
:100FC8007B620223BB620023FB6203233B630B2388
:100FD8007B6307F1240319460F4801F00FF94FF41A
:100FE800C0437B620223BB620023FB6203233B6393
:100FF8000B237B6307F124031946084801F0FEF828
:1010080000BF3837BD4680BD00800240003802402E
:10101800000802400000024000040240001802409C
:1010280080B592B000AF786007F1340300221A60EF
:101038005A609A60DA601A617B681B68874A934233
:1010480061D1874B5B6C864A43F480535364844B6D
:101058005B6C03F480533B633B6B814B1B6B804A97
:1010680043F0010313637E4B1B6B03F00103FB6228
:10107800FB6A7B4B1B6B7A4A43F008031363784B7C
:101088001B6B03F00803BB62BB6A754B1B6B744A8E
:1010980043F040031363724B1B6B03F040037B6206
:1010A8007B6A40237B630223BB630023FB63032328
:1010B8003B6405237B6407F134031946694801F052
:1010C8009DF880237B630223BB630023FB63032318
:1010D8003B6405237B6407F134031946624801F039
:1010E8008DF84FF400637B630223BB630023FB632B
:1010F80003233B6405237B6407F1340319465B48EB
:1011080001F07CF8A6E07B681B68594A934245D1F8
:10111800534B1B6C524A43F400431364504B1B6CF3
:1011280003F400433B623B6A4D4B1B6B4C4A43F054
:10113800020313634A4B1B6B03F00203FB61FB6959
:10114800474B1B6B464A43F004031363444B1B6B2A
:1011580003F00403BB61BB6904237B630223BB6305
:101168000023FB6303233B6407237B6407F13403F9
:101178001946404801F042F84FF440637B6302236C
:10118800BB630023FB6303233B6406237B6407F1F3
:1011980034031946384801F031F85BE07B681B6876
:1011A800364A934228D12E4B5B6C2D4A43F40053A8
:1011B80053642B4B5B6C03F400537B617B69284BB6
:1011C8001B6B274A43F010031363254B1B6B03F07B
:1011D80010033B613B6964237B630223BB630023E9
:1011E800FB6303233B6405237B6407F1340319463F
:1011F800234801F003F82DE07B681B68214A9342DD
:1012080028D1174B5B6C164A43F480135364144B74
:101218005B6C03F48013FB60FB68114B1B6B104A7B
:1012280043F0200313630E4B1B6B03F02003BB60DA
:10123800BB684FF460737B630223BB630023FB63CB
:1012480003233B6405237B6407F1340319460E48E6
:1012580000F0D4FF00BF4837BD4680BD00300140D4
:101268000038024000000240000C02400018024012
:10127800003C0040000402400008024000340140E5
:1012880000100240005001400014024080B5B6B082
:1012980000AF786007F1C40300221A605A609A60B0
:1012A800DA601A6107F1340390220021184602F02F
:1012B800F0FF7B681B68B84A93425ED140237B638A
:1012C8000023BB6707F13403184601F041FE0346CB
:1012D800002B01D0FFF7FAFCB04B5B6CAF4A43F030
:1012E80010035364AD4B5B6C03F010033B633B6B23
:1012F800AA4B1B6BA94A43F002031363A74B1B6B52
:1013080003F00203FB62FB6AA44B1B6BA34A43F086
:1013180001031363A14B1B6B03F00103BB62BB6AA0
:101328004FF40043C7F8C4300223C7F8C83000237D
:10133800C7F8CC300323C7F8D0300423C7F8D4301B
:1013480007F1C4031946964800F058FF4FF400739C
:10135800C7F8C4300223C7F8C8300023C7F8CC3018
:101368000323C7F8D0300723C7F8D43007F1C403E4
:1013780019468C4800F042FF09E17B681B688A4ADD
:1013880093425CD180237B630023FB6707F134031E
:10139800184601F0DDFD0346002B01D0FFF796FC4F
:1013A8007E4B1B6C7D4A43F4003313647B4B1B6CF0
:1013B80003F400337B627B6A784B1B6B774A43F0FC
:1013C80001031363754B1B6B03F001033B623B6A1C
:1013D800724B1B6B714A43F0080313636F4B1B6B13
:1013E80003F00803FB61FB690823C7F8C430022334
:1013F800C7F8C8300023C7F8CC300323C7F8D0306B
:101408000723C7F8D43007F1C4031946654800F02C
:10141800F5FE2023C7F8C4300223C7F8C8300023DC
:10142800C7F8CC300323C7F8D0300723C7F8D43027
:1014380007F1C40319465D4800F0E0FEA7E07B68A9
:101448001B685B4A934260D14FF480737B6300232F
:10145800C7F8803007F13403184601F079FD0346D8
:10146800002B01D0FFF732FC4C4B1B6C4B4A43F46A
:1014780080231364494B1B6C03F48023BB61BB6955
:10148800464B1B6B454A43F002031363434B1B6BEC
:1014980003F002037B617B69404B1B6B3F4A43F0BF
:1014A800080313633D4B1B6B03F008033B613B6967
:1014B8004FF48063C7F8C4300223C7F8C83000234C
:1014C800C7F8CC300323C7F8D0300723C7F8D43087
:1014D80007F1C4031946324800F090FE4FF4007338
:1014E800C7F8C4300223C7F8C8300023C7F8CC3087
:1014F8000323C7F8D0300723C7F8D43007F1C40353
:1015080019462A4800F07AFE41E07B681B68294AA0
:1015180093423CD14FF400637B630023C7F88C30BF
:1015280007F13403184601F013FD0346002B01D0E0
:10153800FFF7CCFB194B5B6C184A43F0200353644C
:10154800164B5B6C03F02003FB60FB68134B1B6BB3
:10155800124A43F004031363104B1B6B03F004039C
:10156800BB60BB68C023C7F8C4300223C7F8C830C3
:101578000023C7F8CC300323C7F8D0300823C7F8B6
:10158800D43007F1C40319460B4800F037FE00BFFA
:10159800D837BD4680BD00BF00100140003802406A
:1015A800000402400000024000440040000C0240D9
:1015B80000480040001401400008024080B400AF19
:1015C80000BFFDE780B400AF00BFFDE780B400AF07
:1015D80000BFFDE780B400AF00BFFDE780B400AFF7
:1015E80000BFFDE780B400AF00BFBD465DF8047BD7
:1015F800704780B400AF00BFBD465DF8047B7047FC
:1016080080B400AF00BFBD465DF8047B704780B56D
:1016180000AF00F07FF800BF80BD000080B400AFCD
:10162800074BD3F88830064A43F47003C2F8883071
:10163800034B044A9A6000BFBD465DF8047B7047BF
:1016480000ED00E000000408DFF834D0FFF7E6FF03
:101658000C480D490D4A002302E0D458C450043305
:10166800C4188C42F9D30A4A0A4C002301E01360DB
:101678000432A242FBD302F015FEFEF751FF704779
:1016880000000820000000200C000020344304085B
:101698004C01002088060020FEE780B500AF03203B
:1016A80000F02AFA0F2000F005F8FFF715FB0023D9
:1016B800184680BD80B582B000AF7860124B1A68BA
:1016C800124B1B7819464FF47A73B3FBF1F3B2FB54
:1016D800F3F3184600F037FA0346002B01D0012334
:1016E8000EE07B680F2B0AD8002279684FF0FF3094
:1016F80000F00DFA064A7B681360002300E001231E
:1017080018460837BD4680BD0000002008000020AC
:101718000400002080B400AF064B1B781A46064B25
:101728001B681344044A136000BFBD465DF8047B80
:10173800704700BF080000208406002080B400AF76
:10174800034B1B681846BD465DF8047B704700BF15
:101758008406002080B584B000AF7860FFF7EEFF04
:10176800B8607B68FB60FB68B3F1FF3F05D00A4BAC
:101778001B781A46FB681344FB6000BFFFF7DEFFC7
:101788000246BB68D31AFA689A42F7D800BF00BF6E
:101798001037BD4680BD00BF0800002080B584B06A
:1017A80000AF78607B68002B01D10123EDE07B68F6
:1017B80093F82030DBB2002B02D17868FFF7B0FA3B
:1017C8007B681B681A687B681B6842F001021A6014
:1017D800FFF7B4FFF86012E0FFF7B0FF0246FB68BE
:1017E800D31A0A2B0BD97B685B6A43F400327B68F7
:1017F8005A627B68052283F820200123C5E07B68B4
:101808001B685B6803F00103002BE5D07B681B684D
:101818001A687B681B6822F002021A60FFF78EFFC5
:10182800F86012E0FFF78AFF0246FB68D31A0A2B1A
:101838000BD97B685B6A43F400327B685A627B6829
:10184800052283F8202001239FE07B681B685B68E2
:1018580003F00203002BE5D17B681B7E012B08D126
:101868007B681B681A687B681B6842F080021A60F4
:1018780007E07B681B681A687B681B6822F0800297
:101888001A607B685B7E012B08D17B681B681A682D
:101898007B681B6842F040021A6007E07B681B689F
:1018A8001A687B681B6822F040021A607B689B7E7E
:1018B800012B08D17B681B681A687B681B6842F09B
:1018C80020021A6007E07B681B681A687B681B683F
:1018D80022F020021A607B68DB7E012B08D17B682E
:1018E8001B681A687B681B6822F010021A6007E000
:1018F8007B681B681A687B681B6842F010021A60D4
:101908007B681B7F012B08D17B681B681A687B6882
:101918001B6842F008021A6007E07B681B681A68B7
:101928007B681B6822F008021A607B685B7F012BCA
:1019380008D17B681B681A687B681B6842F0040240
:101948001A6007E07B681B681A687B681B6822F0CE
:1019580004021A607B689A687B68DB681A437B68B4
:101968001B691A437B685B6942EA03017B685B6811
:101978005A1E7B681B680A43DA617B6800225A6238
:101988007B68012283F82020002318461037BD46C3
:1019980080BD000080B485B000AF78607B6803F03C
:1019A8000703FB600B4BDB68BB60BA684FF6FF03AD
:1019B8001340BB60FB681A02BB681A43064B13430B
:1019C800BB60044ABB68D36000BF1437BD465DF8EE
:1019D800047B704700ED00E00000FA0580B400AF1A
:1019E800044BDB681B0A03F007031846BD465DF885
:1019F800047B704700ED00E080B483B000AF03467D
:101A08003960FB7197F90730002B0ADB3B68DAB2C3
:101A18000C4997F907301201D2B20B4483F800231E
:101A28000AE03B68DAB20849FB7903F00F03043B8C
:101A38001201D2B20B441A7600BF0C37BD465DF8CE
:101A4800047B704700E100E000ED00E080B489B05D
:101A580000AFF860B9607A60FB6803F00703FB61C8
:101A6800FB69C3F10703042B28BF0423BB61FB698F
:101A78000433062B02D9FB69033B00E000237B619A
:101A88004FF0FF32BB6902FA03F3DA43BB681A402E
:101A98007B699A404FF0FF317B6901FA03F3D94320
:101AA8007B680B40134318462437BD465DF8047B1A
:101AB8007047000080B582B000AF78607B68013B5A
:101AC800B3F1807F01D301230FE00A4A7B68013B11
:101AD80053600F214FF0FF30FFF78EFF054B0022B8
:101AE8009A60044B07221A60002318460837BD463F
:101AF80080BD00BF10E000E080B582B000AF786024
:101B08007868FFF747FF00BF0837BD4680BD80B53E
:101B180086B000AF0346B9607A60FB7300237B612F
:101B2800FFF75CFF78617A68B9687869FFF78EFF1C
:101B3800024697F90F3011461846FFF75DFF00BFC0
:101B48001837BD4680BD80B582B000AF7860786830
:101B5800FFF7B0FF034618460837BD4680BD0000B2
:101B680080B584B000AF78607B68002B01D1012379
:101B780086E07B68D3F88430002B06D17B6823226B
:101B8800C3F884207868FFF793F93F4B5B6C3E4AB3
:101B980043F4804353643C4B5B6C03F48043BB6069
:101BA800BB683A4B5B68394A23F400035360374BF0
:101BB8005A687B689B68354913434B60334B5B68B5
:101BC8007B681B6803F580531B687A68126843F0CA
:101BD800010302F580521360FFF7B0FDF86011E0D1
:101BE800FFF7ACFD0246FB68D31AB3F5FA7F09D9B3
:101BF8007B680422C3F888207B68E022C3F884202D
:101C080001233DE07B681B6803F580531B6803F0E4
:101C18000103002BE4D1786800F07AF9786800F0C5
:101C280025FA786800F07BFA7B685B681A46002121
:101C3800786800F0E3F97B681B68DA6B7B681B68DF
:101C480042F40272DA637B681B68D3F80C117B6874
:101C58001A680F4B0B43C2F80C317B681B68D3F82A
:101C680010217B681B6842F40312C3F810217B68BB
:101C78000022C3F888207B681022C3F88420002340
:101C880018461037BD4680BD003802400038014074
:101C98006000020080B584B000AF786039607B686E
:101CA8001B681B68FB60FA68534B1340FB603B687A
:101CB8009B7B5B063A68127C002A02D14FF4000233
:101CC80000E0002213433A68527C002A02D14FF404
:101CD800800200E000221A433B689B681A433B6875
:101CE800DB7F1B041A433B685B6913433A68927FA6
:101CF800002A02D14FF4005200E000221A433B6848
:101D08001B7F1B031A433B689B691A433B681B797B
:101D18009B0213433A6892F82020002A02D14FF41C
:101D2800007200E000221A433B68DB7BDB011A43A8
:101D38003B685B6A1A433B6893F828301B011343DE
:101D4800FA681343FB607B681B68FA681A607B6853
:101D58001B681B68FB600120FFF7FCFC7B681B68A5
:101D6800FA681A607B681B689B69FB60FA684FF623
:101D780041731340FB603B689B6C1B043A6892F804
:101D88004C20002A01D1802200E000221A433B683F
:101D98001B6D13433A6892F85520012A01D1082295
:101DA80000E0002213433A6892F85620012A01D134
:101DB800042200E0002213433A6892F85420012AD2
:101DC80001D1022200E000221343FA681343FB60AA
:101DD8007B681B68FA689A617B681B689B69FB6073
:101DE8000120FFF7B7FC7B681B68FA689A6100BF9F
:101DF8001037BD4680BD00BF0F8120FD80B584B07F
:101E080000AF786039607B681B6803F580539B6975
:101E1800FB60FA683D4B1340FB603B681B7B002B63
:101E280002D14FF0806200E000223B685B7B5B06DA
:101E380013433A68527F002A02D14FF4801200E01F
:101E480000221A433B689B7B5B051A433B685B692E
:101E58001A433B681B7FDB011A433B689B7F9B014E
:101E68001A433B681B6A1A433B6893F824309B006B
:101E78001343FA681343FB607B681B6803F58053C0
:101E88001A46FB6893617B681B6803F580539B695E
:101E9800FB600120FFF75EFC7B681B6803F580533D
:101EA8001A46FB6893613B681B795A063B689B6836
:101EB8001A433B689B691A433B681B691A433B6892
:101EC80093F82530DB011A433B689B6A9B001A4351
:101ED8003B681B6813437A68126843F4000302F5F1
:101EE800805213607B681B6803F580531B68FB6096
:101EF8000120FFF72FFC7B681B6803F580531A4607
:101F0800FB68136000BF1037BD4680BD233FDEF875
:101F180080B5A6B000AF7860012387F8443001236C
:101F280087F845300023FB63002387F853300123EB
:101F380087F85230002387F85030012387F8423061
:101F4800012387F83830002387F85430002387F8B6
:101F580043300023BB65002387F85C300023FB6710
:101F6800002387F880300023C7F88430002387F8DF
:101F78008A30002387F888304FF48043BB644FF4DD
:101F88000063FB64002387F8893007F1340319469E
:101F98007868FFF77FFE01233B7501237B750123DA
:101FA80087F825300123BB750023FB61002387F8E0
:101FB8002430002387F826300023BB62012387F8EA
:101FC8002C3001233B734FF480333B614FF4800383
:101FD8003B624FF40053BB61012387F82D30002387
:101FE8003B630023BB6007F1080319467868FFF7D5
:101FF80005FF00BF9837BD4680BD000080B487B09C
:1020080000AFF860B9607A607B6805331B781B0203
:102018007A680432127813437B61BA68114B13440F
:102028001A467B6913607B6803331B781A067B6842
:1020380002331B781B041A437B6801331B781B028D
:1020480013437A68127813437B61BA68064B1344CA
:102058001A467B69136000BF1C37BD465DF8047BD8
:10206800704700BF408002404480024080B485B081
:1020780000AF78600023FB603EE07B68D968FA68AF
:1020880013469B001344DB000B44BB60BB68002273
:102098001A60BB6800225A60BB6800229A60BB685D
:1020A8000022DA60B9687B68FA68063243F82210C1
:1020B800BB681B6843F48012BB681A60FB68022B7C
:1020C8000CD87B68D968FB685A1C13469B001344DC
:1020D800DB000B441A46BB68DA6004E07B68DB6807
:1020E8001A46BB68DA60BB681B6843F44002BB68E9
:1020F8001A60FB680133FB60FB68032BBDD97B6862
:1021080000229A627B68DA687B681B6803F5805353
:102118001A6100BF1437BD465DF8047B704780B470
:1021280085B000AF78600023FB6048E07B681969E0
:10213800FA6813469B001344DB000B44BB60BB6882
:1021480000221A60BB6800225A60BB6800229A60AD
:10215800BB680022DA60BB6800221A62BB680022F2
:102168005A62BB684FF000421A607B685B6943F4AF
:102178008042BB685A60BB685B6823F00042BB685A
:102188005A60B9687B68FA68123243F82210FB6813
:10219800022B0CD87B681969FB685A1C13469B00F4
:1021A8001344DB000B441A46BB68DA6004E07B6822
:1021B8001B691A46BB68DA60FB680133FB60FB6881
:1021C800032BB3D97B680022DA657B6800221A6684
:1021D8007B6800229A667B680022DA667B680022A8
:1021E8009A657B681A697B681B6803F58053DA6017
:1021F80000BF1437BD465DF8047B704780B489B0D2
:1022080000AF786039600023FB6100237B61002305
:102218003B610023BB610023FB6175E10122FB697F
:1022280002FA03F37B613B681B687A6913403B61E0
:102238003A697B699A4240F064813B685B6803F0C5
:102248000303012B05D03B685B6803F00303022BF3
:1022580030D17B689B68BB61FB695B00032202FA93
:1022680003F3DB43BA691340BB613B68DA68FB6977
:102278005B0002FA03F3BA691343BB617B68BA696E
:102288009A607B685B68BB610122FB6902FA03F311
:10229800DB43BA691340BB613B685B681B0903F009
:1022A8000102FB6902FA03F3BA691343BB617B6855
:1022B800BA695A603B685B6803F00303032B17D0C5
:1022C8007B68DB68BB61FB695B00032202FA03F3EE
:1022D800DB43BA691340BB613B689A68FB695B00E2
:1022E80002FA03F3BA691343BB617B68BA69DA601F
:1022F8003B685B6803F00303022B23D1FB69DA0810
:102308007B68083253F82230BB61FB6903F007038E
:102318009B000F2202FA03F3DB43BA691340BB6147
:102328003B681A69FB6903F007039B0002FA03F391
:10233800BA691343BB61FB69DA087B680832B9697B
:1023480043F822107B681B68BB61FB695B000322B2
:1023580002FA03F3DB43BA691340BB613B685B686D
:1023680003F00302FB695B0002FA03F3BA69134343
:10237800BB617B68BA691A603B685B6803F44033E9
:10238800002B00F0BE80664B5B6C654A43F48043CB
:102398005364634B5B6C03F48043FB60FB68614AE6
:1023A800FB699B08023352F82330BB61FB6903F0D9
:1023B80003039B000F2202FA03F3DB43BA691340BD
:1023C800BB617B68584A934237D07B68574A93422F
:1023D80031D07B68564A93422BD07B68554A93424A
:1023E80025D07B68544A93421FD07B68534A934256
:1023F80019D07B68524A934213D07B68514A934262
:102408000DD07B68504A934207D07B684F4A93426D
:1024180001D1092312E00A2310E008230EE0072364
:102428000CE006230AE0052308E0042306E0032362
:1024380004E0022302E0012300E00023FA6902F02D
:10244800030292009340BA691343BB613549FB69A3
:102458009B080233BA6941F823203D4B9B68BB6156
:102468003B69DB43BA691340BB613B685B6803F4B3
:102478008013002B03D0BA693B691343BB61344A0C
:10248800BB699360324BDB68BB613B69DB43BA696C
:102498001340BB613B685B6803F40013002B03D057
:1024A800BA693B691343BB61294ABB69D360284BAE
:1024B8005B68BB613B69DB43BA691340BB613B683E
:1024C8005B6803F40033002B03D0BA693B691343FC
:1024D800BB611F4ABB6953601D4B1B68BB613B69ED
:1024E800DB43BA691340BB613B685B6803F4803324
:1024F800002B03D0BA693B691343BB61144ABB691B
:102508001360FB690133FB61FB690F2B7FF686AE15
:1025180000BF00BF2437BD465DF8047B704700BF8D
:102528000038024000380140000002400004024028
:1025380000080240000C0240001002400014024053
:1025480000180240001C0240002002400024024003
:10255800003C014080B483B000AF78600B467B80BC
:1025680013467B707B78002B03D07A887B689A614E
:1025780003E07B881A047B689A6100BF0C37BD466C
:102588005DF8047B7047000080B582B000AF00237F
:102598007B60234B1B6C224A43F080531364204B0F
:1025A8001B6C03F080533B603B681E4B1B681D4A45
:1025B80043F480331360FFF7C1F8786009E0FFF750
:1025C800BDF802467B68D31AB3F57A7F01D9032395
:1025D80022E0144B5B6803F48033B3F5803FEED1FF
:1025E800104B1B680F4A43F400331360FFF7A6F83B
:1025F800786009E0FFF7A2F802467B68D31AB3F5C2
:102608007A7F01D9032307E0064B5B6803F40033A4
:10261800B3F5003FEED1002318460837BD4680BD0C
:10262800003802400070004080B586B000AF786086
:102638000023FB757B68002B01D101239BE27B689B
:102648001B6803F00103002B00F08780964B9B6802
:1026580003F00C03042B0CD0934B9B6803F00C0382
:10266800082B12D1904B5B6803F48003B3F5800FFD
:102678000BD18D4B1B6803F40033002B6CD07B68A7
:102688005B68002B68D1012375E27B685B68B3F552
:10269800803F06D1844B1B68834A43F48033136020
:1026A8002EE07B685B68002B0CD17F4B1B687E4A51
:1026B80023F4803313607C4B1B687B4A23F480230C
:1026C80013601DE07B685B68B3F5A02F0CD1764BD7
:1026D8001B68754A43F480231360734B1B68724A66
:1026E80043F4803313600BE06F4B1B686E4A23F48E
:1026F800803313606C4B1B686B4A23F48023136090
:102708007B685B68002B13D0FFF718F8386108E086
:10271800FFF714F802463B69D31A642B01D9032347
:1027280029E2614B1B6803F40033002BF0D014E05E
:10273800FFF704F8386108E0FFF700F802463B6944
:10274800D31A642B01D9032315E2574B1B6803F4F2
:102758000033002BF0D100E000BF7B681B6803F05A
:102768000203002B69D0504B9B6803F00C03002B2D
:102778000BD04D4B9B6803F00C03082B1CD14A4B24
:102788005B6803F48003002B16D1474B1B6803F0EA
:102798000203002B05D07B68DB68012B01D00123E5
:1027A800E9E1414B1B6823F0F8027B681B69DB00F9
:1027B8003D4913430B6040E07B68DB68002B23D066
:1027C800394B1B68384A43F001031360FEF7B6FF24
:1027D800386108E0FEF7B2FF02463B69D31A022BC4
:1027E80001D90323C7E1304B1B6803F00203002B18
:1027F800F0D02D4B1B6823F0F8027B681B69DB00C7
:10280800294913430B6018E0274B1B68264A23F01D
:1028180001031360FEF792FF386108E0FEF78EFFB0
:1028280002463B69D31A022B01D90323A3E11E4BAD
:102838001B6803F00203002BF0D17B681B6803F0D0
:102848000803002B38D07B685B69002B19D0164B26
:102858005B6F154A43F001035367FEF76FFF38615A
:1028680008E0FEF76BFF02463B69D31A022B01D939
:10287800032380E10C4B5B6F03F00203002BF0D0C5
:102888001AE0094B5B6F084A23F001035367FEF710
:1028980055FF38610AE0FEF751FF02463B69D31A3B
:1028A800022B03D9032366E100380240924B5B6F89
:1028B80003F00203002BEED17B681B6803F00403CE
:1028C800002B00F0A4808C4B1B6C03F08053002B72
:1028D8000DD1894B1B6C884A43F080531364864B97
:1028E8001B6C03F08053BB60BB680123FB75834BF3
:1028F8001B6803F48073002B18D1804B1B687F4A38
:1029080043F480731360FEF719FF386108E0FEF79F
:1029180015FF02463B69D31A642B01D903232AE128
:10292800764B1B6803F48073002BF0D07B689B68A0
:10293800012B06D1704B1B6F6F4A43F001031367DD
:102948002DE07B689B68002B0CD16B4B1B6F6A4A90
:1029580023F001031367684B1B6F674A23F00403D6
:1029680013671CE07B689B68052B0CD1624B1B6FBF
:10297800614A43F0040313675F4B1B6F5E4A43F0E1
:10298800010313670BE05C4B1B6F5B4A23F00103E9
:102998001367594B1B6F584A23F0040313677B686E
:1029A8009B68002B15D0FEF7C9FE38610AE0FEF7D8
:1029B800C5FE02463B69D31A41F28832934201D9D7
:1029C8000323D8E04C4B1B6F03F00203002BEED01F
:1029D80014E0FEF7B3FE38610AE0FEF7AFFE0246E8
:1029E8003B69D31A41F28832934201D90323C2E0EA
:1029F800414B1B6F03F00203002BEED1FB7D012B33
:102A080005D13D4B1B6C3C4A23F0805313647B6813
:102A18009B69002B00F0AE80374B9B6803F00C03DA
:102A2800082B6DD07B689B69022B4BD1324B1B68FE
:102A3800314A23F080731360FEF780FE386108E0A6
:102A4800FEF77CFE02463B69D31A022B01D9032309
:102A580091E0294B1B6803F00073002BF0D17B68D1
:102A6800DA697B681B6A1A437B685B6A9B011A43B5
:102A78007B689B6A5B08013B1B041A437B68DB6A23
:102A88001B061A437B681B6B1B071B4913434B60D0
:102A9800194B1B68184A43F080731360FEF74EFE0B
:102AA800386108E0FEF74AFE02463B69D31A022B5A
:102AB80001D903235FE0104B1B6803F00073002B60
:102AC800F0D057E00C4B1B680B4A23F0807313605F
:102AD800FEF734FE386108E0FEF730FE02463B6937
:102AE800D31A022B01D9032345E0034B1B6803F0DB
:102AF8000073002BF0D13DE0003802400070004028
:102B08001F4B5B68FB607B689B69012B30D0FB68BF
:102B180003F480027B68DB699A4229D1FB6803F0E1
:102B28003F027B681B6A9A4222D1FA6847F6C07353
:102B380013407A68526A9201934219D1FB6803F4F0
:102B480040327B689B6A5B08013B1B049A420FD1A9
:102B5800FB6803F070627B68DB6A1B069A4207D148
:102B6800FB6803F0E0427B681B6B1B079A4201D0AD
:102B7800012300E0002318461837BD4680BD00BF7A
:102B88000038024080B584B000AF78603960002317
:102B9800FB607B68002B01D10123D0E06A4B1B68E6
:102BA80003F00F033A689A4210D9674B1B6823F069
:102BB8000F0265493B6813430B60634B1B6803F0C6
:102BC8000F033A689A4201D00123B8E07B681B687A
:102BD80003F00203002B20D07B681B6803F004037A
:102BE800002B05D0594B9B68584A43F4E053936037
:102BF8007B681B6803F00803002B05D0534B9B68C8
:102C0800524A43F460439360504B9B6823F0F002B0
:102C18007B689B684D4913438B607B681B6803F096
:102C28000103002B40D07B685B68012B07D1474B21
:102C38001B6803F40033002B15D101237FE07B6868
:102C48005B68022B07D1414B1B6803F00073002B14
:102C580009D1012373E03D4B1B6803F00203002BED
:102C680001D101236BE0394B9B6823F003027B6899
:102C78005B68364913438B60FEF760FDF8600AE035
:102C8800FEF75CFD0246FB68D31A41F28832934294
:102C980001D9032353E02D4B9B6803F00C027B689A
:102CA8005B689B009A42EBD1274B1B6803F00F032C
:102CB8003A689A4210D2244B1B6823F00F0222492B
:102CC8003B6813430B60204B1B6803F00F033A6803
:102CD8009A4201D0012332E07B681B6803F00403A9
:102CE800002B08D0194B9B6823F4E0527B68DB6803
:102CF800164913438B607B681B6803F00803002B9D
:102D080009D0124B9B6823F460427B681B69DB0087
:102D18000E4913438B6000F021F802460B4B9B6869
:102D28001B0903F00F030A49CB5C22FA03F3094A93
:102D38001360094B1B681846FEF7BCFC00231846B5
:102D48001037BD4680BD00BF003C0240003802403D
:102D58000C43040800000020040000202DE9B04FB7
:102D680090B000AF00237B630023FB6300233B6329
:102D78000023BB63594B9B6803F00C03082B0DD051
:102D8800082B00F2A180002B02D0042B03D09BE07B
:102D9800534BBB639BE0534BBB6398E04F4B5B6863
:102DA80003F03F037B634D4B5B6803F48003002B08
:102DB80028D04A4B5B689B0900223B627A623B6AD7
:102DC800C3F308000021474B03FB01F2002300FB7B
:102DD80003F31344434AA0FB0212FA620A46BA629A
:102DE800FA6A1344FB627B6B0022BB61FA61D7E984
:102DF8000623D7E90A01FDF71BFA02460B461346DC
:102E0800FB6353E0354B5B689B0900223B617A61A9
:102E18003B69C3F3080A4FF0000B52465B464FF07C
:102E280000004FF00001590141EAD2615001024609
:102E38000B46B2EB0A0863EB0B094FF000024FF0A8
:102E480000034FEA891343EA98634FEA8812B2EB0A
:102E5800080463EB09054FF000024FF00003EB0094
:102E680043EA5473E20014461D4614EB0A033B6020
:102E780045EB0B037B604FF000024FF00003D7E9EE
:102E8800004529468B02214643EA915321468A028E
:102E9800104619467B6B0022BB60FA60D7E9022313
:102EA800FDF7C6F902460B461346FB630B4B5B68FE
:102EB8001B0C03F0030301335B003B63FA6B3B6BB2
:102EC800B2FBF3F3BB6302E0054BBB6300BFBB6B14
:102ED80018464037BD46BDE8B08F00BF00380240F5
:102EE8000024F40040787D0180B400AF034B1B68D8
:102EF8001846BD465DF8047B704700BF00000020FF
:102F080080B500AFFFF7F0FF0246054B9B689B0AB0
:102F180003F007030349CB5C22FA03F3184680BD8C
:102F2800003802401C43040880B500AFFFF7DCFFFF
:102F38000246054B9B685B0B03F007030349CB5C18
:102F480022FA03F3184680BD003802401C430408E7
:102F580080B588B000AF786000237B6100233B61B7
:102F68000023FB600023FB610023BB617B681B68B7
:102F780003F00103002B12D0694B9B68684A23F4C5
:102F880000039360664B9A687B685B6B64491343E4
:102F98008B607B685B6B002B01D10123FB617B6835
:102FA8001B6803F40023002B17D05D4BD3F88C303B
:102FB80023F440127B68DB6B59491343C1F88C300A
:102FC8007B68DB6BB3F5801F01D10123FB617B6854
:102FD800DB6B002B01D10123BB617B681B6803F409
:102FE8008013002B17D04E4BD3F88C3023F44002BB
:102FF8007B681B6C4A491343C1F88C307B681B6C97
:10300800B3F5800F01D10123FB617B681B6C002B9A
:1030180001D10123BB617B681B6803F08073002B1F
:1030280001D00123FB617B681B6803F02003002BA0
:1030380000F08B803A4B1B6C394A43F08053136481
:10304800374B1B6C03F08053BB60BB68354B1B6868
:10305800344A43F480731360FEF770FB786108E02C
:10306800FEF76CFB02467B69D31A642B01D9032354
:103078008FE32C4B1B6803F48073002BF0D0284B94
:103088001B6F03F440733B613B69002B35D07B68B1
:103098001B6B03F440733A699A422ED0204B1B6F86
:1030A80023F440733B611E4B1B6F1D4A43F480336E
:1030B80013671B4B1B6F1A4A23F480331367184A94
:1030C8003B691367164B1B6F03F00103012B14D1E7
:1030D800FEF734FB78610AE0FEF730FB02467B69B5
:1030E800D31A41F28832934201D9032351E30C4B9E
:1030F8001B6F03F00203002BEED07B681B6B03F4FD
:103108004073B3F5407F11D1054B9B6823F4F81247
:103118007B68196B044B0B40014913438B600BE030
:103128000038024000700040FFFCFF0FAC4B9B686A
:10313800AB4A23F4F8139360A94B1A6F7B681B6B97
:10314800C3F30B03A64913430B677B681B6803F0A3
:103158001003002B10D0A24BD3F88C30A04A23F0D8
:103168008073C2F88C309E4BD3F88C207B689B6BA5
:103178009B491343C1F88C307B681B6803F4804378
:10318800002B0AD0964BD3F8903023F440327B685A
:103198005B6E93491343C1F890307B681B6803F456
:1031A8000043002B0AD08E4BD3F8903023F44022F2
:1031B8007B689B6E8A491343C1F890307B681B6813
:1031C80003F48033002B0AD0854BD3F8903023F4D6
:1031D80040127B68DB6E82491343C1F890307B68EC
:1031E8001B6803F40033002B0AD07D4BD3F89030D2
:1031F80023F440027B681B6F79491343C1F8903070
:103208007B681B6803F04003002B0AD0744BD3F88B
:10321800903023F003027B685B6C71491343C1F85B
:1032280090307B681B6803F08003002B0AD06C4B3E
:10323800D3F8903023F00C027B689B6C68491343E9
:10324800C1F890307B681B6803F48073002B0AD0A8
:10325800634BD3F8903023F030027B68DB6C604915
:103268001343C1F890307B681B6803F40073002B8C
:103278000AD05B4BD3F8903023F0C0027B681B6DFB
:1032880057491343C1F890307B681B6803F4806387
:10329800002B0AD0524BD3F8903023F440727B684D
:1032A8005B6D4F491343C1F890307B681B6803F48A
:1032B8000063002B0AD04A4BD3F8903023F44062C5
:1032C8007B689B6D46491343C1F890307B681B6847
:1032D80003F48053002B0AD0414BD3F8903023F4E9
:1032E80040527B68DB6D3E491343C1F890307B68E0
:1032F8001B6803F40053002B0AD0394BD3F89030E5
:1033080023F440427B681B6E35491343C1F8903063
:103318007B681B6803F48003002B0AD0304BD3F87A
:10332800903023F080627B689B6F2D491343C1F86E
:1033380090307B681B6803F40013002B11D0284BD6
:10334800D3F8903023F000627B68DB6F2449134385
:10335800C1F890307B68DB6FB3F1006F01D10123B6
:10336800BB617B681B6803F00803002B01D00123B5
:10337800BB617B681B6803F48023002B0AD0184BC1
:10338800D3F8903023F040727B685B6F1449134385
:10339800C1F890307B681B6803F40003002B0BD046
:1033A8000F4BD3F8903023F080527B68D3F88030ED
:1033B8000B491343C1F890307B681B6803F08063A6
:1033C800002B0FD0064BD3F8903023F000527B68C7
:1033D800D3F8843002491343C1F8903002E000BFAB
:1033E800003802407B681B6803F00063002B0BD099
:1033F8008A4BD3F88C3023F000727B68D3F888307E
:1034080086491343C1F88C307B681B6803F08053EE
:10341800002B0BD0814BD3F88C3023F080627B6873
:10342800D3F88C307D491343C1F88C30FB69012BEC
:1034380006D07B681B6803F00073002B00F0D68071
:10344800764B1B68754A23F080631360FEF776F9A4
:10345800786108E0FEF772F902467B69D31A642B9B
:1034680001D9032395E16D4B1B6803F00063002B22
:10347800F0D17B681B6803F00103002B21D07B6827
:103488005B6B002B1DD1654BD3F884301B0C03F00C
:1034980003033B61614BD3F884301B0E03F00F0329
:1034A800FB607B685B689A013B691B041A43FB68F5
:1034B8001B061A437B689B681B0758491343C1F8CE
:1034C80084307B681B6803F40023002B04D07B68DE
:1034D800DB6BB3F5801F0AD07B681B6803F480138D
:1034E800002B2ED07B681B6CB3F5800F29D14B4B7A
:1034F800D3F884301B0C03F003033B61474BD3F82C
:1035080084301B0F03F00703FB607B685B689A013C
:103518003B691B041A437B68DB681B061A43FB687C
:103528001B073E491343C1F884303C4BD3F88C3019
:1035380023F01F027B685B6A013B38491343C1F8DB
:103548008C307B681B6803F08073002B1DD0334BD5
:10355800D3F884301B0E03F00F033B612F4BD3F8D5
:1035680084301B0F03F00703FB607B685B689A01DC
:103578007B681B691B041A433B691B061A43FB68DB
:103588001B0726491343C1F884307B681B6803F086
:103598000073002B11D07B685B689A017B681B69FC
:1035A8001B041A437B68DB681B061A437B689B680D
:1035B8001B071A491343C1F88430184B1B68174A74
:1035C80043F080631360FEF7B9F8786108E0FEF70E
:1035D800B5F802467B69D31A642B01D90323D8E0D6
:1035E8000E4B1B6803F00063002BF0D0BB69012B66
:1035F80040F0CE80094B1B68084A23F080531360C3
:10360800FEF79CF878610BE0FEF798F802467B69B4
:10361800D31A642B04D90323BBE000BF003802404F
:103628005E4B1B6803F00053B3F1005FECD07B687E
:103638001B6803F40023002B03D07B68DB6B002B93
:1036480009D07B681B6803F48013002B2ED07B689D
:103658001B6C002B2AD1514BD3F888301B0C03F07C
:1036680003033B614D4BD3F888301B0F03F007036E
:10367800FB607B685B699A013B691B041A437B68A2
:103688009B691B061A43FB681B0744491343C1F88F
:103698008830424BD3F88C3023F4F8527B689B6A0D
:1036A800013B1B023D491343C1F88C307B681B6802
:1036B80003F40013002B22D07B68DB6FB3F1006F9B
:1036C8001DD1364BD3F888301B0E03F00F033B6136
:1036D800324BD3F888301B0F03F00703FB607B687D
:1036E8005B699A017B681B6A1B041A433B691B06CA
:1036F8001A43FB681B0729491343C1F888307B68C4
:103708001B6803F00803002B28D0244BD3F888301B
:103718001B0E03F00F033B61204BD3F888301B0CC2
:1037280003F00303FB607B685B699A01FB681B0479
:103738001A433B691B061A437B68DB691B07174959
:103748001343C1F88830154BD3F88C3023F440323A
:103758007B68DB6A11491343C1F88C300F4B1B6837
:103768000E4A43F080531360FDF7E8FF786108E0E4
:10377800FDF7E4FF02467B69D31A642B01D90323C2
:1037880007E0064B1B6803F00053B3F1005FEFD16D
:10379800002318462037BD4680BD00BF00380240D0
:1037A80080B584B000AF78607B68002B01D101231D
:1037B8009DE07B685B6A002B08D17B685B68B3F58A
:1037C800827F09D07B680022DA6105E07B680022ED
:1037D8001A617B6800225A617B6800229A627B68C2
:1037E80093F85D30DBB2002B06D17B68002283F8AA
:1037F8005C207868FDF714FC7B68022283F85D2062
:103808007B681B681A687B681B6822F040021A6094
:103818007B68DB68B3F5E06F02D90023FB6002E048
:103828004FF48053FB607B68DB68B3F5706F07D09B
:103838007B68DB68B3F5E06F02D07B6800229A6290
:103848007B685B6803F482727B689B6803F40443BB
:103858001A437B681B6903F002031A437B685B69A0
:1038680003F001031A437B689B6903F400731A434E
:103878007B68DB6903F038031A437B681B6A03F033
:10388800800342EA03017B689B6A03F400527B6869
:103898001B680A431A607B689B691B0C03F00402CF
:1038A8007B685B6A03F010031A437B685B6B03F069
:1038B80008031A437B68DB6803F4706342EA030178
:1038C800FB6803F480527B681B680A435A607B6874
:1038D8001B68DA697B681B6822F40062DA617B681E
:1038E80000221A667B68012283F85D2000231846AF
:1038F8001037BD4680BD80B582B000AF78607B6868
:10390800002B01D1012340E07B68DB6F002B06D13F
:103918007B68002283F878207868FDF7B7FC7B681D
:103928002422DA677B681B681A687B681B6822F0A8
:1039380001021A607B685B6A002B02D0786800F08D
:103948008DFA786800F026F80346012B01D101238F
:103958001BE07B681B685A687B681B6822F49042EE
:103968005A607B681B689A687B681B6822F02A0289
:103978009A607B681B681A687B681B6842F00102C2
:103988001A60786800F00CFB034618460837BD46F5
:1039980080BD000080B588B000AF78600023BB7799
:1039A8007B689A687B681B691A437B685B691A4362
:1039B8007B68DB6913437B617B681B681A68A64BCD
:1039C80013407A68126879690B4313607B681B6837
:1039D8005B6823F440517B68DA687B681B680A439C
:1039E8005A607B689B697B617B681B6A7A691343B1
:1039F8007B617B681B689B6823F430617B681B686C
:103A08007A690A439A607B681B68944A934220D17A
:103A1800934BD3F8903003F00303032B16D801A27D
:103A280052F823F03D3A0408493A0408433A040896
:103A38004F3A04080123FB7750E10223FB774DE15D
:103A48000423FB774AE10823FB7747E11023FB7740
:103A580044E17B681B68834A934232D1804BD3F898
:103A6800903003F00C030C2B28D801A252F823F055
:103A7800AD3A0408C53A0408C53A0408C53A04082A
:103A8800B93A0408C53A0408C53A0408C53A04080E
:103A9800B33A0408C53A0408C53A0408C53A040804
:103AA800BF3A04080023FB7718E10223FB7715E1EE
:103AB8000423FB7712E10823FB770FE11023FB7740
:103AC8000CE17B681B68684A934220D1644BD3F8A9
:103AD800903003F03003302B13D0302B14D8202B28
:103AE80009D0202B10D8002B02D0102B06D00BE0C9
:103AF8000023FB77F2E00223FB77EFE00423FB7758
:103B0800ECE00823FB77E9E01023FB77E6E07B682D
:103B18001B68564A934220D1514BD3F8903003F09A
:103B2800C003C02B13D0C02B14D8802B09D0802BF6
:103B380010D8002B02D0402B06D00BE00023FB77D7
:103B4800CCE00223FB77C9E00423FB77C6E0082317
:103B5800FB77C3E01023FB77C0E07B681B68444A0F
:103B6800934225D13E4BD3F8903003F44073B3F51C
:103B7800407F17D0B3F5407F17D8B3F5007F0BD03F
:103B8800B3F5007F11D8002B03D0B3F5807F06D0A2
:103B98000BE00023FB77A1E00223FB779EE00423E0
:103BA800FB779BE00823FB7798E01023FB7795E0F1
:103BB8007B681B682F4A934225D1294BD3F8903054
:103BC80003F44063B3F5406F17D0B3F5406F17D8CF
:103BD800B3F5006F0BD0B3F5006F11D8002B03D0ED
:103BE800B3F5806F06D00BE00123FB7776E0022364
:103BF800FB7773E00423FB7770E00823FB776DE025
:103C08001023FB776AE07B681B681B4A934238D114
:103C1800134BD3F8903003F44053B3F5405F17D0FB
:103C2800B3F5405F2AD8B3F5005F0BD0B3F5005F5A
:103C380024D8002B03D0B3F5805F06D01EE0002304
:103C4800FB774BE00223FB7748E00423FB7745E052
:103C58000823FB7742E000BFF369FFEF0010014043
:103C6800003802400044004000480040004C00403A
:103C78000050004000140140007800401023FB77FA
:103C88002CE07B681B68724A934225D1714BD3F8AC
:103C9800903003F44043B3F5404F17D0B3F5404F8D
:103CA80017D8B3F5004F0BD0B3F5004F11D8002B40
:103CB80003D0B3F5804F06D00BE00023FB770DE06F
:103CC8000223FB770AE00423FB7707E00823FB774E
:103CD80004E01023FB7701E01023FB777B68DB69A6
:103CE800B3F5004F5BD1FB7F082B28D801A252F80F
:103CF80023F000BF213D0408293D0408313D040894
:103D0800473D0408373D0408473D0408473D04087B
:103D1800473D04083F3D0408FFF7F2F8B86113E097
:103D2800FFF702F9B8610FE04B4BBB610CE0FFF7FE
:103D380015F8B86108E04FF40043BB6104E00023C4
:103D4800BB610123BB7700BFBB69002B74D0BB6983
:103D58005A007B685B685B081A447B685B68B2FB47
:103D6800F3F33B613B690F2B16D93B69B3F5803FF1
:103D780012D23B699BB223F00F03FB813B695B08BE
:103D88009BB203F007039AB2FB891343FB817B685C
:103D98001B68FA89DA604FE00123BB774CE0FB7FB0
:103DA800082B28D801A252F823F000BFD93D0408F7
:103DB800E13D0408E93D0408FF3D0408EF3D04081F
:103DC800FF3D0408FF3D0408FF3D0408F73D0408D3
:103DD800FFF796F8B86113E0FFF7A6F8B8610FE0AF
:103DE8001D4BBB610CE0FEF7B9FFB86108E04FF46A
:103DF8000043BB6104E00023BB610123BB7700BF24
:103E0800BB69002B18D07B685B685A08BB691A44E9
:103E18007B685B68B2FBF3F33B613B690F2B09D905
:103E28003B69B3F5803F05D23B699AB27B681B6852
:103E3800DA6001E00123BB777B6800229A667B6821
:103E48000022DA66BB7F18462037BD4680BD00BF1A
:103E5800007C0040003802400024F40080B483B0A5
:103E680000AF78607B685B6A03F00803002B0AD018
:103E78007B681B685B6823F400417B685A6B7B682E
:103E88001B680A435A607B685B6A03F00103002BD6
:103E98000AD07B681B685B6823F400317B689A6AE8
:103EA8007B681B680A435A607B685B6A03F00203FD
:103EB800002B0AD07B681B685B6823F480317B6821
:103EC800DA6A7B681B680A435A607B685B6A03F09E
:103ED8000403002B0AD07B681B685B6823F48021ED
:103EE8007B681A6B7B681B680A435A607B685B6A4D
:103EF80003F01003002B0AD07B681B689B6823F42F
:103F080080517B689A6B7B681B680A439A607B6860
:103F18005B6A03F02003002B0AD07B681B689B6850
:103F280023F400517B68DA6B7B681B680A439A604C
:103F38007B685B6A03F04003002B1AD07B681B6820
:103F48005B6823F480117B681A6C7B681B680A43E2
:103F58005A607B681B6CB3F5801F0AD17B681B68AD
:103F68005B6823F4C0017B685A6C7B681B680A4352
:103F78005A607B685B6A03F08003002B0AD07B6879
:103F88001B685B6823F400217B689A6C7B681B685C
:103F98000A435A6000BF0C37BD465DF8047B704782
:103FA80080B598B002AF78607B680022C3F884209F
:103FB800FDF7C4FB78657B681B681B6803F0080382
:103FC800082B2ED16FF07E4300937B6D00224FF4B7
:103FD8000011786800F08CF80346002B21D07B682C
:103FE8001B68BB63BB6B53E8003F7B637B6B23F0B1
:103FF80080033B657B681B681A463B6D7B643A64AB
:10400800396C7A6C41E80023FB63FB6B002BE6D12B
:104018007B682022DA677B68002283F878200323F4
:1040280062E07B681B681B6803F00403042B49D11A
:104038006FF07E4300937B6D00224FF48001786817
:1040480000F056F80346002B3CD07B681B687B6267
:104058007B6A53E8003F3B623B6A23F49073FB643E
:104068007B681B681A46FB6C3B63FA62F96A3A6B19
:1040780041E80023BB62BB6A002BE6D17B681B6862
:1040880008333B613B6953E8003FFB60FB6823F062
:104098000103BB647B681B680833BA6CFA61BB61B7
:1040A800B969FA6941E800237B617B69002BE5D196
:1040B8007B682022C3F880207B68002283F8782060
:1040C800032311E07B682022DA677B682022C3F88B
:1040D80080207B6800221A667B6800225A667B680B
:1040E800002283F87820002318465837BD4680BD43
:1040F80080B584B000AFF860B9603B601346FB71CF
:104108004FE0BB69B3F1FF3F4BD0FDF717FB024609
:104118003B68D31ABA699A4202D3BB69002B01D112
:1041280003234EE0FB681B681B6803F00403002BA5
:1041380037D0BB68802B34D0BB68402B31D0FB68AC
:104148001B68DB6903F00803082B10D1FB681B68A8
:1041580008221A62F86800F038F8FB680822C3F8E9
:104168008420FB68002283F87820012329E0FB687B
:104178001B68DB6903F40063B3F5006F11D1FB68BA
:104188001B684FF400621A62F86800F01EF8FB68BA
:104198002022C3F88420FB68002283F878200323B8
:1041A8000FE0FB681B68DA69BB681340BA689A427B
:1041B8000CBF01230023DBB21A46FB799A42A0D038
:1041C800002318461037BD4680BD80B495B000AFB7
:1041D80078607B681B687B637B6B53E8003F3B63BD
:1041E8003B6B23F49073FB647B681B681A46FB6C7B
:1041F8003B64FA63F96B3A6C41E80023BB63BB6B21
:10420800002BE6D17B681B6808333B623B6A53E8A6
:10421800003FFB61FB6923F00103BB647B681B68FB
:104228000833BA6CFA62BB62B96AFA6A41E80023D9
:104238007B627B6A002BE5D17B681B6E012B18D152
:104248007B681B68FB60FB6853E8003FBB60BB688A
:1042580023F010037B647B681B681A467B6CBB6188
:104268007A617969BA6941E800233B613B69002BAF
:10427800E6D17B682022C3F880207B6800221A667A
:104288007B6800229A6600BF5437BD465DF8047B00
:10429800704702440346934200D1704703F8011B5C
:1042A800F9E7000070B50D4D0D4C641BA4100026F5
:1042B800A64209D10B4D0C4C00F018F8641BA41051
:1042C8000026A64205D170BD55F8043B9847013633
:1042D800EEE755F8043B98470136F2E72C4304080B
:1042E8002C4304082C43040830430408F8B500BFE5
:1042F800F8BC08BC9E467047F8B500BFF8BC08BCBF
:044308009E46704716
:10430C000000000000000000010203040607080979
:08431C0000000000010203048F
:0843240044BFFF7F010000000F
:04432C001D02040862
:04433000F901040883
:0C4334000024F400100000000100000054
:10434000000000000000000000000000000000006D
:10435000000000000000000000000000000000005D
:10436000000000000000000000000000000000004D
:10437000000000000000000000000000000000003D
:10438000000000000000000000000000000000002D
:10439000000000000000000000000000000000001D
:1043A000000000000000000000000000000000000D
:1043B00000000000000000000000000000000000FD
:1043C00000000000000000000000000000000000ED
:1043D00000000000000000000000000000000000DD
:1043E00000000000000000000000000000000000CD
:1043F00000000000000000000000000000000000BD
:1044000000000000000000000000000000000000AC
:10441000000000000000000000000000000000009C
:10442000000000000000000000000000000000008C
:10443000000000000000000000000000000000007C
:10444000000000000000000000000000000000006C
:10445000000000000000000000000000000000005C
:10446000000000000000000000000000000000004C
:10447000000000000000000000000000000000003C
:040000050804165184
:00000001FF
