:020000040804EE
:100000000000082051160408C5150408CD15040881
:10001000D5150408DD150408E515040800000000E6
:10002000000000000000000000000000ED150408C2
:10003000FB15040800000000091604081716040840
:10004000A1160408A1160408A1160408A1160408A4
:10005000A1160408A1160408A1160408A116040894
:10006000A1160408A1160408A1160408A116040884
:10007000A1160408A1160408A1160408A116040874
:10008000A1160408A1160408A1160408A116040864
:10009000A1160408A1160408A1160408A116040854
:1000A000A1160408A1160408A1160408A116040844
:1000B000A1160408A1160408A1160408A116040834
:1000C000A1160408A1160408A1160408A116040824
:1000D000A1160408A1160408A1160408A116040814
:1000E000A1160408A1160408A1160408A116040804
:1000F000A1160408A1160408A1160408A1160408F4
:10010000A1160408A1160408A1160408A1160408E3
:10011000A1160408A1160408A1160408A1160408D3
:10012000A1160408A1160408A1160408A1160408C3
:10013000A1160408A1160408A1160408A1160408B3
:10014000A1160408A1160408A1160408A1160408A3
:10015000A1160408A1160408A1160408A116040893
:10016000A1160408A1160408A1160408A116040883
:10017000A1160408A1160408A11604080000000036
:10018000A1160408A1160408A1160408A116040863
:10019000A1160408A1160408A1160408A116040853
:1001A000A1160408A1160408A1160408A116040843
:1001B000A1160408A1160408A1160408A116040833
:1001C000A1160408A116040800000000A1160408E6
:1001D000A1160408A1160408A1160408A116040813
:1001E000A1160408A1160408A1160408A116040803
:0801F000A1160408A116040881
:1001F80010B5054C237833B9044B13B10448AFF359
:1002080000800123237010BD4C0100200000000075
:10021800F442040808B5034B1BB103490348AFF384
:10022800008008BD0000000050010020F4420408CE
:1002380053B94AB9002908BF00281CBF4FF0FF3145
:100248004FF0FF3000F06AB9ADF1080C6DE904CE4B
:1002580000F006F8DDF804E0DDE9022304B0704799
:100268002DE9F047089D0C46002B4ED194468C454D
:100278008646B2FA82F262D94AB1C2F120039140AD
:1002880020FA03F30CFA02FC194300FA02FE4FEAC3
:100298001C471FFA8CF6B1FBF7F44FEA1E4307FB25
:1002A800141143EA014304FB06F199420AD91CEBF5
:1002B800030304F1FF3080F01281994240F20F816C
:1002C800023C6344591A1FFA8EF3B1FBF7F007FB9F
:1002D800101143EA014300FB06F69E420AD91CEBC3
:1002E800030300F1FF3180F0FC809E4240F2F98068
:1002F800634402389B1B40EA044000211DB1D340EF
:100308000022C5E90032BDE8F0878B4205D90DB15E
:10031800C5E9000100210846F5E7B3FA83F1002991
:1003280046D1A34202D39042C0F0F080861A64EB13
:1003380003030120002DE6D0C5E90063E3E7002AA6
:1003480040F09080A1EB0C044FEA1C481FFA8CF790
:100358000121B4FBF8F64FEA1E4308FB164443EAB2
:10036800044307FB06F0984208D91CEB030306F187
:10037800FF3402D2984200F2CD8026461C1A1FFA9A
:100388008EF3B4FBF8F008FB104443EA044300FB87
:1003980007F79F4208D91CEB030300F1FF3402D290
:1003A8009F4200F2B0802046DB1B40EA0640A5E7EA
:1003B800C1F120068B4022FA06F71F4320FA06FCFB
:1003C80004FA01F343EA0C03F44000FA01F8380C8C
:1003D8004FEA1349B4FBF0FE1FFA87FC00FB1E44EA
:1003E80049EA04440EFB0CF9A14502FA01F20AD9C4
:1003F8003C190EF1FF3A80F08480A14540F28180DB
:10040800AEF1020E3C44A4EB09041FFA83F9B4FBD5
:10041800F0F300FB134449EA044403FB0CFCA44535
:1004280007D93C1903F1FF3067D2A44565D9023BCF
:100438003C4443EA0E40A0FB0293A4EB0C049C420C
:10044800CE469C4651D34ED055B1B8EB0E0364EB63
:100458000C0404FA06F6CB401E43CC40C5E9006400
:10046800002150E7C2F1200320FA03F10CFA02FC44
:1004780024FA03F394400C434FEA1C4800FA02FEA6
:100488001FFA8CF7B3FBF8F008FB1031230C43EA92
:10049800014300FB07F1994208D91CEB030300F163
:1004A800FF362CD299422AD9023863445B1AA4B287
:1004B800B3FBF8F108FB113344EA034401FB07F3EB
:1004C800A34208D91CEB040401F1FF3613D2A3425E
:1004D80011D902396444E41A41EA004139E7044673
:1004E800F0E6084606E7C845AED2B9EB020E63EB64
:1004F800070C0138A8E73146EDE7034699E730468F
:10050800D4E7D6467FE7634402384DE706462346DC
:1005180008460FE7023E634430E700BF704700BF5C
:1005280080B500AF01F0B9F800F038F800F03CFBF6
:1005380000F0A4F800F0D6F800F008F900F03AF955
:1005480000F086F900F0C2F900F0FAF900F032FA8A
:1005580000F06AFA00F098FA00F0C6FA00F0F4FA2F
:1005680001224FF481410C4801F0F4FF00224FF4BE
:100578008141094801F0EEFF4FF47A7001F0EAF882
:1005880001224FF48141044801F0E4FF4FF47A70EE
:1005980001F0E0F800BFE9E70004024080B594B03C
:1005A80000AF07F11C0334220021184603F071FE46
:1005B80007F1080300221A605A609A60DA601A612B
:1005C8002C4B1B6C2B4A43F080531364294B1B6C38
:1005D80003F080537B607B68274B1B6823F4404300
:1005E800254A43F480431360234B1B6803F44043BC
:1005F8003B603B680223FB610123BB621023FB6263
:1006080002237B630023BB630823FB6360233B64F3
:1006180002237B640223BB640223FB6407F11C03EF
:10062800184602F001F80346002B01D000F04EFBFB
:1006380001F0AAFF0346002B01D000F047FB0F236F
:10064800BB600223FB6000233B614FF480537B6156
:100658000023BB6107F108030321184602F092FA50
:100668000346002B01D000F031FB00BF5037BD46D8
:1006780080BD00BF003802400070004080B500AF68
:10068800164B174A1A60154B10225A60134B00225A
:100698009A60124B0022DA60104B00221A610F4B4D
:1006A80000225A610D4B00221A760C4B00225A7612
:1006B8000A4B00229A76094B0022DA76074B002271
:1006C8001A77064B00225A77044801F067F8034668
:1006D800002B01D000F0FAFA00BF80BDA001002075
:1006E8000064004080B500AF164B174A1A60154BDE
:1006F80010225A60134B00229A60124B0022DA60D3
:10070800104B00221A610F4B00225A610D4B002238
:100718001A760C4B00225A760A4B00229A76094B1D
:100728000022DA76074B00221A77064B00225A7706
:10073800044801F033F80346002B01D000F0C6FA54
:1007480000BF80BDC80100200068004080B500AF30
:10075800164B174A1A60154B10225A60134B002289
:100768009A60124B0022DA60104B00221A610F4B7C
:1007780000225A610D4B00221A760C4B00225A7641
:100788000A4B00229A76094B0022DA76074B0022A0
:100798001A77064B00225A77044800F0FFFF0346F9
:1007A800002B01D000F092FA00BF80BDF0010020BC
:1007B8000034004080B500AF1F4B204A1A60204B20
:1007C80000221A701E4B80225A701D4BE1229A702B
:1007D8001B4B0022DA701A4B00221A71184B0022A8
:1007E8005A71154B164A5A60134B4FF400029A601F
:1007F800114B144ADA60104B134A1A610E4B40F23F
:10080800F4525A610C4801F0ABF90346002B01D0B1
:1008180000F05CFA382200210C4803F03AFD0B4B3B
:1008280021221A60094B4FF440025A61074B0022FB
:100838001A6100BF80BD00BF18020020008002407E
:1008480078060020AC0000200C0000206801002081
:1008580080B500AF1B4B1C4A1A601A4B4FF48272CA
:100868005A60184B00229A60164B4FF44072DA60B7
:10087800144B00221A61134B00225A61114B4FF49A
:1008880000729A610F4B0022DA610E4B00221A6245
:100898000C4B00225A620B4B00229A62094B07222A
:1008A800DA62084B00221A63064B08225A6305488D
:1008B80002F076FF0346002B01D000F007FA00BFD4
:1008C80080BD00BFC80200200030014080B500AFE5
:1008D800194B1A4A1A60184B00225A60164B00220C
:1008E8009A60154B4FF44072DA60134B00221A617C
:1008F800114B00225A61104B4FF400729A610E4B53
:1009080000221A620C4B00225A620B4B00229A6298
:10091800094B0722DA62084B00221A63064B0022B1
:100928005A63054802F03CFF0346002B01D000F053
:10093800CDF900BF80BD00BF2C030020003C004063
:1009480080B500AF194B1A4A1A60184B00225A603A
:10095800164B00229A60154B4FF44072DA60134B25
:1009680000221A61114B00225A61104B4FF4007299
:100978009A610E4B00221A620C4B00225A620B4BF2
:1009880000229A62094B0722DA62084B00221A6396
:10099800064B00225A63054802F002FF0346002B6B
:1009A80001D000F093F900BF80BD00BF9003002084
:1009B8000034014080B500AF194B1A4A1A60184B31
:1009C80000225A60164B00229A60154B4FF4407271
:1009D800DA60134B00221A61114B00225A61104B46
:1009E8004FF400729A610E4B00221A620C4B0022DF
:1009F8005A620B4B00229A62094B0722DA62084BB3
:100A080000221A63064B00225A63054802F0C8FE0A
:100A18000346002B01D000F059F900BF80BD00BF8C
:100A2800F40300200050014080B500AF144B154A74
:100A38001A60134B4FF4E1325A60114B00229A604E
:100A48000F4B0022DA600E4B00221A610C4B0C226D
:100A58005A610B4B00229A61094B0022DA61084B5C
:100A680000221A62064B00225A62054802F043FF30
:100A78000346002B01D000F029F900BF80BD00BF5C
:100A8800580400200010014080B500AF144B154AEF
:100A98001A60134B4FF4E1325A60114B00229A60EE
:100AA8000F4B0022DA600E4B00221A610C4B0C220D
:100AB8005A610B4B00229A61094B0022DA61084BFC
:100AC80000221A62064B00225A62054802F013FF00
:100AD8000346002B01D000F0F9F800BF80BD00BF2D
:100AE800E00400200044004080B500AF144B154AD4
:100AF8001A60134B4FF4E1325A60114B00229A608E
:100B08000F4B0022DA600E4B00221A610C4B0C22AC
:100B18005A610B4B00229A61094B0022DA61084B9B
:100B280000221A62064B00225A62054802F0E3FED0
:100B38000346002B01D000F0C9F800BF80BD00BFFC
:100B4800680500200048004080B500AF144B154AE6
:100B58001A60134B4FF4E1325A60114B00229A602D
:100B68000F4B0022DA600E4B00221A610C4B0C224C
:100B78005A610B4B00229A61094B0022DA61084B3B
:100B880000221A62064B00225A62054802F0B3FEA0
:100B98000346002B01D000F099F800BF80BD00BFCC
:100BA800F00500200014014080B58CB000AF07F1BB
:100BB8001C0300221A605A609A60DA601A61404B7E
:100BC8001B6B3F4A43F0100313633D4B1B6B03F051
:100BD8001003BB61BB693A4B1B6B394A43F02003D6
:100BE8001363374B1B6B03F020037B617B69344B2A
:100BF8001B6B334A43F004031363314B1B6B03F045
:100C080004033B613B692E4B1B6B2D4A43F00103E8
:100C180013632B4B1B6B03F00103FB60FB68284B32
:100C28001B6B274A43F002031363254B1B6B03F02E
:100C38000203BB60BB68224B1B6B214A43F00803CD
:100C480013631F4B1B6B03F008037B607B681C4B13
:100C58001B6B1B4A43F040031363194B1B6B03F0D8
:100C680040033B603B6800222021164801F072FCDB
:100C780000224FF48141144801F06CFC2023FB61F1
:100C880001233B6200237B620023BB6207F11C0344
:100C980019460C4801F0B2FA4FF48143FB61012375
:100CA8003B6200237B620023BB6207F11C031946E9
:100CB800054801F0A3FA00BF3037BD4680BD00BF2C
:100CC80000380240000002400004024080B400AF37
:100CD80072B600BF00BFFDE780B483B000AF0F4B12
:100CE8001B6C0E4A43F0805313640C4B1B6C03F0CF
:100CF80080537B607B68094B5B6C084A43F48043F4
:100D08005364064B5B6C03F480433B603B6800BF55
:100D18000C37BD465DF8047B704700BF00380240C1
:100D280080B58EB000AF786007F1240300221A6006
:100D38005A609A60DA601A617B681B68554A934268
:100D480032D1554B1B680133534A1360524B1B6811
:100D5800012B0BD1514B1B6C504A43F000731364A9
:100D68004E4B1B6C03F000733B623B6A4B4B1B6B97
:100D78004A4A43F001031363484B1B6B03F001031A
:100D8800FB61FB694FF4C0537B620223BB62002303
:100D9800FB6203233B6309237B6307F124031946A2
:100DA8003F4801F02BFA71E07B681B683D4A93428B
:100DB8003ED13A4B1B6C394A43F080631364374B7E
:100DC8001B6C03F08063BB61BB69334B1B68013349
:100DD800314A1360304B1B68012B0BD12F4B1B6C16
:100DE8002E4A43F0007313642C4B1B6C03F0007302
:100DF8007B617B69294B1B6B284A43F00203136311
:100E0800264B1B6B03F002033B613B694FF44053D5
:100E18007B620223BB620023FB6203233B6309233B
:100E28007B6307F1240319461F4801F0E7F92DE019
:100E38007B681B681D4A934228D1184B1B6C174AC4
:100E480043F400531364154B1B6C03F40053FB600D
:100E5800FB68124B1B6B114A43F0010313630F4BE2
:100E68001B6B03F00103BB60BB684FF401437B625B
:100E78000223BB620023FB6203233B630B237B63D8
:100E880007F124031946064801F0B8F900BF3837BE
:100E9800BD4680BD00640040800600200038024046
:100EA8000000024000680040000402400034004096
:100EB80080B58EB000AF786007F1240300221A6075
:100EC8005A609A60DA601A617B681B684E4A9342DE
:100ED80040F096804D4B1B6B4C4A43F000731363F4
:100EE8004A4B1B6B03F000733B623B6A474B1B6B1F
:100EF800464A43F080631363444B1B6B03F08063E3
:100F0800FB61FB69414B1B6B404A43F00063136371
:100F18003E4B1B6B03F00063BB61BB693B4B1B6B18
:100F28003A4A43F004031363384B1B6B03F0040382
:100F38007B617B69354B1B6B344A43F001031363B8
:100F4800324B1B6B03F001033B613B692F4B1B6B5F
:100F58002E4A43F0020313632C4B1B6B03F002036E
:100F6800FB60FB68294B1B6B284A43F04003136363
:100F7800264B1B6B03F04003BB60BB6832237B62CC
:100F88000223BB620023FB6203233B630B237B63C7
:100F980007F1240319461E4801F030F986237B62C5
:100FA8000223BB620023FB6203233B630B237B63A7
:100FB80007F124031946174801F020F94FF400639C
:100FC8007B620223BB620023FB6203233B630B2388
:100FD8007B6307F1240319460F4801F00FF94FF41A
:100FE800C0437B620223BB620023FB6203233B6393
:100FF8000B237B6307F124031946084801F0FEF828
:1017C8007B681B681A687B681B6842F001021A6014
:1017D800FFF7B4FFF86012E0FFF7B0FF0246FB68BE
:1017E800D31A0A2B0BD97B685B6A43F400327B68F7
:1017F8005A627B68052283F820200123C5E07B68B4
:101808001B685B6803F00103002BE5D07B681B684D
:10444000000000000000000000000000000000006C
:10445000000000000000000000000000000000005C
:10446000000000000000000000000000000000004C
:10447000000000000000000000000000000000003C
:040000050804165184
:00000001FF
