:020000040800F2
:1000000000000820690A0008E5090008ED09000859
:10001000F5090008FD090008050A000800000000B5
:100020000000000000000000000000000D0A0008B1
:100030001B0A000800000000290A0008370A00080F
:10004000B90A0008B90A0008B90A0008B90A000884
:10005000B90A0008B90A0008B90A0008B90A000874
:10006000B90A0008B90A0008B90A0008B90A000864
:10007000B90A0008B90A0008B90A0008B90A000854
:10008000B90A0008B90A0008B90A0008B90A000844
:10009000B90A0008B90A0008B90A0008B90A000834
:1000A000B90A0008B90A0008B90A0008B90A000824
:1000B000B90A0008B90A0008B90A0008B90A000814
:1000C000B90A0008B90A0008B90A0008B90A000804
:1000D000B90A0008B90A0008B90A0008B90A0008F4
:1000E000B90A0008B90A0008B90A0008B90A0008E4
:1000F000B90A0008B90A0008B90A0008B90A0008D4
:10010000B90A0008B90A0008B90A0008B90A0008C3
:10011000B90A0008B90A0008B90A0008B90A0008B3
:10012000B90A0008B90A0008B90A0008B90A0008A3
:10013000B90A0008B90A0008B90A0008B90A000893
:10014000B90A0008B90A0008B90A0008B90A000883
:10015000B90A0008B90A0008B90A0008B90A000873
:10016000B90A0008B90A0008B90A0008B90A000863
:10017000B90A0008B90A0008B90A0008000000001E
:10018000B90A0008B90A0008B90A0008B90A000843
:10019000B90A0008B90A0008B90A0008B90A000833
:1001A000B90A0008B90A0008B90A0008B90A000823
:1001B000B90A0008B90A0008B90A0008B90A000813
:1001C000B90A0008B90A000800000000B90A0008CE
:1001D000B90A0008B90A0008B90A0008B90A0008F3
:1001E000B90A0008B90A0008B90A0008B90A0008E3
:0801F000B90A0008B90A000871
:1001F80010B5054C237833B9044B13B10448AFF359
:1002080000800123237010BD0C00002000000000B6
:10021800582E000808B5034B1BB103490348AFF338
:10022800008008BD0000000010000020582E0008C3
:1002380053B94AB9002908BF00281CBF4FF0FF3145
:100248004FF0FF3000F06AB9ADF1080C6DE904CE4B
:1002580000F006F8DDF804E0DDE9022304B0704799
:100268002DE9F047089D0C46002B4ED194468C454D
:100278008646B2FA82F262D94AB1C2F120039140AD
:1002880020FA03F30CFA02FC194300FA02FE4FEAC3
:100298001C471FFA8CF6B1FBF7F44FEA1E4307FB25
:1002A800141143EA014304FB06F199420AD91CEBF5
:1002B800030304F1FF3080F01281994240F20F816C
:1002C800023C6344591A1FFA8EF3B1FBF7F007FB9F
:1002D800101143EA014300FB06F69E420AD91CEBC3
:1002E800030300F1FF3180F0FC809E4240F2F98068
:1002F800634402389B1B40EA044000211DB1D340EF
:100308000022C5E90032BDE8F0878B4205D90DB15E
:10031800C5E9000100210846F5E7B3FA83F1002991
:1003280046D1A34202D39042C0F0F080861A64EB13
:1003380003030120002DE6D0C5E90063E3E7002AA6
:1003480040F09080A1EB0C044FEA1C481FFA8CF790
:100358000121B4FBF8F64FEA1E4308FB164443EAB2
:10036800044307FB06F0984208D91CEB030306F187
:10037800FF3402D2984200F2CD8026461C1A1FFA9A
:100388008EF3B4FBF8F008FB104443EA044300FB87
:1003980007F79F4208D91CEB030300F1FF3402D290
:1003A8009F4200F2B0802046DB1B40EA0640A5E7EA
:1003B800C1F120068B4022FA06F71F4320FA06FCFB
:1003C80004FA01F343EA0C03F44000FA01F8380C8C
:1003D8004FEA1349B4FBF0FE1FFA87FC00FB1E44EA
:1003E80049EA04440EFB0CF9A14502FA01F20AD9C4
:1003F8003C190EF1FF3A80F08480A14540F28180DB
:10040800AEF1020E3C44A4EB09041FFA83F9B4FBD5
:10041800F0F300FB134449EA044403FB0CFCA44535
:1004280007D93C1903F1FF3067D2A44565D9023BCF
:100438003C4443EA0E40A0FB0293A4EB0C049C420C
:10044800CE469C4651D34ED055B1B8EB0E0364EB63
:100458000C0404FA06F6CB401E43CC40C5E9006400
:10046800002150E7C2F1200320FA03F10CFA02FC44
:1004780024FA03F394400C434FEA1C4800FA02FEA6
:100488001FFA8CF7B3FBF8F008FB1031230C43EA92
:10049800014300FB07F1994208D91CEB030300F163
:1004A800FF362CD299422AD9023863445B1AA4B287
:1004B800B3FBF8F108FB113344EA034401FB07F3EB
:1004C800A34208D91CEB040401F1FF3613D2A3425E
:1004D80011D902396444E41A41EA004139E7044673
:1004E800F0E6084606E7C845AED2B9EB020E63EB64
:1004F800070C0138A8E73146EDE7034699E730468F
:10050800D4E7D6467FE7634402384DE706462346DC
:1005180008460FE7023E634430E700BF704700BF5C
:1005280080B582B000AF00F0C4FA00F027F800F000
:10053800FBF800F0C9F800F089F8002210210D48F6
:1005480000F0CAFD00237B6000224FF481410A4875
:1005580000F0C2FD4FF47A7000F008FB01224FF45E
:100568008141054800F0B8FD4FF47A7000F0FEFABA
:1005780000BFE9E7000002400004024080B594B0E3
:1005880000AF07F11C0334220021184602F033FCA7
:1005980007F1080300221A605A609A60DA601A614B
:1005A800284B1B6C274A43F080531364254B1B6C64
:1005B80003F080537B607B68234B1B6823F4404324
:1005C800214A43F4804313601F4B1B6803F44043E4
:1005D8003B603B680223FB610123BB621023FB6283
:1005E80002237B630023BB630823FB6390233B64E4
:1005F80002237B640423BB640223FB6407F11C030E
:10060800184600F083FD0346002B01D000F0FAF8ED
:100618000F23BB600223FB6080233B614FF48053B0
:100628007B610023BB6107F108030221184601F032
:100638001BF80346002B01D000F0E4F800BF503748
:10064800BD4680BD003802400070004080B500AF54
:100658001B4B1C4A1A601A4B4FF482725A60184B93
:1006680000229A60164B4FF4E062DA60144B0022C5
:100678001A61134B00225A61114B4FF400729A61B0
:100688000F4B0822DA610E4B00221A620C4B002233
:100698005A620B4B00229A62094B0722DA62084B16
:1006A80000221A63064B08225A63054801F02AFE05
:1006B8000346002B01D000F0A5F800BF80BD00BFA5
:1006C800280000200038004080B500AF144B154AC0
:1006D8001A60134B4FF4E1325A60114B00229A60B2
:1006E8000F4B0022DA600E4B00221A610C4B0C22D1
:1006F8005A610B4B00229A61094B0022DA61084BC0
:1007080000221A62064B00225A62054801F0A5FE33
:100718000346002B01D000F075F800BF80BD00BF74
:100728008C0000200048004080B58AB000AF07F177
:10073800140300221A605A609A60DA601A612E4B1C
:100748001B6B2D4A43F0040313632B4B1B6B03F005
:1007580004033B613B69284B1B6B274A43F00103A9
:100768001363254B1B6B03F00103FB60FB68224BF3
:100778001B6B214A43F0020313631F4B1B6B03F0EF
:100788000203BB60BB681C4B1B6B1B4A43F008038E
:100798001363194B1B6B03F008037B607B68002213
:1007A8001021164800F098FC00224FF481411448AB
:1007B80000F092FC10237B610123BB610023FB61E5
:1007C80000233B6207F1140319460C4800F0D8FADD
:1007D8004FF481437B610123BB610023FB6100234C
:1007E8003B6207F114031946054800F0C9FA00BF37
:1007F8002837BD4680BD00BF0038024000000240D7
:100808000004024080B400AF72B600BF00BFFDE72D
:102E380098470136EEE755F8043B98470136F2E724
:102E4800902E0008902E0008902E0008942E00085E
:102E5800F8B500BFF8BC08BC9E467047F8B500BF7F
:082E6800F8BC08BC9E4670474F
:102E7000000000000000000001020304060708092A
:082E8000000000000102030440
:082E8800E0D3FF7F0100000010
:042E90001D02000817
:042E9400F901000838
:0C2E98000024F400100000000100000005
:0400000508000A697C
:00000001FF
