:020000040800F2
:1000000000000820690A0008E5090008ED09000859
:10001000F5090008FD090008050A000800000000B5
:100020000000000000000000000000000D0A0008B1
:100030001B0A000800000000290A0008370A00080F
:10004000B90A0008B90A0008B90A0008B90A000884
:10005000B90A0008B90A0008B90A0008B90A000874
:10006000B90A0008B90A0008B90A0008B90A000864
:10007000B90A0008B90A0008B90A0008B90A000854
:10008000B90A0008B90A0008B90A0008B90A000844
:10009000B90A0008B90A0008B90A0008B90A000834
:1000A000B90A0008B90A0008B90A0008B90A000824
:1000B000B90A0008B90A0008B90A0008B90A000814
:1000C000B90A0008B90A0008B90A0008B90A000804
:1000D000B90A0008B90A0008B90A0008B90A0008F4
:1000E000B90A0008B90A0008B90A0008B90A0008E4
:1000F000B90A0008B90A0008B90A0008B90A0008D4
:10010000B90A0008B90A0008B90A0008B90A0008C3
:10011000B90A0008B90A0008B90A0008B90A0008B3
:10012000B90A0008B90A0008B90A0008B90A0008A3
:10013000B90A0008B90A0008B90A0008B90A000893
:10014000B90A0008B90A0008B90A0008B90A000883
:10015000B90A0008B90A0008B90A0008B90A000873
:10016000B90A0008B90A0008B90A0008B90A000863
:10017000B90A0008B90A0008B90A0008000000001E
:10018000B90A0008B90A0008B90A0008B90A000843
:10019000B90A0008B90A0008B90A0008B90A000833
:1001A000B90A0008B90A0008B90A0008B90A000823
:1001B000B90A0008B90A0008B90A0008B90A000813
:1001C000B90A0008B90A000800000000B90A0008CE
:1001D000B90A0008B90A0008B90A0008B90A0008F3
:1001E000B90A0008B90A0008B90A0008B90A0008E3
:0801F000B90A0008B90A000871+MSTK
:1001F80010B5054C237833B9044B13B10448AFF359
:1002080000800123237010BD0C00002000000000B6
:10021800582E000808B5034B1BB103490348AFF338
:10022800008008BD0000000010000020582E0008C3
:1002380053B94AB9002908BF00281CBF4FF0FF3145
:100248004FF0FF3000F06AB9ADF1080C6DE904CE4B
:1002580000F006F8DDF804E0DDE9022304B0704799
:100268002DE9F047089D0C46002B4ED194468C454D
:100278008646B2FA82F262D94AB1C2F120039140AD
:1002880020FA03F30CFA02FC194300FA02FE4FEAC3
:100298001C471FFA8CF6B1FBF7F44FEA1E4307FB25
:1002A800141143EA014304FB06F199420AD91CEBF5
:1002B800030304F1FF3080F01281994240F20F816C
:1002C800023C6344591A1FFA8EF3B1FBF7F007FB9F
:1002D800101143EA014300FB06F69E420AD91CEBC3
:1002E800030300F1FF3180F0FC809E4240F2F98068
:1002F800634402389B1B40EA044000211DB1D340EF
:100308000022C5E90032BDE8F0878B4205D90DB15E
:10031800C5E9000100210846F5E7B3FA83F1002991
:1003280046D1A34202D39042C0F0F080861A64EB13
:1003380003030120002DE6D0C5E90063E3E7002AA6
:1003480040F09080A1EB0C044FEA1C481FFA8CF790
:100358000121B4FBF8F64FEA1E4308FB164443EAB2
:10036800044307FB06F0984208D91CEB030306F187
:10037800FF3402D2984200F2CD8026461C1A1FFA9A
:100388008EF3B4FBF8F008FB104443EA044300FB87
:1003980007F79F4208D91CEB030300F1FF3402D290
:1003A8009F4200F2B0802046DB1B40EA0640A5E7EA
:1003B800C1F120068B4022FA06F71F4320FA06FCFB
:1003C80004FA01F343EA0C03F44000FA01F8380C8C
:1003D8004FEA1349B4FBF0FE1FFA87FC00FB1E44EA
:1003E80049EA04440EFB0CF9A14502FA01F20AD9C4
:1003F8003C190EF1FF3A80F08480A14540F28180DB
:10040800AEF1020E3C44A4EB09041FFA83F9B4FBD5
:10041800F0F300FB134449EA044403FB0CFCA44535
:1004280007D93C1903F1FF3067D2A44565D9023BCF
:100438003C4443EA0E40A0FB0293A4EB0C049C420C
:10044800CE469C4651D34ED055B1B8EB0E0364EB63
:100458000C0404FA06F6CB401E43CC40C5E9006400
:10046800002150E7C2F1200320FA03F10CFA02FC44
:1004780024FA03F394400C434FEA1C4800FA02FEA6
:100488001FFA8CF7B3FBF8F008FB1031230C43EA92
:10049800014300FB07F1994208D91CEB030300F163
:1004A800FF362CD299422AD9023863445B1AA4B287
:1004B800B3FBF8F108FB113344EA034401FB07F3EB
:1004C800A34208D91CEB040401F1FF3613D2A3425E
:1004D80011D902396444E41A41EA004139E7044673
:1004E800F0E6084606E7C845AED2B9EB020E63EB64
:1004F800070C0138A8E73146EDE7034699E730468F
:10050800D4E7D6467FE7634402384DE706462346DC
:1005180008460FE7023E634430E700BF704700BF5C
:1005280080B582B000AF00F0C4FA00F027F800F000
:10053800FBF800F0C9F800F089F8002210210D48F6
:1005480000F0CAFD00237B6000224FF481410A4875
:1005580000F0C2FD4FF47A7000F008FB01224FF45E
:100568008141054800F0B8FD4FF47A7000F0FEFABA
:1005780000BFE9E7000002400004024080B594B0E3
:1005880000AF07F11C0334220021184602F033FCA7
:1005980007F1080300221A605A609A60DA601A614B
:1005A800284B1B6C274A43F080531364254B1B6C64
:1005B80003F080537B607B68234B1B6823F4404324
:1005C800214A43F4804313601F4B1B6803F44043E4
:1005D8003B603B680223FB610123BB621023FB6283
:1005E80002237B630023BB630823FB6390233B64E4
:1005F80002237B640423BB640223FB6407F11C030E
:10060800184600F083FD0346002B01D000F0FAF8ED
:100618000F23BB600223FB6080233B614FF48053B0
:100628007B610023BB6107F108030221184601F032
:100638001BF80346002B01D000F0E4F800BF503748
:10064800BD4680BD003802400070004080B500AF54
:100658001B4B1C4A1A601A4B4FF482725A60184B93
:1006680000229A60164B4FF4E062DA60144B0022C5
:100678001A61134B00225A61114B4FF400729A61B0
:100688000F4B0822DA610E4B00221A620C4B002233
:100698005A620B4B00229A62094B0722DA62084B16
:1006A80000221A63064B08225A63054801F02AFE05
:1006B8000346002B01D000F0A5F800BF80BD00BFA5
:1006C800280000200038004080B500AF144B154AC0
:1006D8001A60134B4FF4E1325A60114B00229A60B2
:1006E8000F4B0022DA600E4B00221A610C4B0C22D1
:1006F8005A610B4B00229A61094B0022DA61084BC0
:1007080000221A62064B00225A62054801F0A5FE33
:100718000346002B01D000F075F800BF80BD00BF74
:100728008C0000200048004080B58AB000AF07F177
:10073800140300221A605A609A60DA601A612E4B1C
:100748001B6B2D4A43F0040313632B4B1B6B03F005
:1007580004033B613B69284B1B6B274A43F00103A9
:100768001363254B1B6B03F00103FB60FB68224BF3
:100778001B6B214A43F0020313631F4B1B6B03F0EF
:100788000203BB60BB681C4B1B6B1B4A43F008038E
:100798001363194B1B6B03F008037B607B68002213
:1007A8001021164800F098FC00224FF481411448AB
:1007B80000F092FC10237B610123BB610023FB61E5
:1007C80000233B6207F1140319460C4800F0D8FADD
:1007D8004FF481437B610123BB610023FB6100234C
:1007E8003B6207F114031946054800F0C9FA00BF37
:1007F8002837BD4680BD00BF0038024000000240D7
:100808000004024080B400AF72B600BF00BFFDE72D
:1008180080B483B000AF0F4B1B6C0E4A43F080537B
:1008280013640C4B1B6C03F080537B607B68094B93
:100838005B6C084A43F480435364064B5B6C03F4D7
:1008480080433B603B6800BF0C37BD465DF8047BC6
:10085800704700BF0038024080B58AB000AF7860AA
:1008680007F1140300221A605A609A60DA601A616C
:100878007B681B68254A934243D1254B1B6C244A4D
:1008880043F480431364224B1B6C03F480433B61A5
:100898003B691F4B1B6B1E4A43F0040313631C4B3D
:1008A8001B6B03F00403FB60FB68194B1B6B184AB6
:1008B80043F008031363164B1B6B03F00803BB607C
:1008C800BB680C237B610223BB610023FB6103230C
:1008D8003B6205237B6207F1140319460D4800F0BB
:1008E8004FFA08237B610223BB610023FB610323CA
:1008F8003B6205237B6207F114031946064800F0A2
:100908003FFA00BF2837BD4680BD00BF0038004011
:100918000038024000080240000C024080B5AEB02A
:1009280000AF786007F1A40300221A605A609A6049
:10093800DA601A6107F1140390220021184602F0C8
:100948005AFA7B681B68224A93423CD14FF4807361
:100958007B6100233B6607F11403184601F0AAF8EF
:100968000346002B01D0FFF74DFF1A4B1B6C194AA9
:1009780043F480231364174B1B6C03F480233B61FF
:100988003B69144B1B6B134A43F008031363114B69
:100998001B6B03F00803FB60FB684FF44073C7F858
:1009A800A4300223C7F8A8300023C7F8AC300323CB
:1009B800C7F8B0300723C7F8B43007F1A4031946C5
:1009C800054800F0DDF900BFB837BD4680BD00BF5F
:1009D8000048004000380240000C024080B400AFDC
:1009E80000BFFDE780B400AF00BFFDE780B400AFF3
:1009F80000BFFDE780B400AF00BFFDE780B400AFE3
:100A080000BFFDE780B400AF00BFBD465DF8047BC2
:100A1800704780B400AF00BFBD465DF8047B7047E7
:100A280080B400AF00BFBD465DF8047B704780B559
:100A380000AF00F07BF800BF80BD000080B400AFBD
:100A4800064BD3F88830054A43F47003C2F888305F
:100A580000BFBD465DF8047B704700BF00ED00E0B5
:100A6800DFF834D0FFF7EAFF0C480D490D4A0023A0
:100A780002E0D458C4500433C4188C42F9D30A4A4B
:100A88000A4C002301E013600432A242FBD302F0B7
:100A9800BBF9FFF745FD7047000008200000002063
:100AA8000C000020982E00080C00002018010020DF
:100AB800FEE780B500AF032000F02EF9002000F01B
:100AC80005F8FFF7A5FE0023184680BD80B582B063
:100AD80000AF7860124B1A68124B1B7819464FF416
:100AE8007A73B3FBF1F3B2FBF3F3184600F03BF96A
:100AF8000346002B01D001230EE07B680F2B0AD898
:100B0800002279684FF0FF3000F011F9064A7B683F
:100B18001360002300E0012318460837BD4680BD56
:100B280000000020080000200400002080B400AF6E
:100B3800064B1B781A46064B1B681344044A13607D
:100B480000BFBD465DF8047B704700BF0800002069
:100B58001401002080B400AF034B1B681846BD4643
:100B68005DF8047B704700BF1401002080B584B095
:100B780000AF7860FFF7EEFFB8607B68FB60FB684A
:100B8800B3F1FF3F05D00A4B1B781A46FB681344A4
:100B9800FB6000BFFFF7DEFF0246BB68D31AFA68A6
:100BA8009A42F7D800BF00BF1037BD4680BD00BFCE
:100BB8000800002080B485B000AF78607B6803F03F
:100BC8000703FB600B4BDB68BB60BA684FF6FF039B
:100BD8001340BB60FB681A02BB681A43064B1343F9
:100BE800BB60044ABB68D36000BF1437BD465DF8DC
:100BF800047B704700ED00E00000FA0580B400AF08
:100C0800044BDB681B0A03F007031846BD465DF872
:100C1800047B704700ED00E080B483B000AF03466A
:100C28003960FB7197F90730002B0ADB3B68DAB2B1
:100C38000C4997F907301201D2B20B4483F800230C
:100C48000AE03B68DAB20849FB7903F00F03043B7A
:100C58001201D2B20B441A7600BF0C37BD465DF8BC
:100C6800047B704700E100E000ED00E080B489B04B
:100C780000AFF860B9607A60FB6803F00703FB61B6
:100C8800FB69C3F10703042B28BF0423BB61FB697D
:100C98000433062B02D9FB69033B00E000237B6188
:100CA8004FF0FF32BB6902FA03F3DA43BB681A401C
:100CB8007B699A404FF0FF317B6901FA03F3D9430E
:100CC8007B680B40134318462437BD465DF8047B08
:100CD8007047000080B582B000AF78607B68013B48
:100CE800B3F1807F01D301230FE00A4A7B68013BFF
:100CF80053600F214FF0FF30FFF78EFF054B0022A6
:100D08009A60044B07221A60002318460837BD462C
:100D180080BD00BF10E000E080B582B000AF786011
:100D28007868FFF747FF00BF0837BD4680BD80B52C
:100D380086B000AF0346B9607A60FB7300237B611D
:100D4800FFF75CFF78617A68B9687869FFF78EFF0A
:100D5800024697F90F3011461846FFF75DFF00BFAE
:100D68001837BD4680BD80B582B000AF786078681E
:100D7800FFF7B0FF034618460837BD4680BD0000A0
:100D880080B489B000AF786039600023FB6100232C
:100D98007B6100233B610023BB610023FB6175E19C
:100DA8000122FB6902FA03F37B613B681B687A69DD
:100DB80013403B613A697B699A4240F064813B6821
:100DC8005B6803F00303012B05D03B685B6803F005
:100DD8000303022B30D17B689B68BB61FB695B0016
:100DE800032202FA03F3DB43BA691340BB613B6891
:100DF800DA68FB695B0002FA03F3BA691343BB6163
:100E08007B68BA699A607B685B68BB610122FB6991
:100E180002FA03F3DB43BA691340BB613B685B68C2
:100E28001B0903F00102FB6902FA03F3BA691343D1
:100E3800BB617B68BA695A603B685B6803F003036F
:100E4800032B17D07B68DB68BB61FB695B0003225F
:100E580002FA03F3DB43BA691340BB613B689A6843
:100E6800FB695B0002FA03F3BA691343BB617B6851
:100E7800BA69DA603B685B6803F00303022B23D18D
:100E8800FB69DA087B68083253F82230BB61FB69DA
:100E980003F007039B000F2202FA03F3DB43BA694E
:100EA8001340BB613B681A69FB6903F007039B00A9
:100EB80002FA03F3BA691343BB61FB69DA087B687A
:100EC8000832B96943F822107B681B68BB61FB696B
:100ED8005B00032202FA03F3DB43BA691340BB61E8
:100EE8003B685B6803F00302FB695B0002FA03F3EB
:100EF800BA691343BB617B68BA691A603B685B686F
:100F080003F44033002B00F0BE80664B5B6C654AEF
:100F180043F480435364634B5B6C03F48043FB608E
:100F2800FB68614AFB699B08023352F82330BB61B6
:100F3800FB6903F003039B000F2202FA03F3DB4370
:100F4800BA691340BB617B68584A934237D07B68C3
:102C780071FF02463B68D31ABA699A4202D3BB690C
:102C8800002B01D103234EE0FB681B681B6803F08F
:102C98000403002B37D0BB68802B34D0BB68402B93
:102CA80031D0FB681B68DB6903F00803082B10D1DF
:102CB800FB681B6808221A62F86800F038F8FB689D
:102CC8000822C3F88420FB68002283F878200123B7
:102CD80029E0FB681B68DB6903F40063B3F5006F48
:102CE80011D1FB681B684FF400621A62F86800F0A3
:102CF8001EF8FB682022C3F88420FB68002283F8B2
:102D0800782003230FE0FB681B68DA69BB6813406F
:102D1800BA689A420CBF01230023DBB21A46FB793A
:102D28009A42A0D0002318461037BD4680BD80B413
:102D380095B000AF78607B681B687B637B6B53E85A
:102D4800003F3B633B6B23F49073FB647B681B6819
:102D58001A46FB6C3B64FA63F96B3A6C41E8002352
:102D6800BB63BB6B002BE6D17B681B6808333B62F7
:102D78003B6A53E8003FFB61FB6923F00103BB6436
:102D88007B681B680833BA6CFA62BB62B96AFA6A74
:102D980041E800237B627B6A002BE5D17B681B6ED0
:102DA800012B18D17B681B68FB60FB6853E8003F68
:102DB800BB60BB6823F010037B647B681B681A4602
:102DC8007B6CBB617A617969BA6941E800233B6130
:102DD8003B69002BE6D17B682022C3F880207B6802
:102DE80000221A667B6800229A6600BF5437BD46E7
:102DF8005DF8047B704702440346934200D1704754
:102E080003F8011BF9E7000070B50D4D0D4C641B6C
:102E1800A4100026A64209D10B4D0C4C00F018F85E
:102E2800641BA4100026A64205D170BD55F8043BCA
:102E380098470136EEE755F8043B98470136F2E724
:102E4800902E0008902E0008902E0008942E00085E
:102E5800F8B500BFF8BC08BC9E467047F8B500BF7F
:082E6800F8BC08BC9E4670474F
:102E7000000000000000000001020304060708092A
:082E8000000000000102030440
:082E8800E0D3FF7F0100000010
:042E90001D02000817
:042E9400F901000838
:0C2E98000024F400100000000100000005
:0400000508000A697C
:00000001FF
