:020000040008F2
:04400000004B3D45EF
:02400400006753
:204008005A1100085A1100085A1100085A1100085A1100085A1100085A1100085A11000800
:204018005A1100085A1100085A1100085A1100085A1100085A1100085A1100085A110008F0
:204028005A1100085A1100085A1100085A1100085A1100085A1100085A1100085A110008E0
:20403C00761BFFF0E20000BDE630060029425616761F011A1A2A0001761F003356BF04215B
:20404C00E28000BEFFF176177602761BFFF00005ABBDA8BDA0BDC2BDC3BDE20000BDE2030D
:20405C0000BDE20301BDE20302BDE20303BDE20304BDE20305BDE6300600FE02FF6929425F
:20406C005616761F00300600761F04121E00761F03FE0A0F761F041A4F3CFFED00C3761F03
:20407C00002CE2C40100761F0412E2AF001EE71000407700E203001E761F002CE2C40101DD
:20408C00761F0412E2AF0020E71000407700E2030020761F002CE2C40102761F0412E2AF5F
:20409C000022E71000407700E2030022761F002CE2C40120761F0412E2AF0024E71000400E
:00000001FF
