:020000040800F2
:04400000004B3D45EF
:20404C00E28000BEFFF176177602761BFFF00005ABBDA8BDA0BDC2BDC3BDE20000BDE2030D
:20405C0000BDE20301BDE20302BDE20303BDE20304BDE20305BDE6300600FE02FF6929425F
:20406C005616761F00300600761F04121E00761F03FE0A0F761F041A4F3CFFED00C3761F03
:082E6800F8BC08BC9E4670474F
:102E7000000000000000000001020304060708092A
:082E8000000000000102030440
:082E8800E0D3FF7F0100000010
:042E90001D02000817
:042E9400F901000838
:203C4000FFF176177602761BFFF0E20000BDE630060029425616761F01D41A040001761F3F
:203C5000003356BF0121E28000BEFFF17617760277006F00B2BD761F050659A99238610DA6
:203C600028ABFFFF28AAFFFF28A9FFFF28A8FFFF0FAB6103767FFFFF761F04A8C53E3E670C
:203C7000761F0506063C61041EA792A13E67761F0506063A61031EA73E67764B3C588BBE04
:203C800000063B10761F00331820FFFE2B222B242B262B282B2A2B2C2B2E2B302B322B347A
:203C90002B362B382B232B252B272B292B2B2B2D2B2F2B312B332B352B372B39FF690006B6
:203CA000761F00331A2000012821FFFF2910FF690006FE068F090A80A8428F000D00A8447B
:203CB000020607421E42020607441E4476222B45924552DD670D83448A42A0A9C4840902DD
:203CC000A8421E44C2C50A45924552DD68F5761A761F00331A200001FF69FE860006B2BD6B
:203CD000AABDA2BDFE0882A4D1005ACB6F155CAD2901560303A107A3DC8809025CA483A9F3
:203CE000020876485FDE064261068A44834676485FDE5ACBD90192A254A166EAFE8882BE40
:203CF00086BE8BBE0006C141C0420644CFAACEABFF5A06427620994198420644CBAACAABC2
:203D0000FF5A06427620F341F242064471AA70ABFF5A06427620020028ABFFFF28AAFFFFAA
:203D100019010FAB60049A00D4006F05A9A492C4A9A4DC027648BF2F0006761BFFF0E20097
:203D200000BDE630060029425616761F003356BF0121E28000BEFFF1761776027622761F92
:203D30001748180CFFF8CC26FFFC50019626761AFF69000697A69B00F60F1FA6762097A68C
:203D40009B00F60F1FA692A87620561F7622B9C028290068761A004B3B7FFF58C4A4610436
:0C2E98000024F400100000000100000004
:00000001FF
