:020000040800F2
:1000000000000820690A0008E5090008ED09000859
:10001000F5090008FD090008050A000800000000B5
:100020000000000000000000000000000D0A0008B1
:100030001B0A000800000000290A0008370A00080F
:10004000B90A0008B90A0008B90A0008B90A000884
:10005000B90A0008B90A0008B90A0008B90A000874
:10006000B90A0008B90A0008B90A0008B90A000864
:10007000B90A0008B90A0008B90A0008B90A000854
:082E6800F8BC08BC9E4670474F
:102E7000000000000000000001020304060708092A
:082E8000000000000102030440
:082E8800E0D3FF7F0100000010
:042E90001D02000817
:042E9400F901000838
:0C2E98000024F400100000000100000005
:0400000508000A697C
:00000001FF
