:020000040800F2
:04400000004B3D45EF
:20404C00E28000BEFFF176177602761BFFF00005ABBDA8BDA0BDC2BDC3BDE20000BDE2030D
:20405C0000BDE20301BDE20302BDE20303BDE20304BDE20305BDE6300600FE02FF6929425F
:20406C005616761F00300600761F04121E00761F03FE0A0F761F041A4F3CFFED00C3761F03
:082E6800F8BC08BC9E4670474F
:102E7000000000000000000001020304060708092A
:082E8000000000000102030440
:082E8800E0D3FF7F0100000010
:042E90001D02000817
:042E9400F901000838
:0C2E98000024F400100000000100000004
:00000001FF
