:020000040800F2
:1000000000000820E12B0008A1290008A929000808
:10001000B1290008B9290008C12900080000000022
:1000200000000000000000000000000031C40008D3
:10003000C92900080000000041C60008A9C6000840
:10004000312C0008312C0008312C0008312C00081C
:10005000312C0008312C0008312C0008312C00080C
:10006000312C0008312C0008312C0008312C0008FC
:10007000312C0008312C0008312C0008312C0008EC
:10008000312C0008312C0008312C0008D929000837
:10009000ED290008312C0008312C0008312C000813
:1000A000312C0008312C0008312C0008312C0008BC
:1000B000312C0008312C0008312C0008312C0008AC
:1000C000312C0008312C0008312C0008312C00089C
:1000D000312C0008312C0008312C0008312C00088C
:1000E000312C0008312C0008312C0008312C00087C
:1000F000312C0008312C0008312C0008312C00086C
:10010000312C0008312C0008312C0008312C00085B
:10011000312C0008312C0008012A0008312C00087D
:10012000312C0008312C0008312C0008312C00083B
:10013000312C0008152A0008312C0008312C000849
:10014000312C0008312C0008312C0008312C00081B
:10015000312C0008312C0008312C0008312C00080B
:10016000312C0008312C0008312C0008312C0008FB
:10017000312C0008312C0008312C00080000000050
:10018000312C0008312C0008312C0008312C0008DB
:10019000312C0008312C0008312C0008312C0008CB
:1001A000312C0008312C0008312C0008312C0008BB
:1001B000312C0008312C0008312C0008312C0008AB
:1001C000312C0008312C000800000000312C000800
:1001D000312C0008312C0008312C0008312C00088B
:1001E000312C0008312C0008312C0008312C00087B
:0801F000312C0008312C00083D
:1002000010B5054C237833B9044B13B10448AFF350
:1002100000800123237010BDD419012000000000CC
:10022000F47F010808B5034B1BB103490348AFF342
:10023000008008BD00000000D8190120F47F0108EB
:1002400001F0FF01102A2BDB10F0070F08D010F887
:10025000013B013A8B422DD010F0070F42B3F6D18B
:10026000F0B441EA012141EA014122F007047FF0A4
:1002700000070023F0E80256083C85EA010586EAFB
:10028000010685FA47F5A3FA87F586FA47F6A5FA37
:1002900087F68EB9EED1F0BC01F0FF0102F0070243
:1002A00032B110F8013B013A83EA010313B1F8D1EE
:1002B0000020704701387047002D06BF35460338CF
:1002C000073815F0010F07D1013015F4807F02BF08
:1002D000013015F4C03F0130F0BC0138704700BF59
:1002E00053B94AB9002908BF00281CBF4FF0FF319D
:1002F0004FF0FF3000F06AB9ADF1080C6DE904CEA3
:1003000000F006F8DDF804E0DDE9022304B07047F0
:100310002DE9F047089D0C46002B4ED194468C45A4
:100320008646B2FA82F262D94AB1C2F12003914004
:1003300020FA03F30CFA02FC194300FA02FE4FEA1A
:100340001C471FFA8CF6B1FBF7F44FEA1E4307FB7C
:10035000141143EA014304FB06F199420AD91CEB4C
:10036000030304F1FF3080F01281994240F20F81C3
:10037000023C6344591A1FFA8EF3B1FBF7F007FBF6
:10038000101143EA014300FB06F69E420AD91CEB1A
:10039000030300F1FF3180F0FC809E4240F2F980BF
:1003A000634402389B1B40EA044000211DB1D34046
:1003B0000022C5E90032BDE8F0878B4205D90DB1B6
:1003C000C5E9000100210846F5E7B3FA83F10029E9
:1003D00046D1A34202D39042C0F0F080861A64EB6B
:1003E00003030120002DE6D0C5E90063E3E7002AFE
:1003F00040F09080A1EB0C044FEA1C481FFA8CF7E8
:100400000121B4FBF8F64FEA1E4308FB164443EA09
:10041000044307FB06F0984208D91CEB030306F1DE
:10042000FF3402D2984200F2CD8026461C1A1FFAF1
:100430008EF3B4FBF8F008FB104443EA044300FBDE
:1004400007F79F4208D91CEB030300F1FF3402D2E7
:100450009F4200F2B0802046DB1B40EA0640A5E741
:10046000C1F120068B4022FA06F71F4320FA06FC52
:1004700004FA01F343EA0C03F44000FA01F8380CE3
:100480004FEA1349B4FBF0FE1FFA87FC00FB1E4441
:1004900049EA04440EFB0CF9A14502FA01F20AD91B
:1004A0003C190EF1FF3A80F08480A14540F2818032
:1004B000AEF1020E3C44A4EB09041FFA83F9B4FB2D
:1004C000F0F300FB134449EA044403FB0CFCA4458D
:1004D00007D93C1903F1FF3067D2A44565D9023B27
:1004E0003C4443EA0E40A0FB0293A4EB0C049C4264
:1004F000CE469C4651D34ED055B1B8EB0E0364EBBB
:100500000C0404FA06F6CB401E43CC40C5E9006457
:10051000002150E7C2F1200320FA03F10CFA02FC9B
:1005200024FA03F394400C434FEA1C4800FA02FEFD
:100530001FFA8CF7B3FBF8F008FB1031230C43EAE9
:10054000014300FB07F1994208D91CEB030300F1BA
:10055000FF362CD299422AD9023863445B1AA4B2DE
:10056000B3FBF8F108FB113344EA034401FB07F342
:10057000A34208D91CEB040401F1FF3613D2A342B5
:1005800011D902396444E41A41EA004139E70446CA
:10059000F0E6084606E7C845AED2B9EB020E63EBBB
:1005A000070C0138A8E73146EDE7034699E73046E6
:1005B000D4E7D6467FE7634402384DE70646234634
:1005C00008460FE7023E634430E700BF704700BFB4
:1005D00080B586B000AF0023FB6000233B6107F1CC
:1005E0000C014FF0FF3308222A4806F045FE03466F
:1005F000002B01D002F034F8274816F027FE002324
:10060000FB750BE0FB7D18333B4413F80C3C19469B
:10061000224816F0ABFDFB7D0133FB75FB7D072BFC
:10062000F0D90A2016F0B4FD3B7B662B2DD17B7BE5
:100630001A461B4B1A6000237B600023BB60052316
:100640003B71391D4FF0FF330822124806F09FFC22
:100650000346002B01D002F003F8124816F0F6FD15
:100660000023BB750BE0BB7D18333B4413F8143CEF
:1006700019460A4816F07AFDBB7D0133BB75BB7D78
:10068000072BF0D90A2016F083FD00BF1837BD46AE
:1006900080BD00BFFC1D01200C80010838800108CE
:1006A000F819012040800108B0B586B000AF9C4B1E
:1006B0001B68002B00F0A081994B1B680121184694
:1006C00016F07AFB03463B613B69002B03D195484A
:1006D00016F04CFD90E1924B1B68DBB21A464FF0CE
:1006E000FF333969904806F0C7FD0346002B01D05F
:1006F00001F0B6FF8D4816F0A9FD0023FB7509E057
:10070000FB7D3A6913441B78184616F041FDFB7DCA
:100710000133FB75FA7D824B1B689A42F0D30A20A5
:1007200016F036FD3B691A7A814B1A70804B1B78A4
:10073000342B06D17F4B01221A807F4816F086FDAC
:1007400010E07B4B1B78312B06D17A4B1B88013391
:100750009AB2784B1A8005E0764B1B8801339AB227
:10076000744B1A806E4B1B68043B1946386901F0C4
:100770005BFD0346FB736A4B1B68DBB2043BDBB2D9
:100780001946386901F0A2FD0346BB73FB7BBA7BB7
:1007900019466A4816F0EAFCFA7BBB7B9A426CD099
:1007A0005F4B1B680121184616F006FB03463B60B1
:1007B0003B6888221A70624B1B681A0C3B68013335
:1007C000D2B21A705E4B1B681A0A3B680233D2B26F
:1007D0001A705B4B1A683B680333D2B21A70554BE0
:1007E0001B881B0A9AB23B680433D2B21A70514B71
:1007F0001A883B680533D2B21A704D4B1A783B68A1
:10080000063302F00F02D2B21A703B680733FA7B4C
:100810001A70434B1B68DBB2013B9AB24FF0FF33B7
:100820003968414806F0B3FB0346002B01D001F0C4
:1008300017FF444816F00AFD0023BB750AE0BB7D94
:100840003A6813441B7819463F4816F08FFCBB7D6D
:100850000133BB75BB7D072BF1D90A2016F098FC3C
:10086000386816F0CDFAFB7BBA7B1946374816F08C
:100870007DFC374B00221A70A5E0314B1A68284BDB
:100880001B6813442E4A1360254B1B680121184630
:1008900016F092FA0346BB60BB6805221A70284B1B
:1008A0001B681A0CBB680133D2B21A70244B1B6848
:1008B0001A0ABB680233D2B21A70214B1A68BB689D
:1008C0000333D2B21A701B4B1B881B0A9AB2BB6847
:1008D0000433D2B21A70174B1A88BB680533D2B2F0
:1008E0001A70134B1A78BB68063302F00F02D2B2AB
:1008F0001A700B4B1B68DBB2013B9AB24FF0FF330F
:10090000B968094806F043FB0346002B01D001F00B
:10091000A7FE0C4816F09AFC00237B7525E000BF6B
:10092000F819012070800108FC1D01209880010841
:10093000021A0120001A0120B8800108CC800108A9
:10094000FC190120F08001083880010808810108A5
:10095000F01901207B7DBA6813441B78194628489A
:1009600016F004FC7B7D01337B757B7D072BF1D971
:100970000A2016F00DFCB86816F042FA04F008FDE3
:1009800000233B7517E03B7D3A6913441B78FB71EC
:100990001C4B1968FB7900221C46154622462B4643
:1009A000002004F099FC174B1B680133154A1360B3
:1009B0003B7D01333B753A7D134B1B68013B9A42EB
:1009C000E1D304F007FD114B1B78312B11D1104BF3
:1009D0001B6819460F4816F0C9FB0F4B1B681946D8
:1009E0000E4816F0C3FB0E4B1B8819460D4816F037
:1009F000BDFB386916F004FA1837BD46B0BD00BF1C
:100A00003880010800000020F8190120021A012096
:100A1000F41901203C810108FC19012064810108BE
:100A2000001A01208881010880B584B000AF00233E
:100A3000BB6007F108014FF0FF3304222B4806F09A
:100A40001BFC0346002B01D001F00AFE284816F0DB
:100A5000FDFB0023FB730BE0FB7B10333B4413F8DF
:100A6000083C1946234816F081FBFB7B0133FB73DE
:100A7000FB7B032BF0D90A2016F08AFB3B7AAA2BCA
:100A800030D11D4816F0E2FB00237B6005233B714B
:100A9000391D4FF0FF330422144806F078FA03465C
:100AA000002B01D001F0DCFD144816F0CFFB002331
:100AB000BB730BE0BB7B10333B4413F80C3C194673
:100AC0000C4816F053FBBB7B0133BB73BB7B032B82
:100AD000F0D90A2016F05CFB094800F0D3F8094B66
:100AE00001221A7000BF1037BD4680BDFC1D0120D9
:100AF000A881010838800108D0810108E881010837
:100B000000000808F019012080B584B000AF002370
:100B10007B60391D4FF0FF3304223D4806F0ACFBEB
:100B20000346002B01D001F09BFD3A4816F08EFBE6
:100B30000023FB730BE0FB7B10333B4413F80C3CAE
:100B40001946354816F012FBFB7B0133FB73FB7B28
:100B5000032BF0D90A2016F01BFB3B79FF2B53D156
:100B600000233B607B791A04BB791B021343FA799B
:100B700013431A46294B1A60294B1B68BB60274B4D
:100B80001B68BA689A420DD0FF233B70BB681B0CF0
:100B9000DBB27B70BB681B0ADBB2BB70BB68DBB22D
:100BA000FB7007E0FF233B707B797B70BB79BB70E8
:100BB000FB79FB70194B1B6819461A4816F0D6FAD8
:100BC00039464FF0FF330422114806F0E0F903469E
:100BD000002B01D001F044FD134816F037FB002331
:100BE000BB730BE0BB7B10333B4413F8103C19463E
:100BF000094816F0BBFABB7B0133BB73BB7B032BED
:100C0000F0D90A2016F0C4FA00BF1037BD4680BDE7
:100C1000FC1D01201482010838800108F41901200C
:100C200000000808448201086482010880B485B08D
:100C300000AFF860B9607A60FB68074A1A60BB6869
:100C4000064A1A607B6880221A6000BF1437BD46CE
:100C50005DF8047B704700BF041A0120A41A01202C
:100C600080B582B000AF7860391D4FF6FF73012266
:100C7000034807F081FB7B6818460837BD4680BDF6
:100C8000601E012080B582B000AF78600AF03EFDA2
:100C900004F07EFB786800F091F803460F4A136079
:100CA0000F4B02221A600F4B00221A600D4B0222DA
:100CB0001A610A4B1B680B4A9360094B1B68094A6F
:100CC000D3600949074804F0C5FC04F083FB0AF02F
:100CD0002BFD00BF0837BD4680BD00BFA81C01200A
:100CE000AC1C0120B41C0120B01C0120B0B582B0A6
:100CF00000AF7860396004F04BFB3B6800221C4673
:100D0000154622462B467968022004F0E5FA04F0E5
:100D100061FB00BF0837BD46B0BD80B582B000AFF3
:100D2000786039607B681B6819463868FFF7DEFF1A
:100D30003B681A1D7B689B6819461046FFF7D6FF73
:100D40003B6803F108027B685B6819461046FFF7B1
:100D5000CDFF3B6803F10C027B68DB681946104647
:100D6000FFF7C4FF00BF0837BD4680BD80B483B025
:100D700000AF786039603B681A687B681A603B682E
:100D80000433D3ED007AFCEEE77A17EE902A7B6805
:100D90009A603B6808331A687B685A603B680C337A
:100DA000D3ED007AFCEEE77A17EE902A7B68DA60E2
:100DB00000BF0C37BD465DF8047B704780B485B03A
:100DC00000AF78600023FB607B68404A934206D204
:100DD0007B68B3F1006F02D30023FB606FE07B6898
:100DE0003B4A934206D87B68384A934202D3012398
:100DF000FB6064E07B68374A934206D27B68344AE2
:100E0000934202D90223FB6059E07B68324A934245
:100E100006D87B682F4A934202D30323FB604EE03F
:100E20007B682E4A934206D87B682B4A934202D9AC
:100E30000423FB6043E07B68294A934206D87B6821
:100E4000264A934202D90523FB6038E07B68254A95
:100E5000934206D87B68224A934202D90623FB605C
:100E60002DE07B68B3F1016F06D27B681D4A934287
:100E700002D90723FB6022E07B681B4A934206D815
:100E80007B68B3F1016F02D30823FB6017E07B6836
:100E9000164A934206D87B68134A934202D9092323
:100EA000FB600CE07B68124A934206D87B680F4ACD
:100EB000934202D90A23FB6001E00B23FB60FB682D
:100EC00018461437BD465DF8047B70470080000863
:100ED000FFFF000800800108FFFF0108FFFF030873
:100EE000FFFF0708FFFF0B08FFFF1308FFFF1708AE
:100EF000FFFF1B08B0B584B000AF7860844B854A13
:100F00000021786802F018FB0346002B03D08248CA
:100F100016F09CF9F8E07F4B1B6840F2FF229342E9
:100F20001ED17E4B1B78012B1AD17D4A794B14467A
:100F30001D460FCD0FC495E8070084E80700002385
:100F4000FB7308E0FA7BFB7B7149895C754AD154DD
:100F5000FB7B0133FB73FB7B072BF3D900F002F91A
:100F60006C4B1B6840F2FF4293421ED16E4B1B78C4
:100F7000012B1AD16D4A674B14461D460FCD0FC485
:100F800095E8070084E807000023BB7308E0BA7BFC
:100F9000BB7B5F49895C664AD154BB7B0133BB7321
:100FA000BB7B072BF3D900F031F95A4B1B6840F299
:100FB000FF6293421ED15F4B1B78012B1AD15E4A10
:100FC000544B14461D460FCD0FC495E8070084E826
:100FD000070000237B7308E07A7B7B7B4C49895CAC
:100FE000564AD1547B7B01337B737B7B072BF3D930
:100FF00000F09EF9474B1B6840F2FE2293421ED13F
:101000004F4B1B78012B1AD14E4A424B14461D46BA
:101010000FCD0FC495E8070084E8070000233B7359
:1010200008E03A7B3B7B3A49895C474AD1543B7B99
:1010300001333B733B7B072BF3D900F093F8354B1F
:101040001B6840F2FE4293421ED1404B1B78012B9D
:101050001AD13F4A2F4B14461D460FCD0FC495E8B9
:10106000070084E807000023FB7208E0FA7AFB7AA5
:101070002749895C374AD154FB7A0133FB72FB7AEA
:10108000072BF3D900F0C2F8224B1B6840F2FF6235
:1010900093421ED1274B1B78012B1AD1264A1D4B98
:1010A00014461D460FCD0FC495E8070084E80700DD
:1010B0000023BB7208E0BA7ABB7A1549895C264ADC
:1010C000D154BB7A0133BB72BB7A072BF3D900F042
:1010D0002FF9104B1B6840F22312934202D11F4B91
:1010E00000221A700B4B1B6840F20112934202D18E
:1010F0001B4B01221A70074B1B6840F203129342EC
:1011000002D1174B02221A7000BF1037BD46B0BD86
:10111000981F01202C20012094820108D01F01205B
:1011200048200120A01F0120D11F012064200120A0
:10113000A81F0120D21F012080200120B01F012004
:10114000D41F01209C200120B81F0120D51F0120A1
:10115000B8200120C01F0120C81F0120D81F012076
:10116000DA1F012080B582B000AF00233B6000236E
:101170007B601F4B1B783B701D4B5B787B701C4B5F
:101180005B88DBB2BB701A4B5B881B0A9BB2DBB27D
:10119000FB70174B1B793B713B46042219461548DF
:1011A00016F034F90346002B0AD1134B1B78012BA0
:1011B00006D1124816F04AF8114B00221A7012E0BC
:1011C0003B46042219460F4816F020F90346002B2F
:1011D00009D1094B1B78022B05D1084816F036F8C7
:1011E000094B00221A7000BF0837BD4680BD00BF02
:1011F000D4200120A01F0120DA1F0120A8820108AD
:10120000D01F0120B81F0120D41F012080B582B05B
:1012100000AF3D4B1B78012B36D13C4B9B781946D8
:101220003B4815F0A3FF0023FB7109E0FB79374A27
:10123000D35C1946374815F099FFFB790133FB71F0
:10124000FB79072BF2D90A2015F0A2FF2F4B1B7850
:10125000052B12D12D4B5A782F4B1B789A4205D172
:101260002A4B9A782C4B5B789A4206D02B4B012262
:101270001A702B4815F0EAFF41E02A4815F0E6FF06
:10128000294B01221A703AE01F4B1B78022B36D1F2
:10129000264B9B7819461E4815F068FF0023BB714A
:1012A00009E0BB79214AD35C19461A4815F05EFF64
:1012B000BB790133BB71BB79072BF2D90A2015F03A
:1012C00067FF1A4B1B78052B12D1184B5A78124B1B
:1012D0001B789A4205D1154B9A780F4B5B789A424E
:1012E00006D00E4B01221A700D4815F0AFFF06E034
:1012F0000C4815F0ABFF0C4B01221A70FFE700BF42
:101300000837BD4680BD00BFDA1F0120A81F01209D
:10131000B8820108D8820108DC1F0120D71F0120F4
:10132000E082010814830108D81F0120C01F01209A
:1013300080B584B000AF3B4627491846FFF716FD3D
:10134000264B1B78052B17D1244B5B78AA2B13D186
:10135000234B1B78012B0FD1224815F077FF224B2E
:1013600001221A60204B00229A607B681E4A53605B
:10137000FB681D4AD3601AE01C4B1B78052B16D165
:101380001A4B5B78AA2B12D1154B1B78022B0ED16E
:10139000144815F05BFF3B68134A1360BB68124AA0
:1013A0009360114B01225A600F4B0022DA60104803
:1013B00015F04CFF0848FFF765FC07490A48FFF79E
:1013C000ACFC0C4B00221A700B4B01221A7000BFB0
:1013D0001037BD4680BD00BF00001C08B01F0120B3
:1013E000DA1F01202C830108E0200120C81F012002
:1013F00058830108D71F0120D91F0120B0B596B02E
:1014000000AF01F01CFD00F05DF800F075F900F090
:10141000C3F800F041F900F005F900F039FA4FF493
:10142000FA6001F039FD204815F010FF1F4B07F15D
:101430003C041D460FCD0FC495E8070084E8070063
:1014400007F13C030021184608F089FB0346184ABF
:101450001360184B07F120041D460FCD0FC495E80B
:10146000070084E8070007F120030021184608F070
:1014700076FB0346104A1360104B3C1D1D460FCDF2
:101480000FC495E8070084E807003B1D00211846BB
:1014900008F065FB03460A4A136008F049FB4FF465
:1014A0007A7001F0F9FCFAE770830108948301086F
:1014B000E81E0120BC830108EC1E0120E483010822
:1014C000F01E012080B594B000AF07F11C03342258
:1014D0000021184615F0AAFF07F1080300221A6040
:1014E0005A609A60DA601A61294B1B6C284A43F0F3
:1014F00080531364264B1B6C03F080537B607B6826
:10150000244B1B6823F44043224A43F48043136076
:10151000204B1B6803F440433B603B680123FB61A5
:101520004FF480333B6202237B634FF48003BB6341
:101530000423FB6390233B6402237B640423BB648A
:101540000223FB6407F11C03184604F047FB034623
:10155000002B01D001F084F80F23BB600223FB6055
:1015600080233B614FF480537B614FF48053BB6118
:1015700007F108030221184604F0DEFD0346002BA4
:1015800001D001F06DF800BF5037BD4680BD00BFEF
:10159000003802400070004080B500AF1E4B1F4A6B
:1015A0001A601D4B04225A601B4B00229A601A4B92
:1015B0000022DA60184B4FF4A0221A61164B4FF448
:1015C00080125A61144B00221A76134B00225A766D
:1015D000114B00229A76104B0022DA760E4B002235
:1015E0001A770D4B00225A770B4801F085FC034611
:1015F000002B01D001F034F8094B9B68084A43F0F6
:1016000000739360064B9B68054A43F01003936098
:1016100000F016F900BF80BDD41D01200064004019
:10162000002004E080B500AF194B1A4A1A60184B2D
:1016300000225A60164B00229A60154B4FF4E0626C
:10164000DA60134B00221A61114B00225A61104BD1
:101650004FF400729A610E4B00221A620C4B00226A
:101660005A620B4B00229A62094B0722DA62084B3E
:1016700000221A63064B00225A63054805F0DCFB82
:101680000346002B01D000F0EBFF00BF80BD00BF80
:10169000FC1D01200034014080B500AF144B154AF9
:1016A0001A60134B4FF4E1325A60114B00229A60DA
:1016B0000F4B0022DA600E4B00221A610C4B0C22F9
:1016C0005A610B4B00229A61094B0022DA61084BE8
:1016D00000221A62064B00225A62054806F0FEFDFF
:1016E0000346002B01D000F0BBFF00BF80BD00BF50
:1016F000601E01200048004080B58CB000AF07F1AB
:101700001C0300221A605A609A60DA601A61354B35
:101710001B6B344A43F010031363324B1B6B03F013
:101720001003BB61BB692F4B1B6B2E4A43F0800338
:1017300013632C4B1B6B03F080037B617B69294B8C
:101740001B6B284A43F004031363264B1B6B03F007
:1017500004033B613B69234B1B6B224A43F00103AB
:101760001363204B1B6B03F00103FB60FB681D4BF5
:101770001B6B1C4A43F0020313631A4B1B6B03F0F1
:101780000203BB60BB68174B1B6B164A43F0080390
:101790001363144B1B6B03F008037B607B68114BD6
:1017A0001B6B104A43F0400313630E4B1B6B03F09B
:1017B00040033B603B68002260210B4804F0F4F9D1
:1017C0006023FB6101233B6200237B620223BB6237
:1017D00007F11C031946044804F03AF800BF3037FB
:1017E000BD4680BD003802400000024080B584B094
:1017F00002AF53233B7100233B703A46391D4FF033
:10180000FF33009301230C4805F06DFE0346002BC7
:1018100001D000F025FF3B781A460021074815F05B
:10182000A5FC0A2015F0B4FC3B78A52BE5D100BF40
:1018300000BF0837BD4680BDFC1D012000840108A3
:1018400080B58AB000AF00233B6000237B6000239B
:10185000BB600023FB600123FB610023BB6100230D
:101860003B6101233B620A237B610D237B623B4684
:101870001946064801F03CFC0346002B01D000F05D
:10188000EFFE00BF2837BD4680BD00BFD41D01203C
:1018900080B500AF094801F017FD0346002B01D0C9
:1018A00000F0DEFE0221054801F068FF0346002B30
:1018B00001D000F0D5FE00BF80BD00BFD41D0120C7
:1018C00080B58CB000AFF860B9601346FB7100239F
:1018D000FB62FB795B003B62002387F82B304AE018
:1018E00000237B610023BB61FA79FB6A5B08D31A92
:1018F000082B28BF0823FB77002387F82A30002312
:101900007B621FE07A6AFB6A13443A6A9A4216D9EC
:10191000FB6A0933BA68134497F82A20114618461F
:1019200000F0D4FC0346194607F114027B6A134405
:101930000A461A7097F82A30023387F82A307B6AF1
:1019400001337B62FB7F7A6A9A42DBDBFB7F002BF1
:1019500016D097F82B30013387F82B30FA7F07F138
:1019600014031946F86800F011F8FB7F5B001A4673
:10197000FB6A1344FB62FA6A3B6A9A42B0D900E000
:1019800000BF00BF3037BD4680BD000080B58CB0C1
:1019900000AFF860B9601346FB71FB797B620423EA
:1019A000FB6100233B62174B1B78012B02D1164BC6
:1019B000BB6105E0134B1B78022B01D1134BBB61BC
:1019C00007F1100307F11401BA68F86801F0C0FCD0
:1019D000034687F82F3097F82F30002B03D00C48A0
:1019E00015F034FC0BE000BF3B691946F86801F0C4
:1019F0007FFD0346002BF7D1052001F04DFA30376B
:101A0000BD4680BDDA1F012000BC020C02BC020CE6
:101A1000D484010880B58AB000AF00233B60002366
:101A20007B60364B1B783B70344B5B787B70334B61
:101A30005B88DBB2BB70314B5B881B0A9BB2DBB2AD
:101A4000FB702E4B1B793B712C4BDB88DBB27B711F
:101A50002A4BDB881B0A9BB2DBB2BB71274B1B896D
:101A6000DBB2FB710823FB6100237B610023BB61B8
:101A7000002387F82030224B1B78012B03D140F242
:101A8000FF13FB6006E01E4B1B78022B02D14FF4C4
:101A9000FF73FB60194B5B8819461A4815F066FB0B
:101AA00007F108033A4607F10C01174801F050FC12
:101AB000034687F8273097F82730002B03D01348C8
:101AC00015F0C4FB17E000BFBB6819460E4801F0D3
:101AD0000FFD0346002BF7D1094B1B78012B03D1D7
:101AE0000B4B01221A7006E0054B1B78022B02D12A
:101AF000084B01221A702837BD4680BDD420012032
:101B0000DA1F0120EC840108D41D0120D4840108CF
:101B1000D01F0120D41F012080B590B000AF00235A
:101B20007B600023BB6008233B630023BB62002370
:101B3000FB62002387F8343007F10C034049184654
:101B4000FFF714F93F4B1B78012B12D13E4815F0DB
:101B50007DFB3E493E4800F045FA40F2FF333B62D0
:101B6000FB68012B1BD101237B723A4815F06EFBF9
:101B700015E0344B1B78022B11D1374815F066FB6A
:101B80003249364800F02EFA40F2FE333B623B69A0
:101B9000012B04D101237B72314815F057FB05233B
:101BA0003B712A4B1B787B71284B5B78BB71274BB1
:101BB0005B7819462B4815F0D9FA0023FB630AE03D
:101BC0003A1DFB6B13441B781946274815F0CEFAD3
:101BD000FB6B0133FB63FB6B072BF1DD0A2015F078
:101BE000D7FA07F11C033A1D07F120011F4801F045
:101BF000AFFB034687F83B3097F83B30002B03D010
:101C00001B4815F023FB17E000BFFB691946174876
:101C100001F06EFC0346002BF7D10A4B1B78012B19
:101C200003D1144B01221A7006E0064B1B78022BDD
:101C300002D1114B01221A704037BD4680BD00BF52
:101C400000001C08DA1F012000850108DC1F0120AC
:101C500008000808248501085C85010808001008B0
:101C600080850108B8850108D8820108D41D0120AB
:101C7000D4840108D11F0120D51F012080B58CB06C
:101C800000AF00237B600023BB6005233B71AA23C8
:101C90007B712E4B1B78012B03D140F2FF533B612C
:101CA00006E02A4B1B78022B02D140F2FE533B6127
:101CB00008233B620023BB610023FB61002387F8FC
:101CC0002430234815F052FA0023FB620AE03A1D43
:101CD000FB6A13441B7819461E4815F047FAFB6A45
:101CE0000133FB62FB6A072BF1DD0A2015F050FA85
:101CF00007F10C033A1D07F11001174801F028FB0A
:101D0000034687F82B3097F82B30002B03D013486D
:101D100015F09CFA17E000BFFB6819460E4801F069
:101D2000E7FB0346002BF7D1084B1B78012B03D1AF
:101D30000B4B01221A7006E0044B1B78022B02D1D8
:101D4000084B01221A703037BD4680BDDA1F0120D2
:101D5000D4850108D8820108D41D0120D48401084B
:101D6000D21F0120D61F012080B58CB000AF002308
:101D70007B600023BB6005233B7133237B71082309
:101D80003B620023BB6140F2FF733B610023FB61B8
:101D9000002387F824301C4815F0E8F90023FB6283
:101DA0000AE03A1DFB6A13441B781946174815F0E0
:101DB000DDF9FB6A0133FB62FB6A072BF1DD0A20C8
:101DC00015F0E6F907F10C033A1D07F11001104870
:101DD00001F0BEFA034687F82B3097F82B30002B22
:101DE00003D00C4815F032FA0BE000BFFB6819462F
:101DF000074801F07DFB0346002BF7D1064B01227B
:101E00001A703037BD4680BDEC850108D8820108C4
:101E1000D41D0120D4840108D31F012080B588B0CF
:101E200002AFF860B9607A60BB681B78BB750023AD
:101E3000FB75BB7D3A2B71D15C4B1B78002B03D11A
:101E40005B4B1B78012B29D05A4B1B78002B65D19B
:101E5000574B1B78022B61D120E0FA7DBB681344FD
:101E60001A46FB7D1278D1B2534AD154FB7D524AB7
:101E7000D35C1946514815F079F9FB7D4E4AD35C85
:101E80003A2B08D1FB7D002B05D0FA7DBB681344AB
:101E90004B4A136005E0FB7D0133FB75FB7D4D2B49
:101EA000DBD9BB7D1946474815F060F9FB7D424AF6
:101EB0000021D1540121404800F008FA03461A4697
:101EC000414B1A7107213C4800F000FA03461A46BC
:101ED0003D4B5A70384800F057F903461A463A4BC2
:101EE000DA80394B1B79002B09D1374B5B78012BFA
:101EF00005D1364B01221A70354B01221A70324B34
:101F00005B78042B0FD12C4800F05BF903461A468E
:101F10002D4B1A812F4B01221A7004E0BB7D19460C
:101F20002D4815F023F92B4B1B78012B3AD1264B6A
:101F30001B795B00DBB209337B75234B1979224B8C
:101F40005B787A7D00930B4624491B4800F056F9D4
:101F50001D4B1B795B00DBB209333B753B7D19469A
:101F60001E4800F061F903461A461D4B1A70164BC5
:101F700005221A70144B5B8801339AB2124B5A80B7
:101F8000FFF748FD104B5B78002B0BD10121134864
:101F900000F09CF90346FB74FB7C1A460F49F86875
:101FA000FFF78EFC00BF1837BD4680BDD01F012053
:101FB000DA1F0120D41F0120F41E0120048601082D
:101FC0000400002008860108D4200120941F01206D
:101FD000D81F0120E11F012018860108441F01209D
:101FE000931F012090B59BB000AF78603960634BC0
:101FF0007B660023FB6007F110034B22002118468B
:1020000015F014FA0023BB60002387F86030ABE0C2
:102010007B6E1B7887F85F3097F85F303A2B5AD188
:10202000002387F863302DE097F863207B6E13441C
:102030001A4697F863301278D2B268333B4403F8FB
:102040005C2C97F8633068333B4413F85C3C1946CA
:102050004B4815F08BF897F8633068333B4413F81E
:102060005C3C3A2B09D197F86330002B05D097F8E8
:1020700063307A6E13447B6608E097F8633001336F
:1020800087F8633097F863304D2BCDD997F86330DC
:1020900068333B44002203F85C2C0A2015F078F8E2
:1020A00007F10C030721184600F010F9034687F8E2
:1020B0005E3007F10C03184600F066F803463B81DA
:1020C00097F85E30042B06D107F10C03184600F098
:1020D00078F803467B813B8944F20402934243D162
:1020E0007B89082B40D107F10C030121184600F031
:1020F000EDF8034687F85D30002387F8623000234F
:1021000087F86130092387F86230002387F861304F
:1021100020E097F861303A68D41897F8622007F108
:102120000C031146184600F0D1F80346237097F8C7
:1021300061303A6813441B781946124815F016F8B6
:1021400097F86230023387F8623097F861300133D4
:1021500087F8613097F8612097F85D309A42D8D3BC
:10216000012387F8603005E097F86030002B3FF4DA
:102170004FAF00BF00BF6C37BD4690BD08000808D8
:10218000048601083C86010880B584B000AF786001
:102190000521786800F09AF80346FB7303217868FC
:1021A00000F094F80346BB73BB7B1B021AB2FB7BA7
:1021B0001BB213431BB2BB81BB8918461037BD4607
:1021C00080BD80B584B000AF78600B21786800F0E6
:1021D0007DF80346FB730921786800F077F8034621
:1021E000BB73BB7B1B021AB2FB7B1BB213431BB23C
:1021F000BB81BB8918461037BD4680BD80B584B011
:1022000000AFF860B96011461A460B46FB711346E1
:10221000BB71FB7902331A46F968B86815F0E1F929
:1022200000BF1037BD4680BD80B59AB000AF786062
:102230003960002387F86730002387F85F30002378
:10224000FB6007F110034B220021184615F0EEF851
:102250003B68DBB21946786800F038F8034687F827
:102260005E3001233B661AE03B6EDBB219467868AC
:1022700000F02CF80346194607F10C023B6E13449C
:102280000A461A7007F10C023B6E13441A7897F84D
:102290006730134487F867303B6E02333B663A6E13
:1022A0003B689A42E0D397F867305B4287F85F302B
:1022B00097F85E2097F85F309A4202D197F85F3026
:1022C00000E0FF2318466837BD4680BD80B485B066
:1022D00000AF78600B46FB700023FB73FB78BB609C
:1022E00035E0BB687A6813441B782F2B13D9BB6881
:1022F0007A6813441B78392B0DD8FB7B1B015AB22B
:10230000BB6879680B441B78303BDBB25BB213438C
:102310005BB2FB7318E0BB687A6813441B78402BF0
:1023200012D9BB687A6813441B78462B0CD8FB7B08
:102330001B015AB2BB6879680B441B78373BDBB290
:102340005BB213435BB2FB73BB680133BB60FB78CA
:102350000133BA689A42C4DDFB7B18461437BD4688
:102360005DF8047B7047000080B582B000AF0023A9
:102370007B6000233B60254B1B78012B0BD1244B4A
:102380001B687B607968234814F0F0FE7A68224B62
:1023900013443B600FE01D4B1B78022B0BD14FF019
:1023A00001631B687B6079681A4814F0DFFE7A6865
:1023B0001A4B13443B607B68002B23D03B68002BF7
:1023C00020D016E0164B1B78002B03D10F4B1B7847
:1023D000012B07D0134B1B78002B0AD10B4B1B781A
:1023E000022B06D1104B1B68104A19461048FFF704
:1023F00015FD0D4B1B683A689A4203D90D4B1B78AB
:10240000012BDFD100BF0837BD4680BDDA1F012098
:10241000000008084886010808000808080010089D
:10242000D01F0120D41F012004000020C81C01205F
:10243000D41D0120941F012080B582B000AF7860C8
:1024400006F0A4FC012007F0E2FBFBE780B586B0B4
:1024500000AF78604D4B08221A614C4B00229A6005
:102460004A4B0022DA60494B40F2FF121A60474B98
:1024700000221A75464B08221A61454B00229A60C9
:10248000434B0022DA60424B40F2FF321A60404B6D
:1024900000221A753F4B404A5A603E4B04229A6014
:1024A0003C4B0022DA603B4B00221A754FF4FA7065
:1024B00007F0ADFB01222021384803F075FB384BB3
:1024C0001B78012B03D1374B1B78002B07D1344BE2
:1024D0001B78022B08D1334B9B78002B04D0324859
:1024E00014F0B4FEFFF718FB304B1B78012B02D120
:1024F000FFF7C4FB33E02E4B1B78012B2FD107F1E4
:1025000008032C491846FEF731FC254B1B78012B9C
:102510000CD1294B02221A60274B00229A60FB68DB
:10252000254A53607B69244AD3600FE01C4B1B781B
:10253000022B0BD1BB68204A13603B691E4A936093
:102540001D4B02225A601C4B0022DA601948FEF72C
:1025500099FB18491848FEF7E0FBFFF705FC174BFD
:102560001B78012B09D0164B1B78002B05D1154B7E
:102570001B78012B01D1FFF7F7FE0022202107482D
:1025800003F012FB012007F042FB93E7E41F012058
:1025900014200120FC1F012000BC020C000002409E
:1025A000DA1F0120A41C012080860108D71F01200A
:1025B000D81F012000001C08E0200120941F0120EA
:1025C000D01F0120D91F012080B582B000AF7860F4
:1025D000154814F03BFE154814F038FEFFF706F9D5
:1025E000134814F033FEFEF78FFAFFF7FFF8FEF7FB
:1025F0001BFAFFF7FBF8012240210E4803F0D4FA42
:102600000D4B1B78002B05D0FDF7E2FFFFF7EEF82E
:10261000FEF74AF800224021064803F0C5FA0120DF
:1026200007F0F5FAE7E700BF94860108A8860108DD
:10263000B886010800000240F019012080B582B080
:1026400000AF78607B681B68044A934201D100F0B8
:1026500003FC00BF0837BD4680BD00BF001000402E
:1026600080B400AF72B600BF00BFFDE780B582B096
:1026700000AF114B1B6C104A43F0805313640E4B98
:102680001B6C03F080537B607B680B4B5B6C0A4ACE
:1026900043F480435364084B5B6C03F480433B601A
:1026A0003B6800220F216FF0010001F075FB00BFB5
:1026B0000837BD4680BD00BF0038024080B58AB0F3
:1026C00000AF786007F1140300221A605A609A6024
:1026D000DA601A617B681B681F4A934237D11F4B2F
:1026E0001B6C1E4A43F0007313641C4B1B6C03F0FD
:1026F00000733B613B69194B1B6B184A43F008039D
:102700001363164B1B6B03F00803FB60FB6803238A
:102710007B610223BB610023FB6103233B6209232E
:102720007B6207F1140319460D4803F091F800226B
:102730000521132001F030FB132001F049FB00229A
:102740000521142001F028FB142001F041FB00BFFB
:102750002837BD4680BD00BF0064004000380240FD
:10276000000C024080B58AB000AF786007F1140316
:1027700000221A605A609A60DA601A617B681B68EE
:10278000174A934227D1174B5B6C164A43F4005308
:102790005364144B5B6C03F400533B613B69114B76
:1027A0001B6B104A43F0100313630E4B1B6B03F0BB
:1027B0001003FB60FB6864237B610223BB61002381
:1027C000FB6103233B6205237B6207F11403194677
:1027D000054803F03DF800BF2837BD4680BD00BF67
:1027E00000340140003802400010024080B5AEB015
:1027F00000AF786007F1A40300221A605A609A6063
:10280000DA601A6107F1140390220021184614F0CF
:102810000DFE7B681B68224A93423CD14FF48073C3
:102820007B6100233B6607F11403184603F0DCFECE
:102830000346002B01D0FFF713FF1A4B1B6C194AFC
:1028400043F480231364174B1B6C03F480233B6118
:102850003B69144B1B6B134A43F008031363114B82
:102860001B6B03F00803FB60FB684FF44073C7F871
:10287000A4300223C7F8A8300023C7F8AC300323E4
:10288000C7F8B0300723C7F8B43007F1A4031946DE
:10289000054802F0DDFF00BFB837BD4680BD00BF70
:1028A0000048004000380240000C024080B58EB065
:1028B00000AF78600023FB620023BB62334B1B6CCC
:1028C000324A43F010031364304B1B6C03F01003C7
:1028D000FB60FB6807F1100207F11403114618466C
:1028E00003F050FE3B6AFB62FB6A002B03D103F04E
:1028F00021FE786304E003F01DFE03465B007B636A
:102900007B6B234AA2FB03239B0C013BBB62214B45
:10291000214A1A601F4B40F2E732DA601D4ABB6A57
:1029200053601C4B00221A611A4B00229A60194B0B
:1029300000229A61174805F0FDF9034687F8333005
:1029400097F83330002B1BD1124805F055FA034697
:1029500087F8333097F83330002B11D1362001F04F
:1029600037FA7B680F2B08D800227968362001F0EF
:1029700013FA0A4A7B68136002E0012387F83330B8
:1029800097F8333018463837BD4680BD00380240CE
:1029900083DE1B43F0200120001000400C000020CB
:1029A00080B400AF00BFFDE780B400AF00BFFDE71B
:1029B00080B400AF00BFFDE780B400AF00BFFDE70B
:1029C00080B400AF00BFFDE780B400AF00BFBD46DC
:1029D0005DF8047B7047000080B500AF024800F04E
:1029E000F3FE00BF80BD00BFD41D012080B500AF45
:1029F000024800F0E9FE00BF80BD00BFD41D0120E9
:102A000080B500AF024805F06FFA00BF80BD00BF7F
:102A1000F020012080B500AF024801F075FD00BF35
:102A200080BD00BF406B012080B400AF0123184679
:102A3000BD465DF8047B704780B483B000AF78601A
:102A40003960054B16221A604FF0FF3318460C37D9
:102A5000BD465DF8047B704758F3052080B582B011
:102A600000AF78604FF0FF317868FFF7E5FF00BFF7
:102A7000FDE780B586B000AFF860B9607A600023EA
:102A80007B610AE0AFF300800146BB685A1CBA6064
:102A9000CAB21A707B6901337B617A697B689A429A
:102AA000F0DB7B6818461837BD4680BD80B586B020
:102AB00000AFF860B9607A6000237B6109E0BB6811
:102AC0005A1CBA601B781846FEF7CAF87B690133B6
:102AD0007B617A697B689A42F1DB7B68184618371C
:102AE000BD4680BD80B483B000AF78604FF0FF3347
:102AF00018460C37BD465DF8047B704780B483B040
:102B000000AF786039603B684FF400525A60002390
:102B100018460C37BD465DF8047B704780B483B01F
:102B200000AF7860012318460C37BD465DF8047B82
:102B3000704780B485B000AFF860B9607A60002358
:102B400018461437BD465DF8047B704780B487B0E3
:102B500000AF7860144A154BD31A7B617B693B61E7
:102B6000134B1B68002B02D1114B124A1A60104BF9
:102B70001A687B6813443A699A4205D20E4B0C22BC
:102B80001A604FF0FF3309E0094B1B68FB60084BEC
:102B90001A687B681344064A1360FB6818461C37A2
:102BA000BD465DF8047B704700000820000400006B
:102BB0003C21012060F3052058F3052080B400AFCC
:102BC000064BD3F88830054A43F47003C2F88830C6
:102BD00000BFBD465DF8047B704700BF00ED00E01C
:102BE000DFF834D0FFF7EAFF0C480D490D4A002307
:102BF00002E0D458C4500433C4188C42F9D30A4AB2
:102C00000A4C002301E013600432A242FBD314F00B
:102C1000C1FCFEF7F3FB7047000008200000002015
:102C20009400002058B50108D419012060F3052054
:102C3000FEE780B483B000AF786039607B68002B1A
:102C40000BD03B68DB68002B07D03B689B68002BF0
:102C500003D03B681B69002B02D14FF0FF3314E017
:102C60003B681A687B689A603B685A687B68DA60E0
:102C70003B68DA687B685A613B689A687B681A61CE
:102C80003B681A697B689A61002318460C37BD4679
:102C90005DF8047B704780B586B000AF7860002394
:102CA000FB6000237B6100233B617B685B68002B3A
:102CB00039D17B689B68002B02D07B689B68984762
:102CC0007B6820221A6000237B611CE07B685B69C3
:102CD00007F10C021221786998470346002B03DAAA
:102CE0006FF004033B610BE0FB6803F01F037A699C
:102CF0009A4205D17B687A691A6000233B6105E03E
:102D00007B6901337B617B691F2BDFD97B681B6883
:102D10001F2B02D96FF002033B613B69002B02D1EC
:102D20007B6801225A603B6918461837BD4680BD52
:102D300080B584B000AF78600023FB607B685B697E
:102D40007A68106807F10C02012198470346002BAE
:102D500002DA6FF004036EE07B685B697A681068E2
:102D600007F10C02012198470346002B02DA6FF0AD
:102D7000040360E0FB6803F00403002B01D101238E
:102D800059E07B685B697A68106807F10C020021E2
:102D900098470346002B02DA6FF004034BE0FB6810
:102DA00003F48053002B1BD1FB6803F40053002B6A
:102DB00006D0FB6803F48073002B01D002233AE0B5
:102DC000FB6803F40053002B01D0032333E0FB68BE
:102DD00003F48073002B01D004232CE005232AE0A8
:102DE0007B685B697A68106807F10C021F219847BD
:102DF0000346002B02DA6FF004031CE0FB6803F4C7
:102E00008053002B01D1062315E0FB6803F01C035F
:102E1000182B01D102230EE0FB6803F01C03082BE2
:102E200001D1032307E0FB6803F01C03142B01D13D
:102E3000042300E0052318461037BD4680BD80B549
:102E400000AF032000F09DFF0F20FFF72FFDFFF7DD
:102E50000DFC0023184680BD80B400AF064B1B78E4
:102E60001A46064B1B681344044A136000BFBD4654
:102E70005DF8047B704700BF100000204021012056
:102E800080B400AF034B1B681846BD465DF8047B59
:102E9000704700BF4021012080B584B000AF78604A
:102EA000FFF7EEFFB8607B68FB60FB68B3F1FF3FA4
:102EB00005D00A4B1B781A46FB681344FB6000BF21
:102EC000FFF7DEFF0246BB68D31AFA689A42F7D8CA
:102ED00000BF00BF1037BD4680BD00BF10000020FE
:102EE00080B400AF034B1B681B0C1846BD465DF851
:102EF000047B7047002004E080B584B000AF7860A8
:102F00007B68002B01D10123EDE07B6893F8203032
:102F1000DBB2002B02D17868FFF7D0FB7B681B681F
:102F20001A687B681B6842F001021A60FFF7A8FF6D
:102F3000F86012E0FFF7A4FF0246FB68D31A0A2BE1
:102F40000BD97B685B6A43F400327B685A627B680A
:102F5000052283F820200123C5E07B681B685B689D
:102F600003F00103002BE5D07B681B681A687B68BF
:102F70001B6822F002021A60FFF782FFF86012E07D
:102F8000FFF77EFF0246FB68D31A0A2B0BD97B683A
:102F90005B6A43F400327B685A627B68052283F8DF
:102FA000202001239FE07B681B685B6803F002031D
:102FB000002BE5D17B681B7E012B08D17B681B6849
:102FC0001A687B681B6842F080021A6007E07B6821
:102FD0001B681A687B681B6822F080021A607B6895
:102FE0005B7E012B08D17B681B681A687B681B68B5
:102FF00042F040021A6007E07B681B681A687B6831
:103000001B6822F040021A607B689B7E012B08D16E
:103010007B681B681A687B681B6842F020021A6094
:1030200007E07B681B681A687B681B6822F0200237
:103030001A607B68DB7E012B08D17B681B681A68ED
:103040007B681B6822F010021A6007E07B681B682F
:103050001A687B681B6842F010021A607B681B7F4D
:10306000012B08D17B681B681A687B681B6842F0DB
:1030700008021A6007E07B681B681A687B681B6897
:1030800022F008021A607B685B7F012B08D17B6805
:103090001B681A687B681B6842F004021A6007E02C
:1030A0007B681B681A687B681B6822F004021A6040
:1030B0007B689A687B68DB681A437B681B691A43E4
:1030C0007B685B6942EA03017B685B685A1E7B6828
:1030D0001B680A43DA617B6800225A627B6801221E
:1030E00083F82020002318461037BD4680BD00001D
:1030F00080B487B000AF786039607B681B687B6103
:103100007B6893F82030FB74FB7C012B03D0FB7CA5
:10311000022B40F0C7807B681B68694A934201D04C
:10312000684B7B617B69D3F8003243F001027B6915
:10313000C3F800227B69634A934211D17B69D3F8BB
:10314000003223F47C527B69C3F800227B69D3F8F8
:1031500000223B685B6A1B021A437B69C3F80022AA
:103160003B685B6903F01F03012202FA03F3FB6073
:103170007B69D3F81C22FB68DB431A407B69C3F8E8
:103180001C223B68DB69002B23D17B69D3F80C221E
:10319000FB68DB431A407B69C3F80C223B68DB68A1
:1031A00019043B685B689BB23A68526919437B69B2
:1031B000483243F832103B689B6819043B681B682F
:1031C0009AB23B685B690A4379694833DB000B4478
:1031D0005A603B68DB69012B22D17B69D3F80C2252
:1031E000FB681A437B69C3F80C223B681B6819040F
:1031F0003B685B689BB23A68526919437B69483205
:1032000043F832103B689B6819043B68DB689AB24C
:103210003B685B690A4379694833DB000B445A60B9
:103220003B689B69002B09D17B69D3F80422FB68BA
:10323000DB431A407B69C3F8042207E07B69D3F8BB
:103240000422FB681A437B69C3F804223B681B69AC
:10325000002B09D17B69D3F81422FB68DB431A40A9
:103260007B69C3F8142207E07B69D3F81422FB685A
:103270001A437B69C3F814223B681B6A012B07D1F0
:103280007B69D3F81C22FB681A437B69C3F81C22B4
:103290007B69D3F8003223F001027B69C3F8002276
:1032A000002306E07B685B6A43F480227B685A62F5
:1032B000012318461C37BD465DF8047B704700BFEC
:1032C000003400400064004080B584B000AF7860F6
:1032D0007B6893F82030DBB2012B2ED17B68022271
:1032E00083F820207B681B681A687B681B6822F0C3
:1032F00001021A60FFF7C4FDF86012E0FFF7C0FD9D
:103300000246FB68D31A0A2B0BD97B685B6A43F42D
:1033100000327B685A627B68052283F820200123F3
:1033200012E07B681B685B6803F00103002BE5D1AA
:103330007B6800225A62002306E07B685B6A43F4E4
:1033400000227B685A62012318461037BD4680BDB3
:1033500080B489B000AFF860B9607A603B60FB6808
:1033600093F82030FB77FB681B689B68BB61FB7F91
:10337000012B03D0FB7F022B40F0AD80BB6903F033
:103380008063002B0AD1BB6903F00063002B05D1D9
:10339000BB6903F08053002B00F09580BB691B0EC6
:1033A00003F003037B6101227B699A403B681A604A
:1033B000BB689B68002B0DD1BB681B685A05BB68B6
:1033C000DB68F96809681A437B6918331B010B44F1
:1033D0001A600FE0BB685B68DA00BB689B681A4341
:1033E000BB68DB68F96809681A437B6918331B01FD
:1033F0000B441A60FB681968BB681A697B6918334B
:103400001B010B4404331A60BB681B7D012B11D1D7
:10341000FB681A687B6918331B01134404331B686B
:10342000FA68116843F480727B6918331B010B44FE
:1034300004331A607B6807331B781A067B680633EF
:103440001B781B041A437B6805331B781B0213434C
:103450007A68043212781046FA68116843EA00026A
:103460007B691B010B4403F5C6731A607B68033349
:103470001B781A067B6802331B781B041A437B688F
:1034800001331B781B0213437A6812781046FA68DE
:10349000116843EA00027B691B010B4403F5C47306
:1034A0001A60FB681A687B6918331B0113441B6898
:1034B000FA68116843F001027B6918331B010B4461
:1034C0001A6000230EE0FB685B6A43F40012FB689D
:1034D0005A62012306E0FB685B6A43F48022FB68C2
:1034E0005A62012318462437BD465DF8047B7047B5
:1034F00080B485B000AF786039600023FB607B68E2
:1035000093F82030FB72FB7A012B02D0FB7A022B5E
:103510000BD17B681B689A683B689B061A403B6826
:103520009B069A4201D00123FB60FB6818461437C2
:10353000BD465DF8047B704780B487B000AFF8608B
:10354000B9607A603B60FB6893F82030FB75FB7DC7
:10355000012B03D0FB7D022B40F00381BB68002BC5
:103560000ED1FB681B68DB6803F00303002B16D148
:10357000FB685B6A43F40012FB685A620123F7E0C0
:10358000FB681B681B6903F00303002B07D1FB6872
:103590005B6A43F40012FB685A620123E8E0FB68AF
:1035A0001A68BB681B331B0113441B6803F0040239
:1035B0007B689A607B689B68002B0CD1FB681A685B
:1035C000BB681B331B0113441B685B0DC3F30A026A
:1035D0007B681A600BE0FB681A68BB681B331B0131
:1035E00013441B68DB0823F060427B685A60FB6869
:1035F0001A68BB681B331B0113441B6803F00202EB
:103600007B68DA60FB681A68BB681B331B011344D4
:1036100004331B6803F00803002B03D07B680822E7
:103620001A610BE0FB681A68BB681B331B0113446B
:1036300004331B6803F00F027B681A61FB681A6889
:10364000BB681B331B01134404331B681B0ADAB22B
:103650007B689A61FB681A68BB681B331B011344C3
:1036600004331B681B0C9AB27B685A61FB681A68AA
:10367000BB681B01134403F5DC731B68DAB23B68BB
:103680001A70FB681A68BB681B01134403F5DC73EE
:103690001B681A0A3B680133D2B21A70FB681A68B9
:1036A000BB681B01134403F5DC731B681A0C3B68F1
:1036B0000233D2B21A70FB681A68BB681B0113444C
:1036C00003F5DC731B681A0E3B680333D2B21A7021
:1036D000FB681A68BB681B01134403F5DE731A68A4
:1036E0003B680433D2B21A70FB681A68BB681B01CE
:1036F000134403F5DE731B681A0A3B680533D2B224
:103700001A70FB681A68BB681B01134403F5DE736B
:103710001B681A0C3B680633D2B21A70FB681A6831
:10372000BB681B01134403F5DE731B681A0E3B686C
:103730000733D2B21A70BB68002B08D1FB681B6834
:10374000DA68FB681B6842F02002DA6007E0FB6879
:103750001B681A69FB681B6842F020021A6100238B
:1037600006E0FB685B6A43F48022FB685A6201232F
:1037700018461C37BD465DF8047B704780B485B0A1
:1037800000AF786039607B6893F82030FB73FB7B77
:10379000012B02D0FB7B022B09D17B681B68596986
:1037A0007B681B683A680A435A61002306E07B681D
:1037B0005B6A43F480227B685A62012318461437FF
:1037C000BD465DF8047B704780B58AB000AF786075
:1037D00000237B627B681B685B693B627B681B68BC
:1037E0005B68FB617B681B689B68BB617B681B68CF
:1037F000DB687B617B681B681B693B617B681B68BE
:103800009B69FB603B6A03F00103002B7CD0BB6922
:1038100003F00103002B23D07B681B6801229A6010
:10382000BB6903F00203002B03D0786800F083F932
:1038300016E0BB6903F00403002B04D07B6A43F459
:1038400000637B620CE0BB6903F00803002B04D02B
:103850007B6A43F480537B6202E0786800F089F968
:10386000BB6903F48073002B24D07B681B684FF482
:1038700080729A60BB6903F40073002B03D07868F0
:1038800000F063F916E0BB6903F48063002B04D0F9
:103890007B6A43F400537B620CE0BB6903F4006372
:1038A000002B04D07B6A43F480437B6202E078689B
:1038B00000F069F9BB6903F48033002B24D07B68E6
:1038C0001B684FF480329A60BB6903F40033002B0D
:1038D00003D0786800F043F916E0BB6903F4802355
:1038E000002B04D07B6A43F400437B620CE0BB698D
:1038F00003F40023002B04D07B6A43F480337B6203
:1039000002E0786800F049F93B6A03F00803002BF5
:103910000CD07B6903F01003002B07D07B6A43F4C3
:1039200000737B627B681B681022DA603B6A03F0DD
:103930000403002B0BD07B6903F00803002B06D097
:103940007B681B680822DA60786800F030F93B6A0F
:1039500003F00203002B09D07B681B68DB6803F0CF
:103960000303002B02D07868FDF7C4FA3B6A03F02A
:103970004003002B0CD03B6903F01003002B07D051
:103980007B6A43F480637B627B681B6810221A6148
:103990003B6A03F02003002B0BD03B6903F00803C4
:1039A000002B06D07B681B6808221A61786800F03B
:1039B00012F93B6A03F01003002B09D07B681B68E7
:1039C0001B6903F00303002B02D0786800F0F9F8BC
:1039D0003B6A03F40033002B0BD0FB6903F01003A8
:1039E000002B06D07B681B6810225A60786800F0B4
:1039F000FCF83B6A03F48033002B0BD0FB6903F027
:103A00000803002B06D07B681B6808225A60786880
:103A100000F0F5F83B6A03F40043002B7BD0FB6910
:103A200003F00403002B72D03B6A03F48073002B75
:103A300008D0FB6803F00103002B03D07B6A43F03E
:103A400001037B623B6A03F40073002B08D0FB6820
:103A500003F00203002B03D07B6A43F002037B6276
:103A60003B6A03F48063002B08D0FB6803F0040377
:103A7000002B03D07B6A43F004037B623B6A03F4B0
:103A80000063002B43D0FB6803F07003002B3ED093
:103A9000FB6803F07003602B2BD0602B2ED8502BCB
:103AA00022D0502B2AD8402B19D0402B26D8302B8F
:103AB00010D0302B22D8102B02D0202B05D01DE0A7
:103AC0007B6A43F008037B6219E07B6A43F01003D2
:103AD0007B6214E07B6A43F020037B620FE07B6A29
:103AE00043F040037B620AE07B6A43F080037B6221
:103AF00005E07B6A43F480737B6200E000BF7B6873
:103B00001B689A697B681B6822F070029A617B6867
:103B10001B6804225A607B6A002B08D07B685A6AB3
:103B20007B6A1A437B685A62786800F072F800BFBB
:103B30002837BD4680BD80B483B000AF786000BF39
:103B40000C37BD465DF8047B704780B483B000AF8E
:103B5000786000BF0C37BD465DF8047B704780B4C9
:103B600083B000AF786000BF0C37BD465DF8047BC2
:103B7000704780B483B000AF786000BF0C37BD469B
:103B80005DF8047B704780B483B000AF786000BFFD
:103B90000C37BD465DF8047B704780B483B000AF3E
:103BA000786000BF0C37BD465DF8047B704780B479
:103BB00083B000AF786000BF0C37BD465DF8047B72
:103BC000704780B483B000AF786000BF0C37BD464B
:103BD0005DF8047B704780B483B000AF786000BFAD
:103BE0000C37BD465DF8047B704780B483B000AFEE
:103BF000786000BF0C37BD465DF8047B704780B429
:103C000083B000AF786000BF0C37BD465DF8047B21
:103C1000704780B483B000AF786000BF0C37BD46FA
:103C20005DF8047B7047000080B485B000AF786019
:103C30007B6803F00703FB600B4BDB68BB60BA6873
:103C40004FF6FF031340BB60FB681A02BB681A43C0
:103C5000064B1343BB60044ABB68D36000BF1437F4
:103C6000BD465DF8047B704700ED00E00000FA05FA
:103C700080B400AF044BDB681B0A03F0070318464F
:103C8000BD465DF8047B704700ED00E080B483B072
:103C900000AF0346FB7197F90730002B0BDBFB7974
:103CA00003F01F02074997F907305B09012000FA6A
:103CB00002F241F8232000BF0C37BD465DF8047BBB
:103CC000704700BF00E100E080B483B000AF03465E
:103CD0003960FB7197F90730002B0ADB3B68DAB2D9
:103CE0000C4997F907301201D2B20B4483F8002334
:103CF0000AE03B68DAB20849FB7903F00F03043BA2
:103D00001201D2B20B441A7600BF0C37BD465DF8E3
:103D1000047B704700E100E000ED00E080B489B072
:103D200000AFF860B9607A60FB6803F00703FB61DD
:103D3000FB69C3F10703042B28BF0423BB61FB69A4
:103D40000433062B02D9FB69033B00E000237B61AF
:103D50004FF0FF32BB6902FA03F3DA43BB681A4043
:103D60007B699A404FF0FF317B6901FA03F3D94335
:103D70007B680B40134318462437BD465DF8047B2F
:103D8000704780B582B000AF78607868FFF74CFF6D
:103D900000BF0837BD4680BD80B586B000AF034682
:103DA000B9607A60FB7300237B61FFF761FF786184
:103DB0007A68B9687869FFF7B1FF024697F90F3062
:103DC00011461846FFF780FF00BF1837BD4680BD7B
:103DD00080B582B000AF0346FB7197F907301846F3
:103DE000FFF754FF00BF0837BD4680BD80B584B0E3
:103DF00000AF78607B68002B01D1012386E07B68EF
:103E0000D3F88430002B06D17B682322C3F88420AA
:103E1000786805F015FC3F4B5B6C3E4A43F48043E9
:103E200053643C4B5B6C03F48043BB60BB683A4B10
:103E30005B68394A23F400035360374B5A687B6848
:103E40009B68354913434B60334B5B687B681B6849
:103E500003F580531B687A68126843F0010302F58A
:103E600080521360FFF70CF8F86011E0FFF708F8D4
:103E70000246FB68D31AB3F5FA7F09D97B6804229E
:103E8000C3F888207B68E022C3F8842001233DE04A
:103E90007B681B6803F580531B6803F00103002B4C
:103EA000E4D1786800F05CFF786801F007F8786882
:103EB00001F05DF87B685B681A460021786800F0C5
:103EC000C5FF7B681B68DA6B7B681B6842F4027273
:103ED000DA637B681B68D3F80C117B681A680F4B98
:103EE0000B43C2F80C317B681B68D3F810217B6848
:103EF0001B6842F40312C3F810217B680022C3F848
:103F000088207B681022C3F88420002318461037CD
:103F1000BD4680BD0038024000380140600002000C
:103F200080B584B000AF78607B68D3F88430102B04
:103F30005FD17B682322C3F884207B6801229A65C5
:103F40007B680422DA66786800F0F6F97B681B6803
:103F50001B68FB600120FEF79FFF7B681B68FA6807
:103F60001A607B681B6803F580539B697A68126846
:103F700043F4005302F5805293617B681B6803F59C
:103F800080539B697A68126843F0020302F58052FD
:103F90009361786800F080FD7B681B681A687B6815
:103FA0001B6842F008021A607B681B681B68FB6094
:103FB0000120FEF771FF7B681B68FA681A607B6856
:103FC0001B681A687B681B6842F004021A607B68F1
:103FD0001B6803F58053D9697B681A68074B0B434C
:103FE00002F58052D3617B682322C3F8842000232A
:103FF00000E0012318461037BD4680BDC1A0010076
:1040000080B586B000AF78607B68D3F88430232B0E
:104010006ED17B682322C3F884207B681B6803F57C
:104020008053D9697B681A68344B0B4002F5805283
:10403000D3617B681B6803F580539B697A681268BB
:1040400023F4005302F5805293617B681B6803F5EB
:1040500080539B697A68126823F0020302F580524C
:1040600093617B681B681A687B681B6822F00402F6
:104070001A607B681B681B683B610120FEF70CFF20
:104080007B681B683A691A60786800F005FD7B68F8
:104090001B681A687B681B6822F008021A607B683C
:1040A0001B681B683B610120FEF7F6FE7B681B68FE
:1040B0003A691A6000237B610EE07B687A691232EC
:1040C00053F82230FB60FB685B6843F00042FB68FA
:1040D0005A607B6901337B617B69032BEDD97B6877
:1040E00000229A657B681022C3F88420002300E038
:1040F000012318461837BD4680BD00BF3E5FFEFF56
:1041000080B582B000AF786039603B68002B09D180
:104110007B68D3F8883043F001027B68C3F88820BD
:10412000012345E07B68D3F88430232B3FD13B68E3
:104130005A6B7B68DA6301223968786800F086FF81
:104140000346002B09D07B68D3F8883043F0020285
:104150007B68C3F8882001232AE0BFF34F8F00BF9C
:104160007B689B6A5A1C7B689A627B689B6A032BFC
:1041700004D97B689B6A1A1F7B689A627B681B68FC
:1041800003F580535B6903F00403002B0DD07B68BB
:104190001B6803F580531A46042353617B681B6830
:1041A00003F580531A4600235360002300E00123E7
:1041B00018460837BD4680BD80B588B000AF78602E
:1041C000396000237B610023FB743B68002B09D11D
:1041D0007B68D3F8883043F001027B68C3F88820FD
:1041E0000123A4E07B68D3F88430232B01D0012382
:1041F0009DE07B68DB6DFB617B68FA69123253F8E6
:104200002230BB617B68DB6EC3F10403FB6066E0B8
:10421000BB691B6803F48073002B07D0BB69DA69A4
:104220007B689A67BB699A697B685A67BB691B6838
:1042300003F40073002B03D17B68DB6F002B3CD0B1
:10424000BB691B6803F40073002B05D07B68002258
:104250001A667B6800225A66BB691B681B0CC3F395
:104260000D03BB60BB691B6803F48073002B05D092
:10427000BB691A687B681A670123FB74BB699A687B
:10428000BB691A627B6803F17C007B6803F18001E3
:10429000BB691B6A1A46BB689BB205F09DFB7B6835
:1042A0001B6E5A1C7B681A667B685A6EBB681A4480
:1042B0007B685A66BB6900221A62FB690133FB61A5
:1042C000FB69032B02D9FB69043BFB617B68FA693C
:1042D000123253F82230BB617B6901337B61BB69C9
:1042E0001B68002B06DB7A69FB689A4202D2FB7CD2
:1042F000002B8DD07B68DA6E7B691A447B68DA66A6
:104300007B68DB6E002B02D0786800F015F87B68C4
:10431000FA69DA65FB7C012B08D17B68DA6F3B68B0
:104320001A607B680022DA67002300E00123184648
:104330002037BD4680BD000080B588B000AF7860F2
:104340000023BB600123FB747B689B6EFB617B6871
:10435000FA69123253F822307B617B68DB6EBB61F5
:1043600042E07B691B6A002B12D107F10803184653
:1043700005F002FBBB68002B02D10023FB7407E0B1
:10438000BB681A467B691A62BB681A467B699A60E9
:10439000FB7C002B28D07B689B6D002B06D17B68B3
:1043A0005A69264B13437A69536005E07B685B6961
:1043B00043F480427B695A607B691B6843F000428A
:1043C0007B691A60FB690133FB61FB69032B02D92E
:1043D000FB69043BFB617B68FA69123253F82230B7
:1043E0007B61BB69013BBB61BB69002B02D0FB7CDD
:1043F000002BB6D17B68DB6EBA699A421AD0FB6992
:10440000013303F00303FB60BFF35F8F00BF7B68E2
:104410001969FA6813469B001344DB00CA187B68CD
:104420001B6803F580539A607B68FA699A667B681B
:10443000BA69DA6600BF2037BD4680BD0040008003
:1044400080B586B000AF78607B681833BB60BB680E
:104450009B6A7B61BB68DB6A3B610123FB7347E0BE
:104460000123BB737B69013B7B61BA683B69043301
:104470009B0013445B68002B0AD13B6901333B610D
:104480003B69032B02D93B69043B3B610023BB73AF
:10449000BB7B002B2CD07B68D9683A6913469B0004
:1044A0001344DB000B441B68002B1FDBBA683B691D
:1044B00004339B0013445B68184605F0CFFABA68D2
:1044C0003B6904339B00134400225A603B6901336B
:1044D0003B613B69032B02D93B69043B3B61BB68F1
:1044E0007A699A62BB683A69DA6201E00023FB7379
:1044F0007B69002B02D0FB7B002BB1D10023184637
:104500001837BD4680BD000080B586B000AF78602A
:104510007B681B689B6B7B617B681B6803F5805322
:104520005B693B617B681B6803F58053DB69FB605B
:104530004B4B5B69BB603B6903F04003002B0ED023
:10454000FB6803F04003002B09D07B681B6803F570
:1045500080531A46434B5361786804F085FD3B69EC
:1045600003F00103002B0FD0FB6803F00103002BC5
:104570000AD07B681B6803F580531A464FF001137D
:104580005361786804F080FD3B6903F40043002B1D
:1045900042D0FB6803F40043002B3DD07B68D3F886
:1045A000883043F008027B68C3F888203B6903F435
:1045B0000053002B1AD07B681B6803F580535A699F
:1045C000294B13407A68C2F88C307B681B6803F56E
:1045D0008053DB697A68126823F4C03302F5805295
:1045E000D3617B68E022C3F8842012E07B681B68FB
:1045F00003F580535A6948F2806313407A68C2F821
:104600008C307B681B6803F580531A4648F2806340
:104610005361786804F048FD7B6903F00803002BC0
:104620000ED07B681B68DB6A03F060027B68C3F80E
:104630009420786800F01AF87B680022C3F8942070
:10464000BB6803F40023002B06D0054B4FF4002277
:104650005A61786800F014F800BF1837BD4680BD75
:10466000003C01404000010000207E0080B483B087
:1046700000AF786000BF0C37BD465DF8047B704723
:1046800080B483B000AF786000BF0C37BD465DF8E2
:10469000047B704780B586B000AFF860B9607A607F
:1046A0003B60FB681B681B697B617B6903F01C0333
:1046B0007B61BB68DB029BB27A6913437B617B68D9
:1046C0009B0103F4F8637A6913437B617B6923F0F0
:1046D00002037B617B6943F001037B61FB681B681C
:1046E0007A691A61FEF7CCFB38610DE0FEF7C8FB72
:1046F00002463B69D31AB3F5803F01D3012310E092
:10470000FB681B681B697B617B6903F00103002B5D
:10471000ECD1FB681B685B699BB21A463B681A6068
:10472000002318461837BD4680BD80B586B000AF5F
:10473000F860B9607A603B60FB681B681B697B614D
:104740007B6903F01C037B61BB68DB029BB27A6967
:1047500013437B617B689B0103F4F8637A6913431D
:104760007B617B6943F002037B617B6943F001035A
:104770007B613B689AB2FB681B685A61FB681B68E7
:104780007A691A61FEF77CFB38610DE0FEF778FB71
:1047900002463B69D31AB3F5803F01D3012309E0F8
:1047A000FB681B681B697B617B6903F00103002BBD
:1047B000ECD1002318461837BD4680BD80B483B0C5
:1047C00000AF786039603B68002B01D10123E6E03F
:1047D0007B681B681B6803F01003002B14BF0123C8
:1047E0000023DBB21A463B6883F828207B681B68ED
:1047F0001B6803F060023B685A627B681B681B6899
:1048000003F40073002B0CBF01230023DBB21A4614
:104810003B6883F820207B681B681B6803F48033A7
:10482000002B14BF01230023DBB21A463B68DA7762
:104830007B681B681B6803F40053002B0CBF01232B
:104840000023DBB21A463B689A777B681B681B68BB
:1048500003F48053002B14BF01230023DBB21A465C
:104860003B681A777B681B681B6803F400623B682F
:104870009A617B681B681B6803F480423B685A613D
:104880007B681B681B6803F48003002B0CBF0123AB
:104890000023DBB21A463B685A747B681B681B68AE
:1048A00003F40003002B0CBF01230023DBB21A46E4
:1048B0003B681A747B681B681B6803F08003002B3D
:1048C00014BF01230023DBB21A463B68DA737B680E
:1048D0001B681B6803F460223B689A607B681B6856
:1048E0001B6803F48063002B14BF01230023DBB299
:1048F0001A463B681A717B681B681B6803F00073DB
:10490000002B14BF01230023DBB21A463B689A73C5
:104910007B681B689B6903F00203002B14BF012313
:104920000023DBB21A463B6883F854207B681B687F
:104930009B6903F08003002B0CBF01230023DBB233
:104940001A463B6883F84C207B681B689B6903F020
:1049500030023B681A657B681B689B691B0C9AB226
:104960003B689A647B681B689B6903F00403002B17
:1049700014BF01230023DBB21A463B6883F856209C
:104980007B681B689B6903F00803002B14BF01239D
:104990000023DBB21A463B6883F8552000231846F3
:1049A0000C37BD465DF8047B704780B582B000AF20
:1049B000786039603B68002B01D101230BE07B68F4
:1049C000D3F88430102B05D13968786800F08AF864
:1049D000002300E0012318460837BD4680BD0000D3
:1049E00080B584B000AF78607B681B681B69FB6092
:1049F000FB6823F01C03FB6001F090FDB860BB680E
:104A0000144A934204D8FB6843F00803FB6019E0A2
:104A1000BB68114A934204D2FB6843F00C03FB606D
:104A200010E0BB680D4A93420CD9BB680C4A934214
:104A300004D8FB6843F00403FB6003E0FB6843F029
:104A40001003FB607B681B68FA681A6100BF1037AF
:104A5000BD4680BDBF0E160200879303FFE0F5053B
:104A60007FD1F00880B483B000AF78607B68D3F862
:104A7000883018460C37BD465DF8047B704780B41B
:104A800083B000AF78607B68D3F88C3018460C3761
:104A9000BD465DF8047B704780B584B000AF786098
:104AA0000023FB607B681B6803F580539B697A6871
:104AB000126843F4801302F5805293617B681B688F
:104AC00003F580539B69FB600120FEF7E5F97B68E5
:104AD0001A68FB6802F58052936100BF1037BD462B
:104AE00080BD000080B584B000AF786039607B681D
:104AF0001B681B68FB60FA68534B1340FB603B6804
:104B00009B7B5B063A68127C002A02D14FF40002BC
:104B100000E0002213433A68527C002A02D14FF48D
:104B2000800200E000221A433B689B681A433B68FE
:104B3000DB7F1B041A433B685B6913433A68927F2F
:104B4000002A02D14FF4005200E000221A433B68D1
:104B50001B7F1B031A433B689B691A433B681B7905
:104B60009B0213433A6892F82020002A02D14FF4A6
:104B7000007200E000221A433B68DB7BDB011A4332
:104B80003B685B6A1A433B6893F828301B01134368
:104B9000FA681343FB607B681B68FA681A607B68DD
:104BA0001B681B68FB600120FEF776F97B681B68B9
:104BB000FA681A607B681B689B69FB60FA684FF6AD
:104BC00041731340FB603B689B6C1B043A6892F88E
:104BD0004C20002A01D1802200E000221A433B68C9
:104BE0001B6D13433A6892F85520012A01D108221F
:104BF00000E0002213433A6892F85620012A01D1BE
:104C0000042200E0002213433A6892F85420012A5B
:104C100001D1022200E000221343FA681343FB6033
:104C20007B681B68FA689A617B681B689B69FB60FC
:104C30000120FEF731F97B681B68FA689A6100BFB2
:104C40001037BD4680BD00BF0F8120FD80B584B008
:104C500000AF786039607B681B6803F580539B69FF
:104C6000FB60FA683D4B1340FB603B681B7B002BED
:104C700002D14FF0806200E000223B685B7B5B0664
:104C800013433A68527F002A02D14FF4801200E0A9
:104C900000221A433B689B7B5B051A433B685B69B8
:104CA0001A433B681B7FDB011A433B689B7F9B01D8
:104CB0001A433B681B6A1A433B6893F824309B00F5
:104CC0001343FA681343FB607B681B6803F580534A
:104CD0001A46FB6893617B681B6803F580539B69E8
:104CE000FB600120FEF7D8F87B681B6803F5805352
:104CF0001A46FB6893613B681B795A063B689B68C0
:104D00001A433B689B691A433B681B691A433B681B
:104D100093F82530DB011A433B689B6A9B001A43DA
:104D20003B681B6813437A68126843F4000302F57A
:104D3000805213607B681B6803F580531B68FB601F
:104D40000120FEF7A9F87B681B6803F580531A461B
:104D5000FB68136000BF1037BD4680BD233FDEF8FF
:104D600080B5A6B000AF7860012387F844300123F6
:104D700087F845300023FB63002387F85330012375
:104D800087F85230002387F85030012387F84230EB
:104D9000012387F83830002387F85430002387F840
:104DA00043300023BB65002387F85C300023FB679A
:104DB000002387F880300023C7F88430002387F869
:104DC0008A30002387F888304FF48043BB644FF467
:104DD0000063FB64002387F8893007F13403194628
:104DE0007868FFF77FFE01233B7501237B75012364
:104DF00087F825300123BB750023FB61002387F86A
:104E00002430002387F826300023BB62012387F873
:104E10002C3001233B734FF480333B614FF480030C
:104E20003B624FF40053BB61012387F82D30002310
:104E30003B630023BB6007F1080319467868FFF75E
:104E400005FF00BF9837BD4680BD000080B487B025
:104E500000AFF860B9607A607B6805331B781B028D
:104E60007A680432127813437B61BA68114B134499
:104E70001A467B6913607B6803331B781A067B68CC
:104E800002331B781B041A437B6801331B781B0217
:104E900013437A68127813437B61BA68064B134454
:104EA0001A467B69136000BF1C37BD465DF8047B62
:104EB000704700BF408002404480024080B485B00B
:104EC00000AF78600023FB603EE07B68D968FA6839
:104ED00013469B001344DB000B44BB60BB680022FD
:104EE0001A60BB6800225A60BB6800229A60BB68E7
:104EF0000022DA60B9687B68FA68063243F822104B
:104F0000BB681B6843F48012BB681A60FB68022B05
:104F10000CD87B68D968FB685A1C13469B00134465
:104F2000DB000B441A46BB68DA6004E07B68DB6890
:104F30001A46BB68DA60BB681B6843F44002BB6872
:104F40001A60FB680133FB60FB68032BBDD97B68EB
:104F500000229A627B68DA687B681B6803F58053DD
:104F60001A6100BF1437BD465DF8047B704780B4FA
:104F700085B000AF78600023FB6048E07B6819696A
:104F8000FA6813469B001344DB000B44BB60BB680C
:104F900000221A60BB6800225A60BB6800229A6037
:104FA000BB680022DA60BB6800221A62BB6800227C
:104FB0005A62BB684FF000421A607B685B6943F439
:104FC0008042BB685A60BB685B6823F00042BB68E4
:104FD0005A60B9687B68FA68123243F82210FB689D
:104FE000022B0CD87B681969FB685A1C13469B007E
:104FF0001344DB000B441A46BB68DA6004E07B68AC
:105000001B691A46BB68DA60FB680133FB60FB680A
:10501000032BB3D97B680022DA657B6800221A660D
:105020007B6800229A667B680022DA667B68002231
:105030009A657B681A697B681B6803F58053DA60A0
:1050400000BF1437BD465DF8047B704780B491B053
:1050500000AFF860B9607A60FB6818337B627B6AE6
:105060001B69FB637B6A1B693B6200237B637B6A72
:10507000FA6B53F822303B63BB689B68FB620023EA
:10508000BB623B6B1B6803F00043B3F1004F07D0DA
:105090007A6AFB6B04339B0013445B68002B01D0DE
:1050A000022311E17B6B01337B63FB6A1B681A46A9
:1050B0003B6B9A603B6B5A68864B1340FA6A5268A6
:1050C0001A433B6B5A60BB681B6803F00103002B5B
:1050D00008D03B6B1B6823F44002BB685B691A4332
:1050E0003B6B1A60BB681B6803F02003002B08D0E1
:1050F0003B6B1B6823F04062BB681B691A433B6B28
:105100001A60BB681B6803F00403002B05D03B6BDF
:105110001B6843F080023B6B1A603B6B1B6843F0DB
:1051200080523B6B1A6082E03B6B1B6823F000529D
:105130003B6B1A607B68002B06D03B6B1B6843F00F
:1051400080423B6B1A6005E03B6B1B6823F080429A
:105150003B6B1A60FB6B0133FB63FB6B032B02D9C8
:10516000FB6B043BFB637B6AFA6B53F822303B63B7
:105170003B6B1B6803F00043B3F1004F07D07A6A22
:10518000FB6B04339B0013445B68002B29D03B6A04
:10519000FB637B6AFA6B53F822303B630023BB63EB
:1051A00019E0BFF35F8F00BF3B6B1B6823F0004229
:1051B0003B6B1A60FB6B0133FB63FB6B032B02D968
:1051C000FB6B043BFB637B6AFA6B53F822303B6357
:1051D000BB6B0133BB63BA6B7B6B9A42E1D3022397
:1051E00072E03B6B1B6823F080523B6B1A607B6B59
:1051F00001337B63FB6A9B68FB62FB6A1B681A4690
:105200003B6B9A603B6B5A68324B1340FA6A5268A8
:105210001A433B6B5A60BB6A0133BB62BFF35F8FBB
:1052200000BF3B6B1B6843F000423B6B1A60FB6A9C
:105230009B68002B7FF478AF7B68002B06D03B6B1C
:105240001B6843F080423B6B1A6005E03B6B1B68B8
:1052500023F080423B6B1A603B6B1B6843F00052AB
:105260003B6B1A607B6A3A6A53F822303B63BFF3A8
:105270005F8F00BF3B6B1B6843F000423B6B1A60C3
:105280007B6A5A6A796AFB6B04339B000B445A6051
:105290007B6AFA6B1A61EFF310833B613B69FB6138
:1052A00001237B617B6983F3108800BF7B6A9A6A64
:1052B000BB6A13445A1C7B6A9A62FB69BB61BB6977
:1052C00083F3108800BF002318464437BD465DF8BD
:1052D000047B704700E0FFFF80B586B000AFF86048
:1052E000B960C7E900230123FB75274B1B7D012B08
:1052F00001D1022343E0244B01221A754CF25030B5
:1053000000F078F80346FB75FB7D002B33D1FB687A
:10531000032B23D801A252F823F000BF2D5300081D
:105320003953000845530008515300083B7819468B
:10533000B86800F021F912E03B881946B86800F01F
:10534000F5F80CE03B681946B86800F0C9F806E0CB
:10535000D7E90023B86800F08DF800E000BF4CF2F8
:10536000503000F047F80346FB75084B1B69074AAD
:1053700023F001031361044B00221A75FB7D1846CC
:105380001837BD4680BD00BF44210120003C0240CB
:1053900080B483B000AF0023FB710B4B1B69002B63
:1053A0000BDA094B094A5A60074B094A5A60064B07
:1053B0001B69002B01DA0123FB71FB7918460C37BE
:1053C000BD465DF8047B7047003C02402301674501
:1053D000AB89EFCD80B400AF054B1B69044A43F0A5
:1053E0000043136100231846BD465DF8047B7047F7
:1053F000003C024080B584B000AF78600023FB60C1
:105400001A4B00229A61FDF73BFDF86010E07B68C3
:10541000B3F1FF3F0CD07B68002B07D0FDF730FDC8
:105420000246FB68D31A7A689A4201D2032319E034
:105430000F4BDB6803F48033002BE8D10C4BDB68A7
:1054400003F0F203002B03D000F0BAF8012309E0C7
:10545000074BDB6803F00103002B02D0044B012251
:10546000DA60002318461037BD4680BD4421012074
:10547000003C024080B485B000AFF860C7E900236B
:10548000164B1B69154A23F440731361134B1B69B8
:10549000124A43F440731361104B1B690F4A43F0E7
:1054A00001031361FB683A681A60BFF36F8F00BF96
:1054B000D7E900014FF000024FF000030A0000237B
:1054C000F968043113460B60BFF34F8F00BF00BF74
:1054D0001437BD465DF8047B704700BF003C0240B6
:1054E00080B483B000AF786039600F4B1B690E4AFF
:1054F00023F4407313610C4B1B690B4A43F4007394
:105500001361094B1B69084A43F0010313617B686F
:105510003A681A60BFF34F8F00BF00BF0C37BD461B
:105520005DF8047B704700BF003C024080B483B04C
:1055300000AF78600B467B800E4B1B690D4A23F44D
:10554000407313610B4B1B690A4A43F48073136168
:10555000084B1B69074A43F0010313617B687A8893
:105560001A80BFF34F8F00BF00BF0C37BD465DF8F8
:10557000047B7047003C024080B483B000AF786089
:105580000B46FB700D4B1B690C4A23F440731361EF
:105590000A4B0A4A1B691361084B1B69074A43F00F
:1055A000010313617B68FA781A70BFF34F8F00BF55
:1055B00000BF0C37BD465DF8047B7047003C0240DD
:1055C00080B400AF214BDB6803F00203002B05D051
:1055D0001F4B9B6943F020031D4A93611B4BDB6803
:1055E00003F01003002B05D0194B9B6943F0100307
:1055F000174A9361154BDB6803F02003002B05D09D
:10560000134B9B6943F00803114A93610F4BDB680E
:1056100003F04003002B05D00D4B9B6943F00403BE
:105620000B4A9361094BDB6803F08003002B05D024
:10563000074B9B6943F00203054A9361034BF22237
:10564000DA6000BFBD465DF8047B7047003C024055
:105650004421012080B584B000AF78603960012317
:10566000FB730023BB60304B1B7D012B01D1022358
:1056700056E02D4B01221A754CF25030FFF7BAFE5E
:105680000346FB73FB7B002B46D13B684FF0FF3298
:105690001A607B681B68012B15D17B681B69DAB225
:1056A0007B685B681946104600F044F84CF25030B5
:1056B000FFF7A0FE0346FB731C4B1A691B491C4BEA
:1056C00013400B6128E07B689B68BB601CE07B6833
:1056D0001B69DBB21946B86800F068F84CF250302C
:1056E000FFF788FE0346FB73104B1B690F4A23F03C
:1056F000FA031361FB7B002B03D03B68BA681A6086
:105700000AE0BB680133BB607B68DA687B689B6832
:105710001344BA689A42DAD3034B00221A75FB7B12
:1057200018461037BD4680BD44210120003C024090
:10573000FB7FFFFF80B483B000AF03463960FB718D
:10574000194B1B69184A23F4407313613B68032B00
:1057500007D1154B1A69144948F2040313430B612E
:105760000FE03B68022B06D10F4B1B690E4A43F436
:105770000043136105E00C4B1B690B4A43F0040323
:105780001361094B1A69FB791B021343064A43F460
:1057900080331361BFF34F8F00BF00BF0C37BD468E
:1057A0005DF8047B704700BF003C024080B485B0C8
:1057B00000AF78600B46FB700023FB60FB78002B8A
:1057C00002D10023FB6010E0FB78012B03D14FF4E2
:1057D0008073FB6009E0FB78022B03D14FF4007368
:1057E000FB6002E04FF44073FB607B680B2B02D937
:1057F0007B6804337B60154B1B69144A23F44073A8
:105800001361124B1A691149FB6813430B610F4B6B
:105810001B690E4A23F0F80313610C4B1A697B686D
:10582000DB001343094A43F002031361074B1B6972
:10583000064A43F480331361BFF34F8F00BF00BFAC
:105840001437BD465DF8047B704700BF003C024042
:1058500080B489B000AF786039600023FB61002319
:105860007B6100233B610023BB610023FB6175E189
:105870000122FB6902FA03F37B613B681B687A69CA
:1058800013403B613A697B699A4240F064813B680E
:105890005B6803F00303012B05D03B685B6803F0F2
:1058A0000303022B30D17B689B68BB61FB695B0003
:1058B000032202FA03F3DB43BA691340BB613B687E
:1058C000DA68FB695B0002FA03F3BA691343BB6150
:1058D0007B68BA699A607B685B68BB610122FB697F
:1058E00002FA03F3DB43BA691340BB613B685B68B0
:1058F0001B0903F00102FB6902FA03F3BA691343BF
:10590000BB617B68BA695A603B685B6803F003035C
:10591000032B17D07B68DB68BB61FB695B0003224C
:1059200002FA03F3DB43BA691340BB613B689A6830
:10593000FB695B0002FA03F3BA691343BB617B683E
:10594000BA69DA603B685B6803F00303022B23D17A
:10595000FB69DA087B68083253F82230BB61FB69C7
:1059600003F007039B000F2202FA03F3DB43BA693B
:105970001340BB613B681A69FB6903F007039B0096
:1059800002FA03F3BA691343BB61FB69DA087B6867
:105990000832B96943F822107B681B68BB61FB6958
:1059A0005B00032202FA03F3DB43BA691340BB61D5
:1059B0003B685B6803F00302FB695B0002FA03F3D8
:1059C000BA691343BB617B68BA691A603B685B685C
:1059D00003F44033002B00F0BE80664B5B6C654ADD
:1059E00043F480435364634B5B6C03F48043FB607C
:1059F000FB68614AFB699B08023352F82330BB61A4
:105A0000FB6903F003039B000F2202FA03F3DB435D
:105A1000BA691340BB617B68584A934237D07B68B0
:105A2000574A934231D07B68564A93422BD07B68C9
:105A3000554A934225D07B68544A93421FD07B68D5
:105A4000534A934219D07B68524A934213D07B68E1
:105A5000514A93420DD07B68504A934207D07B68ED
:105A60004F4A934201D1092312E00A2310E0082390
:105A70000EE007230CE006230AE0052308E00423D8
:105A800006E0032304E0022302E0012300E00023F8
:105A9000FA6902F0030292009340BA691343BB61B2
:105AA0003549FB699B080233BA6941F823203D4B15
:105AB0009B68BB613B69DB43BA691340BB613B68D0
:105AC0005B6803F48013002B03D0BA693B6913436E
:105AD000BB61344ABB699360324BDB68BB613B6995
